{
  "address": "0x7f49160EB9BB068101d445fe77E17ecDb37D0B47",
  "abi": [
    {
      "anonymous": false,
      "inputs": [
        {
          "indexed": false,
          "internalType": "uint256",
          "name": "_newLength",
          "type": "uint256"
        }
      ],
      "name": "EpochUpdated",
      "type": "event"
    },
    {
      "anonymous": false,
      "inputs": [
        {
          "indexed": false,
          "internalType": "uint8",
          "name": "version",
          "type": "uint8"
        }
      ],
      "name": "Initialized",
      "type": "event"
    },
    {
      "anonymous": false,
      "inputs": [
        {
          "indexed": false,
          "internalType": "address",
          "name": "_newMpcAddress",
          "type": "address"
        }
      ],
      "name": "MpcAddressUpdated",
      "type": "event"
    },
    {
      "anonymous": false,
      "inputs": [
        {
          "indexed": true,
          "internalType": "uint256",
          "name": "epochId",
          "type": "uint256"
        },
        {
          "indexed": false,
          "internalType": "uint256",
          "name": "startBlock",
          "type": "uint256"
        },
        {
          "indexed": false,
          "internalType": "uint256",
          "name": "endBlock",
          "type": "uint256"
        },
        {
          "indexed": false,
          "internalType": "address",
          "name": "signer",
          "type": "address"
        }
      ],
      "name": "NewEpoch",
      "type": "event"
    },
    {
      "anonymous": false,
      "inputs": [
        {
          "indexed": true,
          "internalType": "address",
          "name": "previousOwner",
          "type": "address"
        },
        {
          "indexed": true,
          "internalType": "address",
          "name": "newOwner",
          "type": "address"
        }
      ],
      "name": "OwnershipTransferred",
      "type": "event"
    },
    {
      "anonymous": false,
      "inputs": [
        {
          "indexed": true,
          "internalType": "uint256",
          "name": "oldEpochId",
          "type": "uint256"
        },
        {
          "indexed": true,
          "internalType": "uint256",
          "name": "newEpochId",
          "type": "uint256"
        },
        {
          "indexed": false,
          "internalType": "uint256",
          "name": "curEpochId",
          "type": "uint256"
        },
        {
          "indexed": false,
          "internalType": "uint256",
          "name": "startBlock",
          "type": "uint256"
        },
        {
          "indexed": false,
          "internalType": "uint256",
          "name": "endBlock",
          "type": "uint256"
        },
        {
          "indexed": false,
          "internalType": "address",
          "name": "newSigner",
          "type": "address"
        }
      ],
      "name": "ReCommitEpoch",
      "type": "event"
    },
    {
      "inputs": [
        {
          "internalType": "uint256",
          "name": "_newLength",
          "type": "uint256"
        }
      ],
      "name": "UpdateEpochLength",
      "outputs": [],
      "stateMutability": "nonpayable",
      "type": "function"
    },
    {
      "inputs": [
        {
          "internalType": "address",
          "name": "_newMpc",
          "type": "address"
        }
      ],
      "name": "UpdateMpcAddress",
      "outputs": [],
      "stateMutability": "nonpayable",
      "type": "function"
    },
    {
      "inputs": [
        {
          "internalType": "uint256",
          "name": "_newEpoch",
          "type": "uint256"
        },
        {
          "internalType": "uint256",
          "name": "_startBlock",
          "type": "uint256"
        },
        {
          "internalType": "uint256",
          "name": "_endBlock",
          "type": "uint256"
        },
        {
          "internalType": "address",
          "name": "_signer",
          "type": "address"
        }
      ],
      "name": "commitEpoch",
      "outputs": [],
      "stateMutability": "nonpayable",
      "type": "function"
    },
    {
      "inputs": [],
      "name": "currentEpoch",
      "outputs": [
        {
          "components": [
            {
              "internalType": "uint256",
              "name": "number",
              "type": "uint256"
            },
            {
              "internalType": "address",
              "name": "signer",
              "type": "address"
            },
            {
              "internalType": "uint256",
              "name": "startBlock",
              "type": "uint256"
            },
            {
              "internalType": "uint256",
              "name": "endBlock",
              "type": "uint256"
            }
          ],
          "internalType": "struct MetisSequencerSet.Epoch",
          "name": "epoch",
          "type": "tuple"
        }
      ],
      "stateMutability": "view",
      "type": "function"
    },
    {
      "inputs": [],
      "name": "currentEpochNumber",
      "outputs": [
        {
          "internalType": "uint256",
          "name": "",
          "type": "uint256"
        }
      ],
      "stateMutability": "view",
      "type": "function"
    },
    {
      "inputs": [],
      "name": "epochLength",
      "outputs": [
        {
          "internalType": "uint256",
          "name": "",
          "type": "uint256"
        }
      ],
      "stateMutability": "view",
      "type": "function"
    },
    {
      "inputs": [
        {
          "internalType": "uint256",
          "name": "number",
          "type": "uint256"
        }
      ],
      "name": "epochs",
      "outputs": [
        {
          "internalType": "uint256",
          "name": "number",
          "type": "uint256"
        },
        {
          "internalType": "address",
          "name": "signer",
          "type": "address"
        },
        {
          "internalType": "uint256",
          "name": "startBlock",
          "type": "uint256"
        },
        {
          "internalType": "uint256",
          "name": "endBlock",
          "type": "uint256"
        }
      ],
      "stateMutability": "view",
      "type": "function"
    },
    {
      "inputs": [],
      "name": "finalizedBlock",
      "outputs": [
        {
          "internalType": "uint256",
          "name": "",
          "type": "uint256"
        }
      ],
      "stateMutability": "view",
      "type": "function"
    },
    {
      "inputs": [],
      "name": "finalizedEpoch",
      "outputs": [
        {
          "components": [
            {
              "internalType": "uint256",
              "name": "number",
              "type": "uint256"
            },
            {
              "internalType": "address",
              "name": "signer",
              "type": "address"
            },
            {
              "internalType": "uint256",
              "name": "startBlock",
              "type": "uint256"
            },
            {
              "internalType": "uint256",
              "name": "endBlock",
              "type": "uint256"
            }
          ],
          "internalType": "struct MetisSequencerSet.Epoch",
          "name": "epoch",
          "type": "tuple"
        },
        {
          "internalType": "bool",
          "name": "exist",
          "type": "bool"
        }
      ],
      "stateMutability": "view",
      "type": "function"
    },
    {
      "inputs": [
        {
          "internalType": "uint256",
          "name": "_number",
          "type": "uint256"
        }
      ],
      "name": "getEpochByBlock",
      "outputs": [
        {
          "internalType": "uint256",
          "name": "",
          "type": "uint256"
        }
      ],
      "stateMutability": "view",
      "type": "function"
    },
    {
      "inputs": [
        {
          "internalType": "uint256",
          "name": "_number",
          "type": "uint256"
        }
      ],
      "name": "getMetisSequencer",
      "outputs": [
        {
          "internalType": "address",
          "name": "",
          "type": "address"
        }
      ],
      "stateMutability": "view",
      "type": "function"
    },
    {
      "inputs": [
        {
          "internalType": "address",
          "name": "_initialSequencer",
          "type": "address"
        },
        {
          "internalType": "address",
          "name": "_mpcAddress",
          "type": "address"
        },
        {
          "internalType": "uint256",
          "name": "_firstStartBlock",
          "type": "uint256"
        },
        {
          "internalType": "uint256",
          "name": "_firstEndBlock",
          "type": "uint256"
        },
        {
          "internalType": "uint256",
          "name": "_epochLength",
          "type": "uint256"
        }
      ],
      "name": "initialize",
      "outputs": [],
      "stateMutability": "nonpayable",
      "type": "function"
    },
    {
      "inputs": [],
      "name": "mpcAddress",
      "outputs": [
        {
          "internalType": "address",
          "name": "",
          "type": "address"
        }
      ],
      "stateMutability": "view",
      "type": "function"
    },
    {
      "inputs": [],
      "name": "owner",
      "outputs": [
        {
          "internalType": "address",
          "name": "",
          "type": "address"
        }
      ],
      "stateMutability": "view",
      "type": "function"
    },
    {
      "inputs": [
        {
          "internalType": "uint256",
          "name": "_oldEpochId",
          "type": "uint256"
        },
        {
          "internalType": "uint256",
          "name": "_newEpochId",
          "type": "uint256"
        },
        {
          "internalType": "uint256",
          "name": "_startBlock",
          "type": "uint256"
        },
        {
          "internalType": "uint256",
          "name": "_endBlock",
          "type": "uint256"
        },
        {
          "internalType": "address",
          "name": "_newSigner",
          "type": "address"
        }
      ],
      "name": "recommitEpoch",
      "outputs": [],
      "stateMutability": "nonpayable",
      "type": "function"
    },
    {
      "inputs": [],
      "name": "renounceOwnership",
      "outputs": [],
      "stateMutability": "nonpayable",
      "type": "function"
    },
    {
      "inputs": [
        {
          "internalType": "address",
          "name": "newOwner",
          "type": "address"
        }
      ],
      "name": "transferOwnership",
      "outputs": [],
      "stateMutability": "nonpayable",
      "type": "function"
    }
  ],
  "transactionHash": "0xadbf96ebd4f1171b6df2b5f280b6b036cf19f27fdb94a30ea1a56d6a0f6833e1",
  "args": [],
  "numDeployments": 1,
  "solcInputHash": "771f70c21986c7cf228a86db614cb580",
  "bytecode": "0x608060405234801561001057600080fd5b50611654806100206000396000f3fe608060405234801561001057600080fd5b506004361061011b5760003560e01c8063643dbfce116100b25780637667180811610081578063c6b61e4c11610066578063c6b61e4c14610263578063d13f90b4146102ca578063f2fde38b146102dd57600080fd5b8063766718081461023d5780638da5cb5b1461025257600080fd5b8063643dbfce146101d05780636903beb4146101e35780636bfa7398146101eb578063715018a61461023557600080fd5b80634084c3ab116100ee5780634084c3ab1461018b57806346df33d2146101a15780634fb71bdd146101b457806357d775f8146101c757600080fd5b8063111f46301461012057806324316ccb146101505780632c91c679146101655780633edae76914610178575b600080fd5b606654610133906001600160a01b031681565b6040516001600160a01b0390911681526020015b60405180910390f35b61016361015e366004611492565b6102f0565b005b6101636101733660046114c7565b6103f0565b610133610186366004611492565b610894565b61019361096f565b604051908152602001610147565b6101936101af366004611492565b6109a8565b6101636101c2366004611510565b610a81565b61019360655481565b6101636101de36600461154f565b610e0e565b606854610193565b6101f3610eba565b60408051835181526020808501516001600160a01b0316908201528382015191810191909152606092830151928101929092521515608082015260a001610147565b610163610f96565b610245610faa565b6040516101479190611571565b6033546001600160a01b0316610133565b6102a2610271366004611492565b606760205260009081526040902080546001820154600283015460039093015491926001600160a01b039091169184565b604080519485526001600160a01b039093166020850152918301526060820152608001610147565b6101636102d83660046115a7565b61102f565b6101636102eb36600461154f565b611274565b6066546001600160a01b031633148061031357506033546001600160a01b031633145b6103645760405162461bcd60e51b815260206004820152601060248201527f4e6f74204d7063206f72204f776e65720000000000000000000000000000000060448201526064015b60405180910390fd5b600081116103b45760405162461bcd60e51b815260206004820152601860248201527f496e76616c6964206e65772065706f6368206c656e6774680000000000000000604482015260640161035b565b60658190556040518181527fb33a1f54dde4e0082c45281b338d78b2c4b5be163b6ffffa5d0d6d1050ba5a58906020015b60405180910390a150565b6066546001600160a01b031633146104345760405162461bcd60e51b81526020600482015260076024820152664e6f74204d706360c81b604482015260640161035b565b4383146104835760405162461bcd60e51b815260206004820152601360248201527f496e76616c696420737461727420626c6f636b00000000000000000000000000604482015260640161035b565b6001600160a01b0381166104ca5760405162461bcd60e51b815260206004820152600e60248201526d24b73b30b634b21039b4b3b732b960911b604482015260640161035b565b606854808603610672576000818152606760205260409020600281015443116105355760405162461bcd60e51b815260206004820152601560248201527f436f6e666c696374206f6e20656e6420626c6f636b0000000000000000000000604482015260640161035b565b61054060014361160a565b600382015561055082600161161d565b861461059e5760405162461bcd60e51b815260206004820152601260248201527f496e76616c6964206e657745706f636849640000000000000000000000000000604482015260640161035b565b8484116106005760405162461bcd60e51b815260206004820152602a60248201527f456e6420626c6f636b206d7573742062652067726561746572207468616e20736044820152697461727420626c6f636b60b01b606482015260840161035b565b50604080516080810182528681526001600160a01b0384811660208084019182528385018981526060850189815260008c81526067909352959091209351845590516001840180546001600160a01b031916919093161790915551600282015590516003909101556068859055610838565b8061067e87600161161d565b036107f0576000868152606760205260409020600381015443116106ad576106a760014361160a565b60038201555b8186146106fc5760405162461bcd60e51b815260206004820152601260248201527f496e76616c6964206e657745706f636849640000000000000000000000000000604482015260640161035b565b84841161075e5760405162461bcd60e51b815260206004820152602a60248201527f456e6420626c6f636b206d7573742062652067726561746572207468616e20736044820152697461727420626c6f636b60b01b606482015260840161035b565b600086815260676020526040902060028101544311156107c05760405162461bcd60e51b815260206004820152601a60248201527f546865206c61746573742065706f63682070726f647563696e67000000000000604482015260640161035b565b6001810180546001600160a01b0319166001600160a01b0386161790556002810186905560030184905550610838565b60405162461bcd60e51b815260206004820152601260248201527f496e76616c6964206f6c6445706f636849640000000000000000000000000000604482015260640161035b565b60408051828152602081018690529081018490526001600160a01b0383166060820152859087907f2cfee2bd8227abd70bbef63ce6f35d2e365c731d553d9d2231073f80b01831da9060800160405180910390a3505050505050565b600080805260676020527fd4e1ac8b62c3ff1e2c1b7113742533b8310ce5ab8a8767ead9ba8b250c7e3ccc5482116108ff5750506000805260676020527fd4e1ac8b62c3ff1e2c1b7113742533b8310ce5ab8a8767ead9ba8b250c7e3cca546001600160a01b031690565b600061090a836109a8565b9050600019810361091e5750600092915050565b60009081526067602090815260409182902082516080810184528154815260018201546001600160a01b03169281018390526002820154938101939093526003015460609092019190915292915050565b600080600061097c610eba565b915091508015610990575060600151919050565b600182604001516109a1919061160a565b9250505090565b60008060685460016109ba919061161d565b9050805b8015610a765760006067816109d460018561160a565b8152602080820192909252604090810160002081516080810183528154815260018201546001600160a01b03169381019390935260028101549183018290526003015460608301529091508510801590610a32575080606001518511155b15610a405751949350505050565b8282148015610a525750806060015185115b15610a635750600019949350505050565b5080610a6e81611630565b9150506109be565b506000199392505050565b6066546001600160a01b03163314610ac55760405162461bcd60e51b81526020600482015260076024820152664e6f74204d706360c81b604482015260640161035b565b6068546001811115610b40574360676000610ae160018561160a565b81526020019081526020016000206003015410610b405760405162461bcd60e51b815260206004820152601b60248201527f546865206c6173742065706f6368206e6f742066696e69736865640000000000604482015260640161035b565b610b4b81600161161d565b8514610b995760405162461bcd60e51b815260206004820152601860248201527f496e76616c6964206e65772065706f6368206e756d6265720000000000000000604482015260640161035b565b838311610bfb5760405162461bcd60e51b815260206004820152602a60248201527f456e6420626c6f636b206d7573742062652067726561746572207468616e20736044820152697461727420626c6f636b60b01b606482015260840161035b565b606554610c08858561160a565b610c1390600161161d565b14610c865760405162461bcd60e51b815260206004820152602660248201527f4d69736d617463682065706f6368206c656e67746820616e6420626c6f636b2060448201527f6c656e6774680000000000000000000000000000000000000000000000000000606482015260840161035b565b6000818152606760205260409020600301548490610ca590600161161d565b14610d185760405162461bcd60e51b815260206004820152603b60248201527f537461727420626c6f636b206d7573742062652067726561746572207468616e60448201527f2063757272656e7445706f63682e656e64426c6f636b20627920310000000000606482015260840161035b565b6001600160a01b038216610d5f5760405162461bcd60e51b815260206004820152600e60248201526d24b73b30b634b21039b4b3b732b960911b604482015260640161035b565b604080516080810182528681526001600160a01b0384811660208084018281528486018a815260608087018b815260008e8152606786528990209751885592516001880180546001600160a01b0319169190971617909555516002860155516003909401939093556068899055835188815292830187905282840152915187927f9030849b7c46dbbea7911d67c5814a2ab19c0704c448defc9b87589447844cc6928290030190a25050505050565b610e16611304565b6001600160a01b038116610e6c5760405162461bcd60e51b815260206004820152600f60248201527f496e76616c6964206e6577206d70630000000000000000000000000000000000604482015260640161035b565b606680546001600160a01b0319166001600160a01b0383169081179091556040519081527f9416d5b743f4c1409b0213ee5d1e57e8515f4be68a32fbbda85f838891b421da906020016103e5565b610eee60405180608001604052806000815260200160006001600160a01b0316815260200160008152602001600081525090565b6000806068546001610f00919061161d565b9050805b8015610f8b5760676000610f1960018461160a565b8152602080820192909252604090810160002081516080810183528154815260018201546001600160a01b0316938101939093526002810154918301919091526003015460608201819052909450431115610f7957509192600192509050565b80610f8381611630565b915050610f04565b509192600092509050565b610f9e611304565b610fa8600061135e565b565b610fde60405180608001604052806000815260200160006001600160a01b0316815260200160008152602001600081525090565b5060685460009081526067602090815260409182902082516080810184528154815260018201546001600160a01b031692810192909252600281015492820192909252600390910154606082015290565b600054610100900460ff161580801561104f5750600054600160ff909116105b806110695750303b158015611069575060005460ff166001145b6110db5760405162461bcd60e51b815260206004820152602e60248201527f496e697469616c697a61626c653a20636f6e747261637420697320616c72656160448201527f647920696e697469616c697a6564000000000000000000000000000000000000606482015260840161035b565b6000805460ff1916600117905580156110fe576000805461ff0019166101001790555b606680546001600160a01b0319166001600160a01b03871617905560658290556000438511801561112e57508484115b61117a5760405162461bcd60e51b815260206004820152601360248201527f496e76616c696420626c6f636b2072616e676500000000000000000000000000604482015260640161035b565b604080516080810182528281526001600160a01b0389811660208084018281528486018b815260608087018c815260008a8152606786528990209751885592516001880180546001600160a01b031916919097161790955551600286015551600390940193909355835189815292830188905282840152915183927f9030849b7c46dbbea7911d67c5814a2ab19c0704c448defc9b87589447844cc6928290030190a26112256113b0565b50801561126c576000805461ff0019169055604051600181527f7f26b83ff96e1f2b6a682f133852f6798a09c465da95921460cefb38474024989060200160405180910390a15b505050505050565b61127c611304565b6001600160a01b0381166112f85760405162461bcd60e51b815260206004820152602660248201527f4f776e61626c653a206e6577206f776e657220697320746865207a65726f206160448201527f6464726573730000000000000000000000000000000000000000000000000000606482015260840161035b565b6113018161135e565b50565b6033546001600160a01b03163314610fa85760405162461bcd60e51b815260206004820181905260248201527f4f776e61626c653a2063616c6c6572206973206e6f7420746865206f776e6572604482015260640161035b565b603380546001600160a01b038381166001600160a01b0319831681179093556040519116919082907f8be0079c531659141344cd1fd0a4f28419497f9722a3daafe3b4186f6b6457e090600090a35050565b600054610100900460ff1661141b5760405162461bcd60e51b815260206004820152602b60248201527f496e697469616c697a61626c653a20636f6e7472616374206973206e6f74206960448201526a6e697469616c697a696e6760a81b606482015260840161035b565b610fa8600054610100900460ff166114895760405162461bcd60e51b815260206004820152602b60248201527f496e697469616c697a61626c653a20636f6e7472616374206973206e6f74206960448201526a6e697469616c697a696e6760a81b606482015260840161035b565b610fa83361135e565b6000602082840312156114a457600080fd5b5035919050565b80356001600160a01b03811681146114c257600080fd5b919050565b600080600080600060a086880312156114df57600080fd5b85359450602086013593506040860135925060608601359150611504608087016114ab565b90509295509295909350565b6000806000806080858703121561152657600080fd5b843593506020850135925060408501359150611544606086016114ab565b905092959194509250565b60006020828403121561156157600080fd5b61156a826114ab565b9392505050565b815181526020808301516001600160a01b0316908201526040808301519082015260608083015190820152608081015b92915050565b600080600080600060a086880312156115bf57600080fd5b6115c8866114ab565b94506115d6602087016114ab565b94979496505050506040830135926060810135926080909101359150565b634e487b7160e01b600052601160045260246000fd5b818103818111156115a1576115a16115f4565b808201808211156115a1576115a16115f4565b60008161163f5761163f6115f4565b50600019019056fea164736f6c6343000814000a"
}