{
  "address": "0xC4d6412F7b1E5cF16735cFbA3DC2412F7A402518",
  "abi": [
    {
      "anonymous": false,
      "inputs": [
        {
          "indexed": false,
          "internalType": "uint256",
          "name": "_newBatchId",
          "type": "uint256"
        }
      ],
      "name": "BatchSubmitReward",
      "type": "event"
    },
    {
      "anonymous": false,
      "inputs": [
        {
          "indexed": true,
          "internalType": "uint256",
          "name": "sequencerId",
          "type": "uint256"
        },
        {
          "indexed": false,
          "internalType": "address",
          "name": "recipient",
          "type": "address"
        },
        {
          "indexed": true,
          "internalType": "uint256",
          "name": "amount",
          "type": "uint256"
        },
        {
          "indexed": true,
          "internalType": "uint256",
          "name": "totalAmount",
          "type": "uint256"
        }
      ],
      "name": "ClaimRewards",
      "type": "event"
    },
    {
      "anonymous": false,
      "inputs": [
        {
          "indexed": false,
          "internalType": "uint8",
          "name": "version",
          "type": "uint8"
        }
      ],
      "name": "Initialized",
      "type": "event"
    },
    {
      "anonymous": false,
      "inputs": [
        {
          "indexed": true,
          "internalType": "uint256",
          "name": "sequencerId",
          "type": "uint256"
        },
        {
          "indexed": true,
          "internalType": "uint256",
          "name": "nonce",
          "type": "uint256"
        },
        {
          "indexed": true,
          "internalType": "uint256",
          "name": "newAmount",
          "type": "uint256"
        }
      ],
      "name": "LockUpdate",
      "type": "event"
    },
    {
      "anonymous": false,
      "inputs": [
        {
          "indexed": true,
          "internalType": "address",
          "name": "signer",
          "type": "address"
        },
        {
          "indexed": true,
          "internalType": "uint256",
          "name": "sequencerId",
          "type": "uint256"
        },
        {
          "indexed": false,
          "internalType": "uint256",
          "name": "nonce",
          "type": "uint256"
        },
        {
          "indexed": true,
          "internalType": "uint256",
          "name": "activationBatch",
          "type": "uint256"
        },
        {
          "indexed": false,
          "internalType": "uint256",
          "name": "amount",
          "type": "uint256"
        },
        {
          "indexed": false,
          "internalType": "uint256",
          "name": "total",
          "type": "uint256"
        },
        {
          "indexed": false,
          "internalType": "bytes",
          "name": "signerPubkey",
          "type": "bytes"
        }
      ],
      "name": "Locked",
      "type": "event"
    },
    {
      "anonymous": false,
      "inputs": [
        {
          "indexed": true,
          "internalType": "address",
          "name": "previousOwner",
          "type": "address"
        },
        {
          "indexed": true,
          "internalType": "address",
          "name": "newOwner",
          "type": "address"
        }
      ],
      "name": "OwnershipTransferred",
      "type": "event"
    },
    {
      "anonymous": false,
      "inputs": [
        {
          "indexed": true,
          "internalType": "uint256",
          "name": "sequencerId",
          "type": "uint256"
        },
        {
          "indexed": false,
          "internalType": "uint256",
          "name": "amount",
          "type": "uint256"
        },
        {
          "indexed": false,
          "internalType": "uint256",
          "name": "total",
          "type": "uint256"
        }
      ],
      "name": "Relocked",
      "type": "event"
    },
    {
      "anonymous": false,
      "inputs": [
        {
          "indexed": false,
          "internalType": "uint256",
          "name": "_newMaxLock",
          "type": "uint256"
        }
      ],
      "name": "SetMaxLock",
      "type": "event"
    },
    {
      "anonymous": false,
      "inputs": [
        {
          "indexed": false,
          "internalType": "uint256",
          "name": "_newMinLock",
          "type": "uint256"
        }
      ],
      "name": "SetMinLock",
      "type": "event"
    },
    {
      "anonymous": false,
      "inputs": [
        {
          "indexed": false,
          "internalType": "address",
          "name": "_payer",
          "type": "address"
        }
      ],
      "name": "SetRewardPayer",
      "type": "event"
    },
    {
      "anonymous": false,
      "inputs": [
        {
          "indexed": true,
          "internalType": "uint256",
          "name": "sequencerId",
          "type": "uint256"
        },
        {
          "indexed": false,
          "internalType": "uint256",
          "name": "nonce",
          "type": "uint256"
        },
        {
          "indexed": true,
          "internalType": "address",
          "name": "oldSigner",
          "type": "address"
        },
        {
          "indexed": true,
          "internalType": "address",
          "name": "newSigner",
          "type": "address"
        },
        {
          "indexed": false,
          "internalType": "bytes",
          "name": "signerPubkey",
          "type": "bytes"
        }
      ],
      "name": "SignerChange",
      "type": "event"
    },
    {
      "anonymous": false,
      "inputs": [
        {
          "indexed": true,
          "internalType": "address",
          "name": "user",
          "type": "address"
        },
        {
          "indexed": true,
          "internalType": "uint256",
          "name": "sequencerId",
          "type": "uint256"
        },
        {
          "indexed": false,
          "internalType": "uint256",
          "name": "nonce",
          "type": "uint256"
        },
        {
          "indexed": false,
          "internalType": "uint256",
          "name": "deactivationBatch",
          "type": "uint256"
        },
        {
          "indexed": false,
          "internalType": "uint256",
          "name": "deactivationTime",
          "type": "uint256"
        },
        {
          "indexed": false,
          "internalType": "uint256",
          "name": "unlockClaimTime",
          "type": "uint256"
        },
        {
          "indexed": true,
          "internalType": "uint256",
          "name": "amount",
          "type": "uint256"
        }
      ],
      "name": "UnlockInit",
      "type": "event"
    },
    {
      "anonymous": false,
      "inputs": [
        {
          "indexed": true,
          "internalType": "address",
          "name": "user",
          "type": "address"
        },
        {
          "indexed": true,
          "internalType": "uint256",
          "name": "sequencerId",
          "type": "uint256"
        },
        {
          "indexed": false,
          "internalType": "uint256",
          "name": "amount",
          "type": "uint256"
        },
        {
          "indexed": false,
          "internalType": "uint256",
          "name": "total",
          "type": "uint256"
        }
      ],
      "name": "Unlocked",
      "type": "event"
    },
    {
      "inputs": [],
      "name": "bridge",
      "outputs": [
        {
          "internalType": "address",
          "name": "",
          "type": "address"
        }
      ],
      "stateMutability": "view",
      "type": "function"
    },
    {
      "inputs": [
        {
          "internalType": "uint256",
          "name": "_batchId",
          "type": "uint256"
        },
        {
          "internalType": "uint256",
          "name": "_totalReward",
          "type": "uint256"
        }
      ],
      "name": "distributeReward",
      "outputs": [],
      "stateMutability": "nonpayable",
      "type": "function"
    },
    {
      "inputs": [
        {
          "internalType": "address",
          "name": "_operator",
          "type": "address"
        },
        {
          "internalType": "uint256",
          "name": "_seqId",
          "type": "uint256"
        },
        {
          "internalType": "uint256",
          "name": "_amount",
          "type": "uint256"
        },
        {
          "internalType": "uint256",
          "name": "_reward",
          "type": "uint256"
        },
        {
          "internalType": "address",
          "name": "_recipient",
          "type": "address"
        },
        {
          "internalType": "uint32",
          "name": "_l2gas",
          "type": "uint32"
        }
      ],
      "name": "finalizeUnlock",
      "outputs": [],
      "stateMutability": "payable",
      "type": "function"
    },
    {
      "inputs": [
        {
          "internalType": "uint256",
          "name": "_seqId",
          "type": "uint256"
        },
        {
          "internalType": "uint256",
          "name": "_nonce",
          "type": "uint256"
        },
        {
          "internalType": "address",
          "name": "_owner",
          "type": "address"
        },
        {
          "internalType": "uint256",
          "name": "_locked",
          "type": "uint256"
        },
        {
          "internalType": "uint256",
          "name": "_incoming",
          "type": "uint256"
        },
        {
          "internalType": "uint256",
          "name": "_fromReward",
          "type": "uint256"
        }
      ],
      "name": "increaseLocked",
      "outputs": [],
      "stateMutability": "nonpayable",
      "type": "function"
    },
    {
      "inputs": [
        {
          "internalType": "address",
          "name": "_manager",
          "type": "address"
        }
      ],
      "name": "initManager",
      "outputs": [],
      "stateMutability": "nonpayable",
      "type": "function"
    },
    {
      "inputs": [
        {
          "internalType": "address",
          "name": "_bridge",
          "type": "address"
        },
        {
          "internalType": "address",
          "name": "_l1Token",
          "type": "address"
        },
        {
          "internalType": "address",
          "name": "_l2Token",
          "type": "address"
        },
        {
          "internalType": "uint256",
          "name": "_l2ChainId",
          "type": "uint256"
        }
      ],
      "name": "initialize",
      "outputs": [],
      "stateMutability": "nonpayable",
      "type": "function"
    },
    {
      "inputs": [
        {
          "internalType": "uint256",
          "name": "_seqId",
          "type": "uint256"
        },
        {
          "internalType": "uint256",
          "name": "_reward",
          "type": "uint256"
        },
        {
          "internalType": "uint32",
          "name": "_l2gas",
          "type": "uint32"
        },
        {
          "components": [
            {
              "internalType": "uint256",
              "name": "amount",
              "type": "uint256"
            },
            {
              "internalType": "uint256",
              "name": "reward",
              "type": "uint256"
            },
            {
              "internalType": "uint256",
              "name": "activationBatch",
              "type": "uint256"
            },
            {
              "internalType": "uint256",
              "name": "updatedBatch",
              "type": "uint256"
            },
            {
              "internalType": "uint256",
              "name": "deactivationBatch",
              "type": "uint256"
            },
            {
              "internalType": "uint256",
              "name": "deactivationTime",
              "type": "uint256"
            },
            {
              "internalType": "uint256",
              "name": "unlockClaimTime",
              "type": "uint256"
            },
            {
              "internalType": "uint256",
              "name": "nonce",
              "type": "uint256"
            },
            {
              "internalType": "address",
              "name": "owner",
              "type": "address"
            },
            {
              "internalType": "address",
              "name": "signer",
              "type": "address"
            },
            {
              "internalType": "bytes",
              "name": "pubkey",
              "type": "bytes"
            },
            {
              "internalType": "address",
              "name": "rewardRecipient",
              "type": "address"
            },
            {
              "internalType": "enum ISequencerInfo.Status",
              "name": "status",
              "type": "uint8"
            }
          ],
          "internalType": "struct ISequencerInfo.Sequencer",
          "name": "_seq",
          "type": "tuple"
        }
      ],
      "name": "initializeUnlock",
      "outputs": [],
      "stateMutability": "payable",
      "type": "function"
    },
    {
      "inputs": [],
      "name": "l1Token",
      "outputs": [
        {
          "internalType": "address",
          "name": "",
          "type": "address"
        }
      ],
      "stateMutability": "view",
      "type": "function"
    },
    {
      "inputs": [],
      "name": "l2ChainId",
      "outputs": [
        {
          "internalType": "uint256",
          "name": "",
          "type": "uint256"
        }
      ],
      "stateMutability": "view",
      "type": "function"
    },
    {
      "inputs": [],
      "name": "l2Token",
      "outputs": [
        {
          "internalType": "address",
          "name": "",
          "type": "address"
        }
      ],
      "stateMutability": "view",
      "type": "function"
    },
    {
      "inputs": [
        {
          "internalType": "uint256",
          "name": "_seqId",
          "type": "uint256"
        },
        {
          "internalType": "uint256",
          "name": "_amount",
          "type": "uint256"
        },
        {
          "internalType": "address",
          "name": "_recipient",
          "type": "address"
        },
        {
          "internalType": "uint32",
          "name": "_l2gas",
          "type": "uint32"
        }
      ],
      "name": "liquidateReward",
      "outputs": [],
      "stateMutability": "payable",
      "type": "function"
    },
    {
      "inputs": [
        {
          "internalType": "uint256",
          "name": "sequencerId",
          "type": "uint256"
        },
        {
          "internalType": "address",
          "name": "oldSigner",
          "type": "address"
        },
        {
          "internalType": "address",
          "name": "newSigner",
          "type": "address"
        },
        {
          "internalType": "uint256",
          "name": "nonce",
          "type": "uint256"
        },
        {
          "internalType": "bytes",
          "name": "signerPubkey",
          "type": "bytes"
        }
      ],
      "name": "logSignerChange",
      "outputs": [],
      "stateMutability": "nonpayable",
      "type": "function"
    },
    {
      "inputs": [],
      "name": "manager",
      "outputs": [
        {
          "internalType": "address",
          "name": "",
          "type": "address"
        }
      ],
      "stateMutability": "view",
      "type": "function"
    },
    {
      "inputs": [],
      "name": "maxLock",
      "outputs": [
        {
          "internalType": "uint256",
          "name": "",
          "type": "uint256"
        }
      ],
      "stateMutability": "view",
      "type": "function"
    },
    {
      "inputs": [],
      "name": "minLock",
      "outputs": [
        {
          "internalType": "uint256",
          "name": "",
          "type": "uint256"
        }
      ],
      "stateMutability": "view",
      "type": "function"
    },
    {
      "inputs": [
        {
          "internalType": "uint256",
          "name": "_id",
          "type": "uint256"
        },
        {
          "internalType": "address",
          "name": "_owner",
          "type": "address"
        },
        {
          "internalType": "address",
          "name": "_signer",
          "type": "address"
        },
        {
          "internalType": "uint256",
          "name": "_amount",
          "type": "uint256"
        },
        {
          "internalType": "uint256",
          "name": "_batchId",
          "type": "uint256"
        },
        {
          "internalType": "bytes",
          "name": "_signerPubkey",
          "type": "bytes"
        }
      ],
      "name": "newSequencer",
      "outputs": [],
      "stateMutability": "nonpayable",
      "type": "function"
    },
    {
      "inputs": [],
      "name": "owner",
      "outputs": [
        {
          "internalType": "address",
          "name": "",
          "type": "address"
        }
      ],
      "stateMutability": "view",
      "type": "function"
    },
    {
      "inputs": [],
      "name": "renounceOwnership",
      "outputs": [],
      "stateMutability": "nonpayable",
      "type": "function"
    },
    {
      "inputs": [],
      "name": "rewardPayer",
      "outputs": [
        {
          "internalType": "address",
          "name": "",
          "type": "address"
        }
      ],
      "stateMutability": "view",
      "type": "function"
    },
    {
      "inputs": [
        {
          "internalType": "uint256",
          "name": "_maxLock",
          "type": "uint256"
        }
      ],
      "name": "setMaxLock",
      "outputs": [],
      "stateMutability": "nonpayable",
      "type": "function"
    },
    {
      "inputs": [
        {
          "internalType": "uint256",
          "name": "_minLock",
          "type": "uint256"
        }
      ],
      "name": "setMinLock",
      "outputs": [],
      "stateMutability": "nonpayable",
      "type": "function"
    },
    {
      "inputs": [
        {
          "internalType": "address",
          "name": "_payer",
          "type": "address"
        }
      ],
      "name": "setRewardPayer",
      "outputs": [],
      "stateMutability": "nonpayable",
      "type": "function"
    },
    {
      "inputs": [],
      "name": "totalLocked",
      "outputs": [
        {
          "internalType": "uint256",
          "name": "",
          "type": "uint256"
        }
      ],
      "stateMutability": "view",
      "type": "function"
    },
    {
      "inputs": [],
      "name": "totalRewardsLiquidated",
      "outputs": [
        {
          "internalType": "uint256",
          "name": "",
          "type": "uint256"
        }
      ],
      "stateMutability": "view",
      "type": "function"
    },
    {
      "inputs": [
        {
          "internalType": "address",
          "name": "newOwner",
          "type": "address"
        }
      ],
      "name": "transferOwnership",
      "outputs": [],
      "stateMutability": "nonpayable",
      "type": "function"
    }
  ],
  "transactionHash": "0x4f6db7266f73fb6fc49febdb7feb99e894fe3c074fe0b8d8dc978b47d6e428f1",
  "args": [],
  "numDeployments": 1,
  "solcInputHash": "417cfd47340fa2d5f97ed2aedcd65090",
  "bytecode": "0x608060405234801561000f575f80fd5b50611a0d8061001d5f395ff3fe60806040526004361061018e575f3560e01c8063aa15af6a116100dc578063cf756fdf11610087578063e78cea9211610062578063e78cea92146103f1578063e8b8b41314610410578063f037c6301461042f578063f2fde38b14610444575f80fd5b8063cf756fdf1461039e578063d6ae3cd5146103bd578063e3bcd27c146103d2575f80fd5b8063c01e1bd6116100b7578063c01e1bd61461034b578063cd15b2a51461036a578063cd6b838814610389575f80fd5b8063aa15af6a146102ee578063b1fc19d31461030d578063b32857021461032c575f80fd5b806356eff2671161013c5780636eb27154116101175780636eb271541461029e578063715018a6146102bd5780638da5cb5b146102d1575f80fd5b806356eff267146102575780635d7878a8146102765780636c0b3e4614610289575f80fd5b8063481c6a751161016c578063481c6a75146101e5578063528ed12a146102215780635689141214610234575f80fd5b80631badded5146101925780632243069c146101b35780632684b8ec146101c6575b5f80fd5b34801561019d575f80fd5b506101b16101ac3660046115be565b610463565b005b6101b16101c136600461164d565b610595565b3480156101d1575f80fd5b506101b16101e03660046116af565b610678565b3480156101f0575f80fd5b50606d54610204906001600160a01b031681565b6040516001600160a01b0390911681526020015b60405180910390f35b6101b161022f3660046116fc565b610811565b34801561023f575f80fd5b50610249606b5481565b604051908152602001610218565b348015610262575f80fd5b50606754610204906001600160a01b031681565b6101b1610284366004611757565b6108e8565b348015610294575f80fd5b50610249606a5481565b3480156102a9575f80fd5b50606e54610204906001600160a01b031681565b3480156102c8575f80fd5b506101b1610942565b3480156102dc575f80fd5b506033546001600160a01b0316610204565b3480156102f9575f80fd5b506101b161030836600461179a565b610955565b348015610318575f80fd5b506101b16103273660046117b1565b6109e8565b348015610337575f80fd5b506101b16103463660046117d1565b610a6b565b348015610356575f80fd5b50606654610204906001600160a01b031681565b348015610375575f80fd5b506101b161038436600461179a565b610b0b565b348015610394575f80fd5b50610249606c5481565b3480156103a9575f80fd5b506101b16103b8366004611844565b610b9a565b3480156103c8575f80fd5b5061024960685481565b3480156103dd575f80fd5b506101b16103ec36600461188c565b610d16565b3480156103fc575f80fd5b50606554610204906001600160a01b031681565b34801561041b575f80fd5b506101b161042a3660046117b1565b610db3565b34801561043a575f80fd5b5061024960695481565b34801561044f575f80fd5b506101b161045e3660046117b1565b610e09565b606d546001600160a01b031633146104b05760405162461bcd60e51b815260206004820152600b60248201526a2737ba1036b0b730b3b2b960a91b60448201526064015b60405180910390fd5b60695484101580156104c45750606a548411155b6105105760405162461bcd60e51b815260206004820152600e60248201527f696e76616c696420616d6f756e7400000000000000000000000000000000000060448201526064016104a7565b5f84606b5461051f91906118c0565b606b81905560665490915061053f906001600160a01b0316883088610e99565b8388876001600160a01b03167fe6f1eb1f1d0ca344d03cf47b9e6ece8a7d3b196e38dd7dd2307cca75e26682a8600189868989604051610583959493929190611901565b60405180910390a45050505050505050565b606d546001600160a01b031633146105dd5760405162461bcd60e51b815260206004820152600b60248201526a2737ba1036b0b730b3b2b960a91b60448201526064016104a7565b6105fa84846105f4610180850161016086016117b1565b85610f31565b828461060e610140840161012085016117b1565b6040805160e08601358152608080870135602083015260a08701359282019290925260c086013560608201526001600160a01b0392909216917f06d9e13438f0daf13a71d63f3f8579db8bdeb299e4b651942313c73224d7af69910160405180910390a450505050565b606d546001600160a01b031633146106c05760405162461bcd60e51b815260206004820152600b60248201526a2737ba1036b0b730b3b2b960a91b60448201526064016104a7565b606a548311156107125760405162461bcd60e51b815260206004820152600e60248201527f6c6f636b65643e6d61784c6f636b00000000000000000000000000000000000060448201526064016104a7565b5f61071d82846118c0565b90505f811161076e5760405162461bcd60e51b815260206004820152601360248201527f4e6f206e6577206c6f636b65642061646465640000000000000000000000000060448201526064016104a7565b606654610786906001600160a01b0316863086610e99565b5f81606b5461079591906118c0565b606b819055604080518481526020810183905291925089917f33a87ba488658b3d1319098cd49c6d65b72a79c0f3530fec611e7afffed04395910160405180910390a28487897fd716c027b3dd610e4534df756848128bbb159a757724c17d89fcc4d0151b1f3060405160405180910390a45050505050505050565b606d546001600160a01b031633146108595760405162461bcd60e51b815260206004820152600b60248201526a2737ba1036b0b730b3b2b960a91b60448201526064016104a7565b5f84606b546108689190611926565b606b819055606654909150610887906001600160a01b03168887610f9c565b83156108995761089986858585610f31565b604080518681526020810183905287916001600160a01b038a16917f5245d528087a96a64f4589a764f00061e4671eab90cb1e019b1a5b24b2e4c2a8910160405180910390a350505050505050565b606d546001600160a01b031633146109305760405162461bcd60e51b815260206004820152600b60248201526a2737ba1036b0b730b3b2b960a91b60448201526064016104a7565b61093c84848484610f31565b50505050565b61094a610fd1565b6109535f61102b565b565b61095d610fd1565b5f81116109ac5760405162461bcd60e51b815260206004820152600a60248201527f5f6d696e4c6f636b3d300000000000000000000000000000000000000000000060448201526064016104a7565b60698190556040518181527fabb05374bb45ebfef33afb21ec5aa52333708d8217fd8e5c0616efd2530b2145906020015b60405180910390a150565b6109f0610fd1565b606d546001600160a01b031615610a495760405162461bcd60e51b815260206004820152601c60248201527f6d616e6167657220686173206265656e20696e697469616c697a65640000000060448201526064016104a7565b606d80546001600160a01b0319166001600160a01b0392909216919091179055565b606d546001600160a01b03163314610ab35760405162461bcd60e51b815260206004820152600b60248201526a2737ba1036b0b730b3b2b960a91b60448201526064016104a7565b836001600160a01b0316856001600160a01b0316877f086044c0612a8c965d4cccd907f0d588e40ad68438bd4c1274cac60f4c3a9d1f868686604051610afb93929190611939565b60405180910390a4505050505050565b610b13610fd1565b606954811015610b655760405162461bcd60e51b815260206004820152600f60248201527f6d61784c6f636b3c6d696e4c6f636b000000000000000000000000000000000060448201526064016104a7565b606a8190556040518181527fbe23e9641c545443c3c625039b327c0eee88e9024040be7b03c5d73862d425e0906020016109dd565b5f54610100900460ff1615808015610bb857505f54600160ff909116105b80610bd15750303b158015610bd157505f5460ff166001145b610c435760405162461bcd60e51b815260206004820152602e60248201527f496e697469616c697a61626c653a20636f6e747261637420697320616c72656160448201527f647920696e697469616c697a656400000000000000000000000000000000000060648201526084016104a7565b5f805460ff191660011790558015610c64575f805461ff0019166101001790555b606580546001600160a01b038088166001600160a01b031992831617909255606680548784169083161790556067805492861692909116919091179055606882905569043c33c193756480000060695569152d02c7e14af6800000606a55610cca61107c565b8015610d0f575f805461ff0019169055604051600181527f7f26b83ff96e1f2b6a682f133852f6798a09c465da95921460cefb38474024989060200160405180910390a15b5050505050565b606d546001600160a01b03163314610d5e5760405162461bcd60e51b815260206004820152600b60248201526a2737ba1036b0b730b3b2b960a91b60448201526064016104a7565b606e54606654610d7c916001600160a01b0391821691163084610e99565b6040518281527f9e5aedd489785d05ba086064386f2e75b3e497d3dc00a54ed1c78bfc50a3953f9060200160405180910390a15050565b610dbb610fd1565b606e80546001600160a01b0319166001600160a01b0383169081179091556040519081527f30b92f5a89d7473895c4e9ce260fa7d0eefef2d59d5e68192e2e8cca4b9473a0906020016109dd565b610e11610fd1565b6001600160a01b038116610e8d5760405162461bcd60e51b815260206004820152602660248201527f4f776e61626c653a206e6577206f776e657220697320746865207a65726f206160448201527f646472657373000000000000000000000000000000000000000000000000000060648201526084016104a7565b610e968161102b565b50565b6040516001600160a01b038085166024830152831660448201526064810182905261093c9085906323b872dd60e01b906084015b60408051601f198184030181529190526020810180517bffffffffffffffffffffffffffffffffffffffffffffffffffffffff167fffffffff00000000000000000000000000000000000000000000000000000000909316929092179091526110ee565b610f3c8284836111d4565b5f83606c54610f4b91906118c0565b606c8190556040516001600160a01b03851681529091508190859087907f18c7dc2a1800c409227dc12c0c05ada9c995ebfe0e42ae6d65f1b3ae3e6111de9060200160405180910390a45050505050565b6040516001600160a01b038316602482015260448101829052610fcc90849063a9059cbb60e01b90606401610ecd565b505050565b6033546001600160a01b031633146109535760405162461bcd60e51b815260206004820181905260248201527f4f776e61626c653a2063616c6c6572206973206e6f7420746865206f776e657260448201526064016104a7565b603380546001600160a01b038381166001600160a01b0319831681179093556040519116919082907f8be0079c531659141344cd1fd0a4f28419497f9722a3daafe3b4186f6b6457e0905f90a35050565b5f54610100900460ff166110e65760405162461bcd60e51b815260206004820152602b60248201527f496e697469616c697a61626c653a20636f6e7472616374206973206e6f74206960448201526a6e697469616c697a696e6760a81b60648201526084016104a7565b6109536112a0565b5f611142826040518060400160405280602081526020017f5361666545524332303a206c6f772d6c6576656c2063616c6c206661696c6564815250856001600160a01b03166113139092919063ffffffff16565b905080515f1480611162575080806020019051810190611162919061195b565b610fcc5760405162461bcd60e51b815260206004820152602a60248201527f5361666545524332303a204552433230206f7065726174696f6e20646964206e60448201527f6f7420737563636565640000000000000000000000000000000000000000000060648201526084016104a7565b815f036111e057505050565b6065546066546111fd916001600160a01b03918216911684611329565b6065546068546066546067546040516377c045f160e11b815260048101939093526001600160a01b0391821660248401528116604483015285811660648301526084820185905263ffffffff841660a483015260e060c48301525f60e48301529091169063ef808be2903490610104015f604051808303818588803b158015611284575f80fd5b505af1158015611296573d5f803e3d5ffd5b5050505050505050565b5f54610100900460ff1661130a5760405162461bcd60e51b815260206004820152602b60248201527f496e697469616c697a61626c653a20636f6e7472616374206973206e6f74206960448201526a6e697469616c697a696e6760a81b60648201526084016104a7565b6109533361102b565b606061132184845f856113d3565b949350505050565b604051636eb1769f60e11b81523060048201526001600160a01b0383811660248301525f919085169063dd62ed3e90604401602060405180830381865afa158015611376573d5f803e3d5ffd5b505050506040513d601f19601f8201168201806040525081019061139a919061197a565b905061093c8463095ea7b360e01b856113b386866118c0565b6040516001600160a01b0390921660248301526044820152606401610ecd565b60608247101561144b5760405162461bcd60e51b815260206004820152602660248201527f416464726573733a20696e73756666696369656e742062616c616e636520666f60448201527f722063616c6c000000000000000000000000000000000000000000000000000060648201526084016104a7565b5f80866001600160a01b0316858760405161146691906119b3565b5f6040518083038185875af1925050503d805f81146114a0576040519150601f19603f3d011682016040523d82523d5f602084013e6114a5565b606091505b50915091506114b6878383876114c1565b979650505050505050565b6060831561152f5782515f03611528576001600160a01b0385163b6115285760405162461bcd60e51b815260206004820152601d60248201527f416464726573733a2063616c6c20746f206e6f6e2d636f6e747261637400000060448201526064016104a7565b5081611321565b61132183838151156115445781518083602001fd5b8060405162461bcd60e51b81526004016104a791906119ce565b80356001600160a01b0381168114611574575f80fd5b919050565b5f8083601f840112611589575f80fd5b50813567ffffffffffffffff8111156115a0575f80fd5b6020830191508360208285010111156115b7575f80fd5b9250929050565b5f805f805f805f60c0888a0312156115d4575f80fd5b873596506115e46020890161155e565b95506115f26040890161155e565b9450606088013593506080880135925060a088013567ffffffffffffffff81111561161b575f80fd5b6116278a828b01611579565b989b979a50959850939692959293505050565b803563ffffffff81168114611574575f80fd5b5f805f8060808587031215611660575f80fd5b84359350602085013592506116776040860161163a565b9150606085013567ffffffffffffffff811115611692575f80fd5b85016101a081880312156116a4575f80fd5b939692955090935050565b5f805f805f8060c087890312156116c4575f80fd5b86359550602087013594506116db6040880161155e565b9350606087013592506080870135915060a087013590509295509295509295565b5f805f805f8060c08789031215611711575f80fd5b61171a8761155e565b955060208701359450604087013593506060870135925061173d6080880161155e565b915061174b60a0880161163a565b90509295509295509295565b5f805f806080858703121561176a575f80fd5b84359350602085013592506117816040860161155e565b915061178f6060860161163a565b905092959194509250565b5f602082840312156117aa575f80fd5b5035919050565b5f602082840312156117c1575f80fd5b6117ca8261155e565b9392505050565b5f805f805f8060a087890312156117e6575f80fd5b863595506117f66020880161155e565b94506118046040880161155e565b935060608701359250608087013567ffffffffffffffff811115611826575f80fd5b61183289828a01611579565b979a9699509497509295939492505050565b5f805f8060808587031215611857575f80fd5b6118608561155e565b935061186e6020860161155e565b925061187c6040860161155e565b9396929550929360600135925050565b5f806040838503121561189d575f80fd5b50508035926020909101359150565b634e487b7160e01b5f52601160045260245ffd5b808201808211156118d3576118d36118ac565b92915050565b81835281816020850137505f828201602090810191909152601f909101601f19169091010190565b858152846020820152836040820152608060608201525f6114b66080830184866118d9565b818103818111156118d3576118d36118ac565b838152604060208201525f6119526040830184866118d9565b95945050505050565b5f6020828403121561196b575f80fd5b815180151581146117ca575f80fd5b5f6020828403121561198a575f80fd5b5051919050565b5f5b838110156119ab578181015183820152602001611993565b50505f910152565b5f82516119c4818460208701611991565b9190910192915050565b602081525f82518060208401526119ec816040850160208701611991565b601f01601f1916919091016040019291505056fea164736f6c6343000818000a",
  "devdoc": {
    "events": {
      "BatchSubmitReward(uint256)": {
        "details": "Emitted when batch update in  'batchSubmitRewards'",
        "params": {
          "_newBatchId": "new batchId."
        }
      },
      "ClaimRewards(uint256,address,uint256,uint256)": {
        "details": "Emitted when sequencer withdraw rewards in 'withdrawRewards' or 'unlockClaim'",
        "params": {
          "amount": "the reward amount.",
          "recipient": "the address receive reward tokens",
          "sequencerId": "unique integer to identify a sequencer.",
          "totalAmount": "total rewards has liquidated"
        }
      },
      "Initialized(uint8)": {
        "details": "Triggered when the contract has been initialized or reinitialized."
      },
      "LockUpdate(uint256,uint256,uint256)": {
        "details": "Emitted when sequencer relocking in 'relock()'.",
        "params": {
          "newAmount": "the updated lock amount.",
          "nonce": "to synchronize the events in themis.",
          "sequencerId": "unique integer to identify a sequencer."
        }
      },
      "Locked(address,uint256,uint256,uint256,uint256,uint256,bytes)": {
        "details": "Emitted when sequencer locks in '_lockFor()' in LockingPool.",
        "params": {
          "activationBatch": "sequencer's first epoch as proposer.",
          "amount": "locking amount.",
          "nonce": "to synchronize the events in themis.",
          "sequencerId": "unique integer to identify a sequencer.",
          "signer": "sequencer address.",
          "signerPubkey": "public key of the sequencer",
          "total": "total locking amount."
        }
      },
      "Relocked(uint256,uint256,uint256)": {
        "details": "Emitted when the sequencer increase lock amoun in 'relock()'.",
        "params": {
          "amount": "locking new amount",
          "sequencerId": "unique integer to identify a sequencer.",
          "total": "the total locking amount"
        }
      },
      "SetMaxLock(uint256)": {
        "details": "Emitted when min lock amount update in 'UpdateMaxAmounts'",
        "params": {
          "_newMaxLock": "new max lock."
        }
      },
      "SetMinLock(uint256)": {
        "details": "Emitted when min lock amount update in 'UpdateMinAmounts'",
        "params": {
          "_newMinLock": "new min lock."
        }
      },
      "SetRewardPayer(address)": {
        "details": "Emitted when the reward payer is changed",
        "params": {
          "_payer": "new reward payer"
        }
      },
      "SignerChange(uint256,uint256,address,address,bytes)": {
        "details": "Emitted when the sequencer public key is updated in 'updateSigner()'.",
        "params": {
          "newSigner": "newSigner new address of the sequencer.",
          "nonce": "to synchronize the events in themis.",
          "oldSigner": "oldSigner old address of the sequencer.",
          "sequencerId": "unique integer to identify a sequencer.",
          "signerPubkey": "signerPubkey public key of the sequencer."
        }
      },
      "UnlockInit(address,uint256,uint256,uint256,uint256,uint256,uint256)": {
        "details": "Emitted when sequencer unlocks in '_unlock()'.",
        "params": {
          "amount": "locking amount",
          "deactivationBatch": "last batch for sequencer.",
          "deactivationTime": "unlock block timestamp.",
          "nonce": "to synchronize the events in themis.",
          "sequencerId": "unique integer to identify a sequencer.",
          "unlockClaimTime": "when user can claim locked token.",
          "user": "address of the sequencer."
        }
      },
      "Unlocked(address,uint256,uint256,uint256)": {
        "details": "Emitted when sequencer unlocks in 'unlockClaim()'",
        "params": {
          "amount": "locking amount.",
          "sequencerId": "unique integer to identify a sequencer.",
          "total": "total locking amount.",
          "user": "address of the sequencer."
        }
      }
    },
    "kind": "dev",
    "methods": {
      "distributeReward(uint256,uint256)": {
        "details": "distributeReward reward distribution",
        "params": {
          "_batchId": "The batchId that submitted the reward is that"
        }
      },
      "finalizeUnlock(address,uint256,uint256,uint256,address,uint32)": {
        "details": "finalizeUnlock the last step to unlock",
        "params": {
          "_amount": "locked amount",
          "_l2gas": "the l2gas for L1bridge",
          "_operator": "the sequencer id",
          "_recipient": "recipient",
          "_reward": "reward amount",
          "_seqId": "the sequencer id"
        }
      },
      "increaseLocked(uint256,uint256,address,uint256,uint256,uint256)": {
        "details": "increaseLocked lock tokens to the sequencer, it can only be called from manager contract",
        "params": {
          "_fromReward": "use reward to lock",
          "_incoming": "amount from current transaction",
          "_locked": "the locked amount of the sequencer at last",
          "_nonce": "the sequencer nonce",
          "_owner": "the sequencer owner address",
          "_seqId": "the sequencer id"
        }
      },
      "initializeUnlock(uint256,uint256,uint32,(uint256,uint256,uint256,uint256,uint256,uint256,uint256,uint256,address,address,bytes,address,uint8))": {
        "details": "initializeUnlock the first step to unlock      current reward will be distributed",
        "params": {
          "_l2gas": "the l2gas for L1bridge",
          "_reward": "the reward to withdraw",
          "_seq": "the current sequencer state",
          "_seqId": "the sequencer id"
        }
      },
      "logSignerChange(uint256,address,address,uint256,bytes)": {
        "details": "logSignerChange log event SignerChange"
      },
      "newSequencer(uint256,address,address,uint256,uint256,bytes)": {
        "details": "newSequencer register a new sequencer, it can only be called from manager contract",
        "params": {
          "_amount": "the amount to lock in",
          "_batchId": "current batch id",
          "_id": "the sequencer id",
          "_owner": "the sequencer owenr",
          "_signer": "the sequencer node address",
          "_signerPubkey": "the sequencer public key"
        }
      },
      "owner()": {
        "details": "Returns the address of the current owner."
      },
      "renounceOwnership()": {
        "details": "Leaves the contract without owner. It will not be possible to call `onlyOwner` functions. Can only be called by the current owner. NOTE: Renouncing ownership will leave the contract without an owner, thereby disabling any functionality that is only available to the owner."
      },
      "setMaxLock(uint256)": {
        "details": "setMaxLock Allow owner to update max lock amount",
        "params": {
          "_maxLock": "new max lock amount"
        }
      },
      "setMinLock(uint256)": {
        "details": "updateMinAmounts Allow owner to update min lock amount",
        "params": {
          "_minLock": "new min lock amount"
        }
      },
      "setRewardPayer(address)": {
        "details": "setRewardPayer update reward payer address by owner",
        "params": {
          "_payer": "new reward payer"
        }
      },
      "transferOwnership(address)": {
        "details": "Transfers ownership of the contract to a new account (`newOwner`). Can only be called by the current owner."
      }
    },
    "version": 1
  },
  "userdoc": {
    "kind": "user",
    "methods": {},
    "version": 1
  },
  "storageLayout": {
    "storage": [
      {
        "astId": 139,
        "contract": "contracts/LockingInfo.sol:LockingInfo",
        "label": "_initialized",
        "offset": 0,
        "slot": "0",
        "type": "t_uint8"
      },
      {
        "astId": 142,
        "contract": "contracts/LockingInfo.sol:LockingInfo",
        "label": "_initializing",
        "offset": 1,
        "slot": "0",
        "type": "t_bool"
      },
      {
        "astId": 809,
        "contract": "contracts/LockingInfo.sol:LockingInfo",
        "label": "__gap",
        "offset": 0,
        "slot": "1",
        "type": "t_array(t_uint256)50_storage"
      },
      {
        "astId": 11,
        "contract": "contracts/LockingInfo.sol:LockingInfo",
        "label": "_owner",
        "offset": 0,
        "slot": "51",
        "type": "t_address"
      },
      {
        "astId": 131,
        "contract": "contracts/LockingInfo.sol:LockingInfo",
        "label": "__gap",
        "offset": 0,
        "slot": "52",
        "type": "t_array(t_uint256)49_storage"
      },
      {
        "astId": 2296,
        "contract": "contracts/LockingInfo.sol:LockingInfo",
        "label": "bridge",
        "offset": 0,
        "slot": "101",
        "type": "t_address"
      },
      {
        "astId": 2298,
        "contract": "contracts/LockingInfo.sol:LockingInfo",
        "label": "l1Token",
        "offset": 0,
        "slot": "102",
        "type": "t_address"
      },
      {
        "astId": 2300,
        "contract": "contracts/LockingInfo.sol:LockingInfo",
        "label": "l2Token",
        "offset": 0,
        "slot": "103",
        "type": "t_address"
      },
      {
        "astId": 2302,
        "contract": "contracts/LockingInfo.sol:LockingInfo",
        "label": "l2ChainId",
        "offset": 0,
        "slot": "104",
        "type": "t_uint256"
      },
      {
        "astId": 2304,
        "contract": "contracts/LockingInfo.sol:LockingInfo",
        "label": "minLock",
        "offset": 0,
        "slot": "105",
        "type": "t_uint256"
      },
      {
        "astId": 2306,
        "contract": "contracts/LockingInfo.sol:LockingInfo",
        "label": "maxLock",
        "offset": 0,
        "slot": "106",
        "type": "t_uint256"
      },
      {
        "astId": 2308,
        "contract": "contracts/LockingInfo.sol:LockingInfo",
        "label": "totalLocked",
        "offset": 0,
        "slot": "107",
        "type": "t_uint256"
      },
      {
        "astId": 2310,
        "contract": "contracts/LockingInfo.sol:LockingInfo",
        "label": "totalRewardsLiquidated",
        "offset": 0,
        "slot": "108",
        "type": "t_uint256"
      },
      {
        "astId": 2312,
        "contract": "contracts/LockingInfo.sol:LockingInfo",
        "label": "manager",
        "offset": 0,
        "slot": "109",
        "type": "t_address"
      },
      {
        "astId": 2314,
        "contract": "contracts/LockingInfo.sol:LockingInfo",
        "label": "rewardPayer",
        "offset": 0,
        "slot": "110",
        "type": "t_address"
      }
    ],
    "types": {
      "t_address": {
        "encoding": "inplace",
        "label": "address",
        "numberOfBytes": "20"
      },
      "t_array(t_uint256)49_storage": {
        "base": "t_uint256",
        "encoding": "inplace",
        "label": "uint256[49]",
        "numberOfBytes": "1568"
      },
      "t_array(t_uint256)50_storage": {
        "base": "t_uint256",
        "encoding": "inplace",
        "label": "uint256[50]",
        "numberOfBytes": "1600"
      },
      "t_bool": {
        "encoding": "inplace",
        "label": "bool",
        "numberOfBytes": "1"
      },
      "t_uint256": {
        "encoding": "inplace",
        "label": "uint256",
        "numberOfBytes": "32"
      },
      "t_uint8": {
        "encoding": "inplace",
        "label": "uint8",
        "numberOfBytes": "1"
      }
    }
  }
}