{
  "address": "0xb60aD54FE96A2951ba010fd1016A54DD5a862f51",
  "abi": [
    {
      "inputs": [],
      "name": "NoRewardRecipient",
      "type": "error"
    },
    {
      "inputs": [],
      "name": "NoSuchSeq",
      "type": "error"
    },
    {
      "inputs": [],
      "name": "NotSeqOwner",
      "type": "error"
    },
    {
      "inputs": [],
      "name": "NotSeqSigner",
      "type": "error"
    },
    {
      "inputs": [],
      "name": "NotWhitelisted",
      "type": "error"
    },
    {
      "inputs": [],
      "name": "NullAddress",
      "type": "error"
    },
    {
      "inputs": [],
      "name": "OwnedSequencer",
      "type": "error"
    },
    {
      "inputs": [],
      "name": "SeqNotActive",
      "type": "error"
    },
    {
      "inputs": [],
      "name": "SignerExisted",
      "type": "error"
    },
    {
      "anonymous": false,
      "inputs": [
        {
          "indexed": true,
          "internalType": "uint256",
          "name": "batchId",
          "type": "uint256"
        },
        {
          "indexed": false,
          "internalType": "uint256",
          "name": "startEpoch",
          "type": "uint256"
        },
        {
          "indexed": false,
          "internalType": "uint256",
          "name": "endEpoch",
          "type": "uint256"
        },
        {
          "indexed": false,
          "internalType": "uint256",
          "name": "amount",
          "type": "uint256"
        },
        {
          "indexed": false,
          "internalType": "uint256",
          "name": "rpb",
          "type": "uint256"
        }
      ],
      "name": "DistributeReward",
      "type": "event"
    },
    {
      "anonymous": false,
      "inputs": [
        {
          "indexed": false,
          "internalType": "uint8",
          "name": "version",
          "type": "uint8"
        }
      ],
      "name": "Initialized",
      "type": "event"
    },
    {
      "anonymous": false,
      "inputs": [
        {
          "indexed": true,
          "internalType": "address",
          "name": "previousOwner",
          "type": "address"
        },
        {
          "indexed": true,
          "internalType": "address",
          "name": "newOwner",
          "type": "address"
        }
      ],
      "name": "OwnershipTransferred",
      "type": "event"
    },
    {
      "anonymous": false,
      "inputs": [
        {
          "indexed": false,
          "internalType": "address",
          "name": "account",
          "type": "address"
        }
      ],
      "name": "Paused",
      "type": "event"
    },
    {
      "anonymous": false,
      "inputs": [
        {
          "indexed": false,
          "internalType": "uint256",
          "name": "newReward",
          "type": "uint256"
        },
        {
          "indexed": false,
          "internalType": "uint256",
          "name": "oldReward",
          "type": "uint256"
        }
      ],
      "name": "RewardUpdate",
      "type": "event"
    },
    {
      "anonymous": false,
      "inputs": [
        {
          "indexed": false,
          "internalType": "uint256",
          "name": "_seqId",
          "type": "uint256"
        },
        {
          "indexed": false,
          "internalType": "address",
          "name": "_owner",
          "type": "address"
        }
      ],
      "name": "SequencerOwnerChanged",
      "type": "event"
    },
    {
      "anonymous": false,
      "inputs": [
        {
          "indexed": false,
          "internalType": "uint256",
          "name": "_seqId",
          "type": "uint256"
        },
        {
          "indexed": false,
          "internalType": "address",
          "name": "_recipient",
          "type": "address"
        }
      ],
      "name": "SequencerRewardRecipientChanged",
      "type": "event"
    },
    {
      "anonymous": false,
      "inputs": [
        {
          "indexed": false,
          "internalType": "uint256",
          "name": "_n",
          "type": "uint256"
        }
      ],
      "name": "SetSignerUpdateThrottle",
      "type": "event"
    },
    {
      "anonymous": false,
      "inputs": [
        {
          "indexed": false,
          "internalType": "address",
          "name": "_user",
          "type": "address"
        },
        {
          "indexed": false,
          "internalType": "bool",
          "name": "_yes",
          "type": "bool"
        }
      ],
      "name": "SetWhitelist",
      "type": "event"
    },
    {
      "anonymous": false,
      "inputs": [
        {
          "indexed": false,
          "internalType": "address",
          "name": "account",
          "type": "address"
        }
      ],
      "name": "Unpaused",
      "type": "event"
    },
    {
      "anonymous": false,
      "inputs": [
        {
          "indexed": false,
          "internalType": "address",
          "name": "_newMpc",
          "type": "address"
        }
      ],
      "name": "UpdateMpc",
      "type": "event"
    },
    {
      "anonymous": false,
      "inputs": [
        {
          "indexed": false,
          "internalType": "uint256",
          "name": "_cur",
          "type": "uint256"
        },
        {
          "indexed": false,
          "internalType": "uint256",
          "name": "_prev",
          "type": "uint256"
        }
      ],
      "name": "WithrawDelayTimeChange",
      "type": "event"
    },
    {
      "inputs": [],
      "name": "BLOCK_REWARD",
      "outputs": [
        {
          "internalType": "uint256",
          "name": "",
          "type": "uint256"
        }
      ],
      "stateMutability": "view",
      "type": "function"
    },
    {
      "inputs": [],
      "name": "WITHDRAWAL_DELAY",
      "outputs": [
        {
          "internalType": "uint256",
          "name": "",
          "type": "uint256"
        }
      ],
      "stateMutability": "view",
      "type": "function"
    },
    {
      "inputs": [
        {
          "internalType": "uint256",
          "name": "_batchId",
          "type": "uint256"
        },
        {
          "internalType": "uint256",
          "name": "_startEpoch",
          "type": "uint256"
        },
        {
          "internalType": "uint256",
          "name": "_endEpoch",
          "type": "uint256"
        },
        {
          "internalType": "address[]",
          "name": "_seqs",
          "type": "address[]"
        },
        {
          "internalType": "uint256[]",
          "name": "_blocks",
          "type": "uint256[]"
        }
      ],
      "name": "batchSubmitRewards",
      "outputs": [
        {
          "internalType": "uint256",
          "name": "totalReward",
          "type": "uint256"
        }
      ],
      "stateMutability": "nonpayable",
      "type": "function"
    },
    {
      "inputs": [],
      "name": "curBatchState",
      "outputs": [
        {
          "internalType": "uint256",
          "name": "id",
          "type": "uint256"
        },
        {
          "internalType": "uint256",
          "name": "number",
          "type": "uint256"
        },
        {
          "internalType": "uint256",
          "name": "startEpoch",
          "type": "uint256"
        },
        {
          "internalType": "uint256",
          "name": "endEpoch",
          "type": "uint256"
        }
      ],
      "stateMutability": "view",
      "type": "function"
    },
    {
      "inputs": [],
      "name": "currentBatch",
      "outputs": [
        {
          "internalType": "uint256",
          "name": "",
          "type": "uint256"
        }
      ],
      "stateMutability": "view",
      "type": "function"
    },
    {
      "inputs": [],
      "name": "escrow",
      "outputs": [
        {
          "internalType": "contract ILockingInfo",
          "name": "",
          "type": "address"
        }
      ],
      "stateMutability": "view",
      "type": "function"
    },
    {
      "inputs": [],
      "name": "exitDelayPeriod",
      "outputs": [
        {
          "internalType": "uint256",
          "name": "",
          "type": "uint256"
        }
      ],
      "stateMutability": "view",
      "type": "function"
    },
    {
      "inputs": [
        {
          "internalType": "uint256",
          "name": "_seqId",
          "type": "uint256"
        },
        {
          "internalType": "uint32",
          "name": "_l2Gas",
          "type": "uint32"
        }
      ],
      "name": "forceUnlock",
      "outputs": [],
      "stateMutability": "payable",
      "type": "function"
    },
    {
      "inputs": [
        {
          "internalType": "address",
          "name": "_escrow",
          "type": "address"
        }
      ],
      "name": "initialize",
      "outputs": [],
      "stateMutability": "nonpayable",
      "type": "function"
    },
    {
      "inputs": [
        {
          "internalType": "address",
          "name": "_signer",
          "type": "address"
        },
        {
          "internalType": "uint256",
          "name": "_amount",
          "type": "uint256"
        },
        {
          "internalType": "bytes",
          "name": "_signerPubkey",
          "type": "bytes"
        }
      ],
      "name": "lockFor",
      "outputs": [],
      "stateMutability": "nonpayable",
      "type": "function"
    },
    {
      "inputs": [
        {
          "internalType": "address",
          "name": "_signer",
          "type": "address"
        },
        {
          "internalType": "address",
          "name": "_rewardRecipient",
          "type": "address"
        },
        {
          "internalType": "uint256",
          "name": "_amount",
          "type": "uint256"
        },
        {
          "internalType": "bytes",
          "name": "_signerPubkey",
          "type": "bytes"
        }
      ],
      "name": "lockWithRewardRecipient",
      "outputs": [],
      "stateMutability": "nonpayable",
      "type": "function"
    },
    {
      "inputs": [],
      "name": "mpcAddress",
      "outputs": [
        {
          "internalType": "address",
          "name": "",
          "type": "address"
        }
      ],
      "stateMutability": "view",
      "type": "function"
    },
    {
      "inputs": [],
      "name": "owner",
      "outputs": [
        {
          "internalType": "address",
          "name": "",
          "type": "address"
        }
      ],
      "stateMutability": "view",
      "type": "function"
    },
    {
      "inputs": [],
      "name": "paused",
      "outputs": [
        {
          "internalType": "bool",
          "name": "",
          "type": "bool"
        }
      ],
      "stateMutability": "view",
      "type": "function"
    },
    {
      "inputs": [
        {
          "internalType": "uint256",
          "name": "_seqId",
          "type": "uint256"
        },
        {
          "internalType": "uint256",
          "name": "_amount",
          "type": "uint256"
        },
        {
          "internalType": "bool",
          "name": "_lockReward",
          "type": "bool"
        }
      ],
      "name": "relock",
      "outputs": [],
      "stateMutability": "nonpayable",
      "type": "function"
    },
    {
      "inputs": [],
      "name": "renounceOwnership",
      "outputs": [],
      "stateMutability": "nonpayable",
      "type": "function"
    },
    {
      "inputs": [],
      "name": "rewardPerBlock",
      "outputs": [
        {
          "internalType": "uint256",
          "name": "",
          "type": "uint256"
        }
      ],
      "stateMutability": "view",
      "type": "function"
    },
    {
      "inputs": [
        {
          "internalType": "address",
          "name": "owner",
          "type": "address"
        }
      ],
      "name": "seqOwners",
      "outputs": [
        {
          "internalType": "uint256",
          "name": "seqId",
          "type": "uint256"
        }
      ],
      "stateMutability": "view",
      "type": "function"
    },
    {
      "inputs": [
        {
          "internalType": "address",
          "name": "signer",
          "type": "address"
        }
      ],
      "name": "seqSigners",
      "outputs": [
        {
          "internalType": "uint256",
          "name": "seqId",
          "type": "uint256"
        }
      ],
      "stateMutability": "view",
      "type": "function"
    },
    {
      "inputs": [
        {
          "internalType": "enum ISequencerInfo.Status",
          "name": "status",
          "type": "uint8"
        }
      ],
      "name": "seqStatuses",
      "outputs": [
        {
          "internalType": "uint256",
          "name": "count",
          "type": "uint256"
        }
      ],
      "stateMutability": "view",
      "type": "function"
    },
    {
      "inputs": [
        {
          "internalType": "uint256",
          "name": "seqId",
          "type": "uint256"
        }
      ],
      "name": "sequencers",
      "outputs": [
        {
          "internalType": "uint256",
          "name": "amount",
          "type": "uint256"
        },
        {
          "internalType": "uint256",
          "name": "reward",
          "type": "uint256"
        },
        {
          "internalType": "uint256",
          "name": "activationBatch",
          "type": "uint256"
        },
        {
          "internalType": "uint256",
          "name": "updatedBatch",
          "type": "uint256"
        },
        {
          "internalType": "uint256",
          "name": "deactivationBatch",
          "type": "uint256"
        },
        {
          "internalType": "uint256",
          "name": "deactivationTime",
          "type": "uint256"
        },
        {
          "internalType": "uint256",
          "name": "unlockClaimTime",
          "type": "uint256"
        },
        {
          "internalType": "uint256",
          "name": "nonce",
          "type": "uint256"
        },
        {
          "internalType": "address",
          "name": "owner",
          "type": "address"
        },
        {
          "internalType": "address",
          "name": "signer",
          "type": "address"
        },
        {
          "internalType": "bytes",
          "name": "pubkey",
          "type": "bytes"
        },
        {
          "internalType": "address",
          "name": "rewardRecipient",
          "type": "address"
        },
        {
          "internalType": "enum ISequencerInfo.Status",
          "name": "status",
          "type": "uint8"
        }
      ],
      "stateMutability": "view",
      "type": "function"
    },
    {
      "inputs": [
        {
          "internalType": "bool",
          "name": "_yes",
          "type": "bool"
        }
      ],
      "name": "setPause",
      "outputs": [],
      "stateMutability": "nonpayable",
      "type": "function"
    },
    {
      "inputs": [
        {
          "internalType": "uint256",
          "name": "_seqId",
          "type": "uint256"
        },
        {
          "internalType": "address",
          "name": "_owner",
          "type": "address"
        }
      ],
      "name": "setSequencerOwner",
      "outputs": [],
      "stateMutability": "nonpayable",
      "type": "function"
    },
    {
      "inputs": [
        {
          "internalType": "uint256",
          "name": "_seqId",
          "type": "uint256"
        },
        {
          "internalType": "address",
          "name": "_recipient",
          "type": "address"
        }
      ],
      "name": "setSequencerRewardRecipient",
      "outputs": [],
      "stateMutability": "nonpayable",
      "type": "function"
    },
    {
      "inputs": [
        {
          "internalType": "uint256",
          "name": "_n",
          "type": "uint256"
        }
      ],
      "name": "setSignerUpdateThrottle",
      "outputs": [],
      "stateMutability": "nonpayable",
      "type": "function"
    },
    {
      "inputs": [
        {
          "internalType": "address",
          "name": "_addr",
          "type": "address"
        },
        {
          "internalType": "bool",
          "name": "_yes",
          "type": "bool"
        }
      ],
      "name": "setWhitelist",
      "outputs": [],
      "stateMutability": "nonpayable",
      "type": "function"
    },
    {
      "inputs": [],
      "name": "signerUpdateThrottle",
      "outputs": [
        {
          "internalType": "uint256",
          "name": "",
          "type": "uint256"
        }
      ],
      "stateMutability": "view",
      "type": "function"
    },
    {
      "inputs": [],
      "name": "totalSequencers",
      "outputs": [
        {
          "internalType": "uint256",
          "name": "",
          "type": "uint256"
        }
      ],
      "stateMutability": "view",
      "type": "function"
    },
    {
      "inputs": [
        {
          "internalType": "address",
          "name": "newOwner",
          "type": "address"
        }
      ],
      "name": "transferOwnership",
      "outputs": [],
      "stateMutability": "nonpayable",
      "type": "function"
    },
    {
      "inputs": [
        {
          "internalType": "uint256",
          "name": "_seqId",
          "type": "uint256"
        },
        {
          "internalType": "uint32",
          "name": "_l2Gas",
          "type": "uint32"
        }
      ],
      "name": "unlock",
      "outputs": [],
      "stateMutability": "payable",
      "type": "function"
    },
    {
      "inputs": [
        {
          "internalType": "uint256",
          "name": "_seqId",
          "type": "uint256"
        },
        {
          "internalType": "uint32",
          "name": "_l2Gas",
          "type": "uint32"
        }
      ],
      "name": "unlockClaim",
      "outputs": [],
      "stateMutability": "payable",
      "type": "function"
    },
    {
      "inputs": [
        {
          "internalType": "uint256",
          "name": "newReward",
          "type": "uint256"
        }
      ],
      "name": "updateBlockReward",
      "outputs": [],
      "stateMutability": "nonpayable",
      "type": "function"
    },
    {
      "inputs": [
        {
          "internalType": "address",
          "name": "_newMpc",
          "type": "address"
        }
      ],
      "name": "updateMpc",
      "outputs": [],
      "stateMutability": "nonpayable",
      "type": "function"
    },
    {
      "inputs": [
        {
          "internalType": "uint256",
          "name": "_seqId",
          "type": "uint256"
        },
        {
          "internalType": "bytes",
          "name": "_signerPubkey",
          "type": "bytes"
        }
      ],
      "name": "updateSigner",
      "outputs": [],
      "stateMutability": "nonpayable",
      "type": "function"
    },
    {
      "inputs": [
        {
          "internalType": "uint256",
          "name": "_time",
          "type": "uint256"
        }
      ],
      "name": "updateWithdrawDelayTimeValue",
      "outputs": [],
      "stateMutability": "nonpayable",
      "type": "function"
    },
    {
      "inputs": [
        {
          "internalType": "address",
          "name": "",
          "type": "address"
        }
      ],
      "name": "whitelist",
      "outputs": [
        {
          "internalType": "bool",
          "name": "",
          "type": "bool"
        }
      ],
      "stateMutability": "view",
      "type": "function"
    },
    {
      "inputs": [
        {
          "internalType": "uint256",
          "name": "_seqId",
          "type": "uint256"
        },
        {
          "internalType": "uint32",
          "name": "_l2Gas",
          "type": "uint32"
        }
      ],
      "name": "withdrawRewards",
      "outputs": [],
      "stateMutability": "payable",
      "type": "function"
    }
  ],
  "transactionHash": "0x2be0a56b4f12abc7514f90327ebef3b648b38cda182b44d75aab137b75f58862",
  "args": [],
  "numDeployments": 2,
  "solcInputHash": "a7066b62d74fa750e9b4facf3b5136ec",
  "bytecode": "0x608060405234801561000f575f80fd5b50612fe88061001d5f395ff3fe60806040526004361061025d575f3560e01c80638ddc74de1161014b578063c4d66de8116100c6578063d83b0e141161007c578063f2fde38b11610062578063f2fde38b14610695578063f41a9642146106b4578063f580ffcb146106d3575f80fd5b8063d83b0e1414610657578063e2fdcc1714610676575f80fd5b8063ca99e838116100ac578063ca99e83814610610578063cc3ab92314610623578063d11d068114610638575f80fd5b8063c4d66de8146105dc578063c65066d4146105fb575f80fd5b8063af70cba51161011b578063beb2675511610101578063beb2675514610573578063bedb86fb1461059e578063bfd6fc3f146105bd575f80fd5b8063af70cba514610512578063b447297014610531575f80fd5b80638ddc74de146104935780639ad42030146104a65780639b19251a146104c5578063a953791f146104f3575f80fd5b80635c975abb116101db57806376cd940e116101ab57806386d203ab1161019157806386d203ab146104365780638ae39cac146104615780638da5cb5b14610476575f80fd5b806376cd940e1461040e5780637f05b9ef14610422575f80fd5b80635c975abb146103805780636ba7ccff146103a3578063715018a6146103db57806371e10cfa146103ef575f80fd5b8063169abefc11610230578063262c0e6611610216578063262c0e66146103395780633478874b1461034c57806353d6fd5914610361575f80fd5b8063169abefc146102fb5780631739668714610326575f80fd5b8063015bb180146102615780630ebb172a14610282578063111f4630146102a557806311c7d144146102dc575b5f80fd5b34801561026c575f80fd5b5061028061027b3660046126c8565b6106f2565b005b34801561028d575f80fd5b5060d0545b6040519081526020015b60405180910390f35b3480156102b0575f80fd5b5060d2546102c4906001600160a01b031681565b6040516001600160a01b03909116815260200161029c565b3480156102e7575f80fd5b506102926102f6366004612742565b610875565b348015610306575f80fd5b506102926103153660046127de565b609a6020525f908152604090205481565b6102806103343660046127fe565b610c0d565b6102806103473660046127fe565b610d7a565b348015610357575f80fd5b5061029260d05481565b34801561036c575f80fd5b5061028061037b366004612834565b610dc0565b34801561038b575f80fd5b5060335460ff165b604051901515815260200161029c565b3480156103ae575f80fd5b506103c26103bd366004612865565b610e2b565b60405161029c9d9c9b9a999897969594939291906128b0565b3480156103e6575f80fd5b50610280610f34565b3480156103fa575f80fd5b50610280610409366004612865565b610f47565b348015610419575f80fd5b5060d354610292565b34801561042d575f80fd5b5060d154610292565b348015610441575f80fd5b50610292610450366004612982565b609c6020525f908152604090205481565b34801561046c575f80fd5b5061029260d15481565b348015610481575f80fd5b506065546001600160a01b03166102c4565b6102806104a13660046127fe565b610fdc565b3480156104b1575f80fd5b506102806104c03660046129de565b61126f565b3480156104d0575f80fd5b506103936104df3660046127de565b60986020525f908152604090205460ff1681565b3480156104fe575f80fd5b5061028061050d366004612a48565b6113a7565b34801561051d575f80fd5b5061028061052c366004612a69565b6114f6565b34801561053c575f80fd5b5060d35460d45460d55460d6546105539392919084565b60408051948552602085019390935291830152606082015260800161029c565b34801561057e575f80fd5b5061029261058d3660046127de565b609b6020525f908152604090205481565b3480156105a9575f80fd5b506102806105b8366004612abf565b611619565b3480156105c8575f80fd5b506102806105d7366004612865565b61163a565b3480156105e7575f80fd5b506102806105f63660046127de565b61167e565b348015610606575f80fd5b5061029260d75481565b61028061061e3660046127fe565b611805565b34801561062e575f80fd5b5061029260975481565b348015610643575f80fd5b506102806106523660046127de565b611819565b348015610662575f80fd5b50610280610671366004612a48565b61186f565b348015610681575f80fd5b5060cf546102c4906001600160a01b031681565b3480156106a0575f80fd5b506102806106af3660046127de565b61199e565b3480156106bf575f80fd5b506102806106ce366004612ad8565b611a2b565b3480156106de575f80fd5b506102806106ed366004612865565b611c24565b6106fa611cb9565b335f9081526098602052604090205460ff1661072957604051630b094f2760e31b815260040160405180910390fd5b5f8381526099602052604090206002600b820154600160a01b900460ff1660038111156107585761075861287c565b146107765760405163c494657160e01b815260040160405180910390fd5b60088101546001600160a01b031633146107a35760405163a91da8ff60e01b815260040160405180910390fd5b5f82156107b657506001810180545f9091555b5f8185845f01546107c79190612b34565b6107d19190612b34565b90505f836007015460016107e59190612b34565b6007850181905582855560cf546040516309a12e3b60e21b8152600481018a905260248101839052336044820152606481018590526084810189905260a481018690529192506001600160a01b031690632684b8ec9060c4015b5f604051808303815f87803b158015610856575f80fd5b505af1158015610868573d5f803e3d5ffd5b5050505050505050505050565b60d2545f906001600160a01b031633146108d65760405162461bcd60e51b815260206004820152600760248201527f6e6f74204d50430000000000000000000000000000000000000000000000000060448201526064015b60405180910390fd5b83821480156108e457508315155b6109305760405162461bcd60e51b815260206004820152600f60248201527f6d69736d61746368206c656e677468000000000000000000000000000000000060448201526064016108cd565b60d380545f90610941906001612b34565b90508981146109925760405162461bcd60e51b815260206004820152601060248201527f696e76616c69642062617463682069640000000000000000000000000000000060448201526064016108cd565b808255600382015489906109a7906001612b34565b146109f45760405162461bcd60e51b815260206004820152601260248201527f696e76616c696420737461727445706f6368000000000000000000000000000060448201526064016108cd565b878910610a435760405162461bcd60e51b815260206004820152601060248201527f696e76616c696420656e6445706f63680000000000000000000000000000000060448201526064016108cd565b60d1545f5b87811015610b40575f82888884818110610a6457610a64612b47565b90506020020135610a759190612b5b565b90505f609b5f8c8c86818110610a8d57610a8d612b47565b9050602002016020810190610aa291906127de565b6001600160a01b0316815260208082019290925260409081015f908120548082526099909352908120919250600b820154600160a01b900460ff166003811115610aee57610aee61287c565b03610b0c576040516317876d5f60e11b815260040160405180910390fd5b82816001015f828254610b1f9190612b34565b90915550610b2f90508389612b34565b97505060019092019150610a489050565b50436001840155600283018a90556003830189905560cf546040516338ef349f60e21b8152600481018d9052602481018690526001600160a01b039091169063e3bcd27c906044015f604051808303815f87803b158015610b9f575f80fd5b505af1158015610bb1573d5f803e3d5ffd5b5050604080518d8152602081018d9052908101879052606081018490528d92507f57f14bf0f24025b2c737413d121021e1a6ede039533e1215eda6f20002baf0a1915060800160405180910390a2505050979650505050505050565b610c15611cb9565b335f9081526098602052604090205460ff16610c4457604051630b094f2760e31b815260040160405180910390fd5b5f8281526099602052604090206002600b820154600160a01b900460ff166003811115610c7357610c7361287c565b14610c915760405163c494657160e01b815260040160405180910390fd5b60088101546001600160a01b03163314610cbe5760405163a91da8ff60e01b815260040160405180910390fd5b600b8101546001600160a01b031680610cea5760405163313f077360e21b815260040160405180910390fd5b60018201548015610d73575f600184015560cf54604051630baf0f1560e31b815260048101879052602481018390526001600160a01b03848116604483015263ffffffff8716606483015290911690635d7878a89034906084015f604051808303818588803b158015610d5b575f80fd5b505af1158015610d6d573d5f803e3d5ffd5b50505050505b5050505050565b610d82611cb9565b335f9081526098602052604090205460ff16610db157604051630b094f2760e31b815260040160405180910390fd5b610dbc825f83611d0c565b5050565b610dc8611f63565b6001600160a01b0382165f81815260986020908152604091829020805460ff19168515159081179091558251938452908301527ff6019ec0a78d156d249a1ec7579e2321f6ac7521d6e1d2eacf90ba4a184dcceb91015b60405180910390a15050565b60996020525f9081526040902080546001820154600283015460038401546004850154600586015460068701546007880154600889015460098a0154600a8b0180549a9b999a9899979896979596949593946001600160a01b03938416949290931692610e9790612b72565b80601f0160208091040260200160405190810160405280929190818152602001828054610ec390612b72565b8015610f0e5780601f10610ee557610100808354040283529160200191610f0e565b820191905f5260205f20905b815481529060010190602001808311610ef157829003601f168201915b505050600b90930154919250506001600160a01b0381169060ff600160a01b909104168d565b610f3c611f63565b610f455f611fbd565b565b610f4f611f63565b5f8111610f9e5760405162461bcd60e51b815260206004820152600c60248201527f64616c617954696d653d3d30000000000000000000000000000000000000000060448201526064016108cd565b60d080549082905560408051838152602081018390527f08cb0bf599c925a6240976039d9d4d3201d88d2ba83703b890049356cdbb67e69101610e1f565b610fe4611cb9565b335f9081526098602052604090205460ff1661101357604051630b094f2760e31b815260040160405180910390fd5b5f82815260996020526040902060088101546001600160a01b0316331461104d5760405163a91da8ff60e01b815260040160405180910390fd5b600b8101546001600160a01b0316806110795760405163313f077360e21b815260040160405180910390fd5b6001600b830154600160a01b900460ff16600381111561109b5761109b61287c565b1480156110ac575042826006015411155b6110f85760405162461bcd60e51b815260206004820152601460248201527f4e6f7420616c6c6f77656420746f20636c69616d00000000000000000000000060448201526064016108cd565b81546001830180545f80865591829055600785018054919261111983612baa565b9091555050600b8401805460ff60a01b19167403000000000000000000000000000000000000000017905560015f908152609c6020527f759fbb3c7535ea6cd791a268d7e54d5bf43408007315741bf51b70650b77f6a580549161117c83612bc2565b909155505060035f908152609c6020527fa166308694002ada49a080be065b41ffb107f08c6cd338f4ec60e54116d066b78054916111b983612baa565b909155505060088401546001600160a01b039081165f908152609a6020526040812055600985015461120291166001600160a01b03165f908152609b602052604090205f199055565b60cf54604051632947689560e11b81523360048201526024810188905260448101849052606481018390526001600160a01b03858116608483015263ffffffff881660a48301529091169063528ed12a90349060c4015f604051808303818588803b158015610856575f80fd5b611277611cb9565b335f9081526098602052604090205460ff166112a657604051630b094f2760e31b815260040160405180910390fd5b60d3545f6112b982338987878a8c61200e565b60cf54604051631badded560e01b81529192506001600160a01b031690631badded5906112f690849033908c908b9089908c908c90600401612bff565b5f604051808303815f87803b15801561130d575f80fd5b505af115801561131f573d5f803e3d5ffd5b5050604080518481523360208201527f4078101d3657bf2f1ee46f64d5c94266d244d71bb0daa460336d3d6f11c9a4ac935001905060405180910390a1604080518281526001600160a01b03881660208201527f357bb123cabaf224688e3d8de5feb37d685dc3a27012a7bce1201c49bc369cb691015b60405180910390a150505050505050565b335f9081526098602052604090205460ff166113d657604051630b094f2760e31b815260040160405180910390fd5b6001600160a01b0381166113fd5760405163e99d5ac560e01b815260040160405180910390fd5b5f8281526099602052604090206002600b820154600160a01b900460ff16600381111561142c5761142c61287c565b1461144a5760405163c494657160e01b815260040160405180910390fd5b60088101546001600160a01b03163381146114785760405163a91da8ff60e01b815260040160405180910390fd5b6008820180546001600160a01b0319166001600160a01b038581169182179092559082165f908152609a60209081526040808320839055838352918290208790558151878152908101929092527f4078101d3657bf2f1ee46f64d5c94266d244d71bb0daa460336d3d6f11c9a4ac910160405180910390a150505050565b6114fe611cb9565b335f9081526098602052604090205460ff1661152d57604051630b094f2760e31b815260040160405180910390fd5b60d354335f61154183838988888b8761200e565b60cf54604051631badded560e01b81529192506001600160a01b031690631badded59061157e90849086908c908c908a908d908d90600401612bff565b5f604051808303815f87803b158015611595575f80fd5b505af11580156115a7573d5f803e3d5ffd5b5050604080518481523360208201527f4078101d3657bf2f1ee46f64d5c94266d244d71bb0daa460336d3d6f11c9a4ac935001905060405180910390a1604080518281525f60208201527f357bb123cabaf224688e3d8de5feb37d685dc3a27012a7bce1201c49bc369cb69101611396565b611621611f63565b80156116325761162f612333565b50565b61162f61238d565b611642611f63565b60d78190556040518181527fe58685f6b78e6d567d2ed9d7c5efb779c4cd91c63c76763a0e3204a5671f4705906020015b60405180910390a150565b5f54610100900460ff161580801561169c57505f54600160ff909116105b806116b55750303b1580156116b557505f5460ff166001145b6117275760405162461bcd60e51b815260206004820152602e60248201527f496e697469616c697a61626c653a20636f6e747261637420697320616c72656160448201527f647920696e697469616c697a656400000000000000000000000000000000000060648201526084016108cd565b5f805460ff191660011790558015611748575f805461ff0019166101001790555b621baf8060d0556602b4201eac900060d15560408051608081018252600180825243602083018190525f938301849052606090920183905260d381905560d49190915560d582905560d69190915560cf80546001600160a01b0319166001600160a01b03851617905560d7556117bc6123c6565b6117c4612438565b8015610dbc575f805461ff0019169055604051600181527f7f26b83ff96e1f2b6a682f133852f6798a09c465da95921460cefb384740249890602001610e1f565b61180d611f63565b610dbc82600183611d0c565b611821611f63565b60d280546001600160a01b0319166001600160a01b0383169081179091556040519081527fc6759872346bc2093e270f2fa00d99d7bcdde60a410a3e9956b34196d42fee7690602001611673565b335f9081526098602052604090205460ff1661189e57604051630b094f2760e31b815260040160405180910390fd5b5f82815260996020526040902060088101546001600160a01b031633146118d85760405163a91da8ff60e01b815260040160405180910390fd5b6002600b820154600160a01b900460ff1660038111156118fa576118fa61287c565b146119185760405163c494657160e01b815260040160405180910390fd5b6001600160a01b03821661193f5760405163e99d5ac560e01b815260040160405180910390fd5b600b810180546001600160a01b0319166001600160a01b0384169081179091556040805185815260208101929092527f357bb123cabaf224688e3d8de5feb37d685dc3a27012a7bce1201c49bc369cb6910160405180910390a1505050565b6119a6611f63565b6001600160a01b038116611a225760405162461bcd60e51b815260206004820152602660248201527f4f776e61626c653a206e6577206f776e657220697320746865207a65726f206160448201527f646472657373000000000000000000000000000000000000000000000000000060648201526084016108cd565b61162f81611fbd565b335f9081526098602052604090205460ff16611a5a57604051630b094f2760e31b815260040160405180910390fd5b5f8381526099602052604090206002600b820154600160a01b900460ff166003811115611a8957611a8961287c565b14611aa75760405163c494657160e01b815260040160405180910390fd5b60098101546001600160a01b0316338114611ad557604051636b95264b60e01b815260040160405180910390fd5b60d7548260030154611ae79190612b34565b60d3541015611b385760405162461bcd60e51b815260206004820152601860248201527f7369676e6572207570646174696e67207468726f74746c65000000000000000060448201526064016108cd565b5f611b438585612440565b6001600160a01b0381165f908152609b602052604090205490915015611b7c5760405163b5013d2b60e01b815260040160405180910390fd5b600a8301611b8b858783612ca7565b506009830180546001600160a01b0319166001600160a01b038381169182179092555f908152609b60205260408082208990559184168152205f19905560d354600384015560078301545f90611be2906001612b34565b6007850181905560cf546040516359942b8160e11b81529192506001600160a01b03169063b32857029061083f908a908790879087908d908d90600401612d61565b611c2c611f63565b805f03611c7b5760405162461bcd60e51b815260206004820152601160248201527f696e76616c6964206e657752657761726400000000000000000000000000000060448201526064016108cd565b60d180549082905560408051838152602081018390527ff67f33e8589d3ea0356303c0f9a8e764873692159f777ff79e4fc523d389dfcd9101610e1f565b60335460ff1615610f455760405162461bcd60e51b815260206004820152601060248201527f5061757361626c653a207061757365640000000000000000000000000000000060448201526064016108cd565b5f8381526099602052604090206002600b820154600160a01b900460ff166003811115611d3b57611d3b61287c565b14611d595760405163c494657160e01b815260040160405180910390fd5b60025f908152609c6020527f75de1d63ccf63b1f38d98add9d8551d4b8314484fe5658df70a18f2499ec4fb480548290611d9290612bc2565b918290555060015f908152609c6020527f759fbb3c7535ea6cd791a268d7e54d5bf43408007315741bf51b70650b77f6a5805492935090918290611dd590612baa565b9182905550905084611e715760088301546001600160a01b03163314611e0e5760405163a91da8ff60e01b815260040160405180910390fd5b611e188183612b34565b611e23826003612b5b565b1115611e715760405162461bcd60e51b815260206004820152600f60248201527f424654207265737472696374696f6e000000000000000000000000000000000060448201526064016108cd565b600b8301546001600160a01b031680611e9d5760405163313f077360e21b815260040160405180910390fd5b600b8401805460ff60a01b1916600160a01b17905560d3546004850155426005850181905560d054611ece91612b34565b6006850155600784018054905f611ee483612baa565b90915550506001840180545f90915560cf54604051630890c1a760e21b81526001600160a01b0390911690632243069c903490611f2b908c9086908c908c90600401612e1e565b5f604051808303818588803b158015611f42575f80fd5b505af1158015611f54573d5f803e3d5ffd5b50505050505050505050505050565b6065546001600160a01b03163314610f455760405162461bcd60e51b815260206004820181905260248201527f4f776e61626c653a2063616c6c6572206973206e6f7420746865206f776e657260448201526064016108cd565b606580546001600160a01b038381166001600160a01b0319831681179093556040519116919082907f8be0079c531659141344cd1fd0a4f28419497f9722a3daafe3b4186f6b6457e0905f90a35050565b5f856001600160a01b03166120238686612440565b6001600160a01b0316146120795760405162461bcd60e51b815260206004820152601b60248201527f7075626b657920616e642061646472657373206d69736d61746368000000000060448201526064016108cd565b6001600160a01b0387165f908152609a6020526040902054156120af57604051631387ecef60e21b815260040160405180910390fd5b6001600160a01b0386165f908152609b6020526040902054156120e55760405163b5013d2b60e01b815260040160405180910390fd5b6097546120f3816001612b34565b6001600160a01b038981165f908152609a60209081526040808320859055928b168252609b815291812083905560028152609c9091527f75de1d63ccf63b1f38d98add9d8551d4b8314484fe5658df70a18f2499ec4fb480549294509061215983612baa565b919050555081609781905550604051806101a001604052808581526020015f81526020018a81526020018a81526020015f81526020015f81526020015f815260200160018152602001336001600160a01b03168152602001886001600160a01b0316815260200187878080601f0160208091040260200160405190810160405280939291908181526020018383808284375f920191909152505050908252506001600160a01b0385166020820152604001600290525f8381526099602090815260409182902083518155908301516001820155908201516002820155606082015160038201556080820151600482015560a0820151600582015560c0820151600682015560e082015160078201556101008201516008820180546001600160a01b039283166001600160a01b031991821617909155610120840151600984018054919093169116179055610140820151600a8201906122b89082612f0c565b50610160820151600b820180546001600160a01b039092166001600160a01b0319831681178255610180850151927fffffffffffffffffffffff0000000000000000000000000000000000000000001617600160a01b8360038111156123205761232061287c565b0217905550505050979650505050505050565b61233b611cb9565b6033805460ff191660011790557f62e78cea01bee320cd4e420270b5ea74000d11b0c9f74754ebdbfc544b05a2586123703390565b6040516001600160a01b03909116815260200160405180910390a1565b61239561250c565b6033805460ff191690557f5db9ee0a495bf2e6ff9c91a7834c1ba4fdd244a5e8aa4e537bd38aeae4b073aa33612370565b5f54610100900460ff166124305760405162461bcd60e51b815260206004820152602b60248201527f496e697469616c697a61626c653a20636f6e7472616374206973206e6f74206960448201526a6e697469616c697a696e6760a81b60648201526084016108cd565b610f4561255e565b610f456125d4565b5f604082146124915760405162461bcd60e51b815260206004820152600e60248201527f696e76616c6964207075626b657900000000000000000000000000000000000060448201526064016108cd565b5f83836040516124a2929190612fcc565b60405190819003902090506001600160a01b0381166125035760405162461bcd60e51b815260206004820152600d60248201527f656d70747920616464726573730000000000000000000000000000000000000060448201526064016108cd565b90505b92915050565b60335460ff16610f455760405162461bcd60e51b815260206004820152601460248201527f5061757361626c653a206e6f742070617573656400000000000000000000000060448201526064016108cd565b5f54610100900460ff166125c85760405162461bcd60e51b815260206004820152602b60248201527f496e697469616c697a61626c653a20636f6e7472616374206973206e6f74206960448201526a6e697469616c697a696e6760a81b60648201526084016108cd565b6033805460ff19169055565b5f54610100900460ff1661263e5760405162461bcd60e51b815260206004820152602b60248201527f496e697469616c697a61626c653a20636f6e7472616374206973206e6f74206960448201526a6e697469616c697a696e6760a81b60648201526084016108cd565b610f455f54610100900460ff166126ab5760405162461bcd60e51b815260206004820152602b60248201527f496e697469616c697a61626c653a20636f6e7472616374206973206e6f74206960448201526a6e697469616c697a696e6760a81b60648201526084016108cd565b610f4533611fbd565b803580151581146126c3575f80fd5b919050565b5f805f606084860312156126da575f80fd5b83359250602084013591506126f1604085016126b4565b90509250925092565b5f8083601f84011261270a575f80fd5b50813567ffffffffffffffff811115612721575f80fd5b6020830191508360208260051b850101111561273b575f80fd5b9250929050565b5f805f805f805f60a0888a031215612758575f80fd5b873596506020880135955060408801359450606088013567ffffffffffffffff80821115612784575f80fd5b6127908b838c016126fa565b909650945060808a01359150808211156127a8575f80fd5b506127b58a828b016126fa565b989b979a50959850939692959293505050565b80356001600160a01b03811681146126c3575f80fd5b5f602082840312156127ee575f80fd5b6127f7826127c8565b9392505050565b5f806040838503121561280f575f80fd5b82359150602083013563ffffffff81168114612829575f80fd5b809150509250929050565b5f8060408385031215612845575f80fd5b61284e836127c8565b915061285c602084016126b4565b90509250929050565b5f60208284031215612875575f80fd5b5035919050565b634e487b7160e01b5f52602160045260245ffd5b600481106128ac57634e487b7160e01b5f52602160045260245ffd5b9052565b5f6101a08f835260208f60208501528e60408501528d60608501528c60808501528b60a08501528a60c08501528960e08501526001600160a01b03808a166101008601528089166101208601525081610140850152865180838601525f92505b8083101561292f578783018201518584016101c0015291810191612910565b6101c092505f83828701015282601f19601f83011686010193505050506129626101608301856001600160a01b03169052565b612970610180830184612890565b9e9d5050505050505050505050505050565b5f60208284031215612992575f80fd5b813560048110612503575f80fd5b5f8083601f8401126129b0575f80fd5b50813567ffffffffffffffff8111156129c7575f80fd5b60208301915083602082850101111561273b575f80fd5b5f805f805f608086880312156129f2575f80fd5b6129fb866127c8565b9450612a09602087016127c8565b935060408601359250606086013567ffffffffffffffff811115612a2b575f80fd5b612a37888289016129a0565b969995985093965092949392505050565b5f8060408385031215612a59575f80fd5b8235915061285c602084016127c8565b5f805f8060608587031215612a7c575f80fd5b612a85856127c8565b935060208501359250604085013567ffffffffffffffff811115612aa7575f80fd5b612ab3878288016129a0565b95989497509550505050565b5f60208284031215612acf575f80fd5b6127f7826126b4565b5f805f60408486031215612aea575f80fd5b83359250602084013567ffffffffffffffff811115612b07575f80fd5b612b13868287016129a0565b9497909650939450505050565b634e487b7160e01b5f52601160045260245ffd5b8082018082111561250657612506612b20565b634e487b7160e01b5f52603260045260245ffd5b808202811582820484141761250657612506612b20565b600181811c90821680612b8657607f821691505b602082108103612ba457634e487b7160e01b5f52602260045260245ffd5b50919050565b5f60018201612bbb57612bbb612b20565b5060010190565b5f81612bd057612bd0612b20565b505f190190565b81835281816020850137505f828201602090810191909152601f909101601f19169091010190565b8781525f6001600160a01b03808916602084015280881660408401525085606083015284608083015260c060a0830152612c3d60c083018486612bd7565b9998505050505050505050565b634e487b7160e01b5f52604160045260245ffd5b601f821115612ca257805f5260205f20601f840160051c81016020851015612c835750805b601f840160051c820191505b81811015610d73575f8155600101612c8f565b505050565b67ffffffffffffffff831115612cbf57612cbf612c4a565b612cd383612ccd8354612b72565b83612c5e565b5f601f841160018114612d04575f8515612ced5750838201355b5f19600387901b1c1916600186901b178355610d73565b5f83815260208120601f198716915b82811015612d335786850135825560209485019460019092019101612d13565b5086821015612d4f575f1960f88860031b161c19848701351681555b505060018560011b0183555050505050565b8681525f6001600160a01b03808816602084015280871660408401525084606083015260a06080830152612d9960a083018486612bd7565b98975050505050505050565b5f8154612db181612b72565b808552602060018381168015612dce5760018114612de857612e13565b60ff1985168884015283151560051b880183019550612e13565b865f52825f205f5b85811015612e0b5781548a8201860152908301908401612df0565b890184019650505b505050505092915050565b84815283602082015263ffffffff831660408201526080606082015281546080820152600182015460a0820152600282015460c0820152600382015460e082015260048201546101008201526005820154610120820152600682015461014082015260078201546101608201525f612ea060088401546001600160a01b031690565b6001600160a01b039081166101808401526009840154166101a08084018290526101c084015250612ed86102208301600a8501612da5565b600b8401546001600160a01b0381166101e0850152612f01610200850160ff8360a01c16612890565b509695505050505050565b815167ffffffffffffffff811115612f2657612f26612c4a565b612f3a81612f348454612b72565b84612c5e565b602080601f831160018114612f6d575f8415612f565750858301515b5f19600386901b1c1916600185901b178555612fc4565b5f85815260208120601f198616915b82811015612f9b57888601518255948401946001909101908401612f7c565b5085821015612fb857878501515f19600388901b60f8161c191681555b505060018460011b0185555b505050505050565b818382375f910190815291905056fea164736f6c6343000818000a",
  "devdoc": {
    "events": {
      "DistributeReward(uint256,uint256,uint256,uint256,uint256)": {
        "details": "Emitted when rewards are distributed",
        "params": {
          "amount": "the total that distributed",
          "batchId": "the current batch id",
          "endEpoch": "end epoch number",
          "rpb": "the current reward per block",
          "startEpoch": "start epoch number"
        }
      },
      "Initialized(uint8)": {
        "details": "Triggered when the contract has been initialized or reinitialized."
      },
      "Paused(address)": {
        "details": "Emitted when the pause is triggered by `account`."
      },
      "RewardUpdate(uint256,uint256)": {
        "details": "Emitted when the proxy update threshold in 'updateBlockReward()'.      Note from maintainer:      for compatibility, this ambiguous event is retained",
        "params": {
          "newReward": "new block reward",
          "oldReward": "old block reward"
        }
      },
      "SequencerOwnerChanged(uint256,address)": {
        "details": "Emitted when sequencer owner is changed",
        "params": {
          "_owner": "the sequencer owner",
          "_seqId": "the sequencerId"
        }
      },
      "SequencerRewardRecipientChanged(uint256,address)": {
        "details": "Emitted when reward recipient address update in 'setSequencerRewardRecipient'",
        "params": {
          "_recipient": "the address receive reward token",
          "_seqId": "the sequencerId"
        }
      },
      "SetSignerUpdateThrottle(uint256)": {
        "details": "Emitted when SignerUpdateThrottle is updated",
        "params": {
          "_n": "new min value"
        }
      },
      "SetWhitelist(address,bool)": {
        "details": "Emitted if owner call 'setWhitelist'",
        "params": {
          "_user": "the address who can lock token",
          "_yes": "white address state"
        }
      },
      "Unpaused(address)": {
        "details": "Emitted when the pause is lifted by `account`."
      },
      "UpdateMpc(address)": {
        "details": "Emitted when mpc address update in 'UpdateMpc'",
        "params": {
          "_newMpc": "new min lock."
        }
      },
      "WithrawDelayTimeChange(uint256,uint256)": {
        "details": "Emitted when WITHDRAWAL_DELAY is updated.",
        "params": {
          "_cur": "current withdraw delay time",
          "_prev": "previours withdraw delay time"
        }
      }
    },
    "kind": "dev",
    "methods": {
      "BLOCK_REWARD()": {
        "details": "BLOCK_REWARD returns the current reward per block      just for compatibility, this ambiguous func is added"
      },
      "WITHDRAWAL_DELAY()": {
        "details": "WITHDRAWAL_DELAY returns the period      just for compatibility, this ambiguous func is added"
      },
      "batchSubmitRewards(uint256,uint256,uint256,address[],uint256[])": {
        "details": "batchSubmitRewards Allow to submit L2 sequencer block information, and attach Metis reward tokens for reward distribution",
        "params": {
          "_batchId": "The batchId that submitted the reward is that",
          "_blocks": "How many blocks each sequencer finished.",
          "_endEpoch": "The endEpoch that submitted the reward is that",
          "_seqs": "Those sequencers can receive rewards",
          "_startEpoch": "The startEpoch that submitted the reward is that"
        }
      },
      "currentBatch()": {
        "details": "currentBatch returns current batch id"
      },
      "forceUnlock(uint256,uint32)": {
        "details": "forceUnlock Allow owner to force a sequencer node to exit",
        "params": {
          "_l2Gas": "l2 gas limit, see above for the detail",
          "_seqId": "the sequencer id"
        }
      },
      "lockFor(address,uint256,bytes)": {
        "details": "lockFor lock Metis and participate in the sequencer node      the msg.sender will be owner of the sequencer      the owner has abilities to leverage lock/relock/unlock/cliam      **Note**: the locking amount will be trasnfered from msg.sender      and you need to approve the Metis of msg.sender to **LockingInfo** contract      instead of this LockingPool contract      the default reward recipient is an empty address      you need to update it using setSequencerRewardRecipient afterward",
        "params": {
          "_amount": "Amount of L1 metis token to lock for.",
          "_signer": "Sequencer signer address",
          "_signerPubkey": "Sequencer signer pubkey, it should be uncompressed"
        }
      },
      "lockWithRewardRecipient(address,address,uint256,bytes)": {
        "details": "lockWithRewardRecipient is the same with lockFor, but you can provide a reward receipent",
        "params": {
          "_amount": "Amount of L1 metis token to lock for.",
          "_rewardRecipient": "Sequencer reward receiptent        you can use an empty address if you haven't choosed an address        and update it using `setSequencerRewardRecipient` after then",
          "_signer": "Sequencer signer address",
          "_signerPubkey": "Sequencer signer pubkey         it should be uncompressed and matched with signer address"
        }
      },
      "owner()": {
        "details": "Returns the address of the current owner."
      },
      "paused()": {
        "details": "Returns true if the contract is paused, and false otherwise."
      },
      "relock(uint256,uint256,bool)": {
        "details": "relock allow sequencer operator to increase the amount of locked positions",
        "params": {
          "_amount": "amount of token to relock, it can be 0 if you want to relock your rewrad",
          "_lockReward": "use true if lock the current rewards",
          "_seqId": "the id of your sequencer"
        }
      },
      "renounceOwnership()": {
        "details": "Leaves the contract without owner. It will not be possible to call `onlyOwner` functions. Can only be called by the current owner. NOTE: Renouncing ownership will leave the contract without an owner, thereby disabling any functionality that is only available to the owner."
      },
      "setPause(bool)": {
        "details": "setPause",
        "params": {
          "_yes": "pause or not"
        }
      },
      "setSequencerOwner(uint256,address)": {
        "details": "setSequencerOwner update sequencer owner",
        "params": {
          "_owner": "the new owner",
          "_seqId": "The sequencerId"
        }
      },
      "setSequencerRewardRecipient(uint256,address)": {
        "details": "setSequencerRewardRecipient Allow sequencer owner to set a reward recipient",
        "params": {
          "_recipient": "Who will receive the reward token",
          "_seqId": "The sequencerId"
        }
      },
      "setSignerUpdateThrottle(uint256)": {
        "details": "setSignerUpdateThrottle  set signerUpdateThrottle",
        "params": {
          "_n": "the new value of the throttle        Note: it can be 0"
        }
      },
      "setWhitelist(address,bool)": {
        "details": "setWhitelist Allow owner to update white address list",
        "params": {
          "_addr": "the address who can lock token",
          "_yes": "white address state"
        }
      },
      "transferOwnership(address)": {
        "details": "Transfers ownership of the contract to a new account (`newOwner`). Can only be called by the current owner."
      },
      "unlock(uint256,uint32)": {
        "details": "unlock your metis and exit the sequencer node      the reward will be arrived by L1Bridge first      and you need to wait the exit period and call      unlockClaim to cliam your locked token",
        "params": {
          "_l2Gas": "the L2 gas limit for L1Bridge.       the reward is distributed by bridge       so you need to pay the ETH as the bridge fee",
          "_seqId": "sequencer id"
        }
      },
      "unlockClaim(uint256,uint32)": {
        "details": "unlockClaim claim your locked tokens after the waiting period is passed      l2 fee is required if you have unclaimed reward",
        "params": {
          "_l2Gas": "l2 gas limit",
          "_seqId": "sequencer id"
        }
      },
      "updateBlockReward(uint256)": {
        "details": "updateBlockReward  Allow owner to set per block reward",
        "params": {
          "newReward": "the block reward"
        }
      },
      "updateMpc(address)": {
        "details": "updateMpc update the mpc address",
        "params": {
          "_newMpc": "new mpc address"
        }
      },
      "updateSigner(uint256,bytes)": {
        "details": "updateSigner Allow sqeuencer to update new signers to replace old signer addressesand NFT holder will be transfer driectly",
        "params": {
          "_seqId": "the sequencer id",
          "_signerPubkey": "the new signer pubkey address"
        }
      },
      "updateWithdrawDelayTimeValue(uint256)": {
        "details": "updateWithdrawDelayTimeValue Allow owner to set withdraw delay time.",
        "params": {
          "_time": "new withdraw delay time"
        }
      },
      "withdrawRewards(uint256,uint32)": {
        "details": "withdrawRewards withdraw current rewards      l2 fee is required",
        "params": {
          "_l2Gas": "bridge reward to L2 gasLimit",
          "_seqId": "unique integer to identify a sequencer."
        }
      }
    },
    "version": 1
  },
  "userdoc": {
    "kind": "user",
    "methods": {},
    "version": 1
  },
  "storageLayout": {
    "storage": [
      {
        "astId": 139,
        "contract": "contracts/LockingPool.sol:LockingPool",
        "label": "_initialized",
        "offset": 0,
        "slot": "0",
        "type": "t_uint8"
      },
      {
        "astId": 142,
        "contract": "contracts/LockingPool.sol:LockingPool",
        "label": "_initializing",
        "offset": 1,
        "slot": "0",
        "type": "t_bool"
      },
      {
        "astId": 809,
        "contract": "contracts/LockingPool.sol:LockingPool",
        "label": "__gap",
        "offset": 0,
        "slot": "1",
        "type": "t_array(t_uint256)50_storage"
      },
      {
        "astId": 323,
        "contract": "contracts/LockingPool.sol:LockingPool",
        "label": "_paused",
        "offset": 0,
        "slot": "51",
        "type": "t_bool"
      },
      {
        "astId": 428,
        "contract": "contracts/LockingPool.sol:LockingPool",
        "label": "__gap",
        "offset": 0,
        "slot": "52",
        "type": "t_array(t_uint256)49_storage"
      },
      {
        "astId": 11,
        "contract": "contracts/LockingPool.sol:LockingPool",
        "label": "_owner",
        "offset": 0,
        "slot": "101",
        "type": "t_address"
      },
      {
        "astId": 131,
        "contract": "contracts/LockingPool.sol:LockingPool",
        "label": "__gap",
        "offset": 0,
        "slot": "102",
        "type": "t_array(t_uint256)49_storage"
      },
      {
        "astId": 1959,
        "contract": "contracts/LockingPool.sol:LockingPool",
        "label": "totalSequencers",
        "offset": 0,
        "slot": "151",
        "type": "t_uint256"
      },
      {
        "astId": 1963,
        "contract": "contracts/LockingPool.sol:LockingPool",
        "label": "whitelist",
        "offset": 0,
        "slot": "152",
        "type": "t_mapping(t_address,t_bool)"
      },
      {
        "astId": 1968,
        "contract": "contracts/LockingPool.sol:LockingPool",
        "label": "sequencers",
        "offset": 0,
        "slot": "153",
        "type": "t_mapping(t_uint256,t_struct(Sequencer)2621_storage)"
      },
      {
        "astId": 1972,
        "contract": "contracts/LockingPool.sol:LockingPool",
        "label": "seqOwners",
        "offset": 0,
        "slot": "154",
        "type": "t_mapping(t_address,t_uint256)"
      },
      {
        "astId": 1976,
        "contract": "contracts/LockingPool.sol:LockingPool",
        "label": "seqSigners",
        "offset": 0,
        "slot": "155",
        "type": "t_mapping(t_address,t_uint256)"
      },
      {
        "astId": 1981,
        "contract": "contracts/LockingPool.sol:LockingPool",
        "label": "seqStatuses",
        "offset": 0,
        "slot": "156",
        "type": "t_mapping(t_enum(Status)2593,t_uint256)"
      },
      {
        "astId": 2327,
        "contract": "contracts/LockingPool.sol:LockingPool",
        "label": "__gap",
        "offset": 0,
        "slot": "157",
        "type": "t_array(t_uint256)50_storage"
      },
      {
        "astId": 838,
        "contract": "contracts/LockingPool.sol:LockingPool",
        "label": "escrow",
        "offset": 0,
        "slot": "207",
        "type": "t_contract(ILockingInfo)2528"
      },
      {
        "astId": 840,
        "contract": "contracts/LockingPool.sol:LockingPool",
        "label": "exitDelayPeriod",
        "offset": 0,
        "slot": "208",
        "type": "t_uint256"
      },
      {
        "astId": 842,
        "contract": "contracts/LockingPool.sol:LockingPool",
        "label": "rewardPerBlock",
        "offset": 0,
        "slot": "209",
        "type": "t_uint256"
      },
      {
        "astId": 844,
        "contract": "contracts/LockingPool.sol:LockingPool",
        "label": "mpcAddress",
        "offset": 0,
        "slot": "210",
        "type": "t_address"
      },
      {
        "astId": 847,
        "contract": "contracts/LockingPool.sol:LockingPool",
        "label": "curBatchState",
        "offset": 0,
        "slot": "211",
        "type": "t_struct(BatchState)835_storage"
      },
      {
        "astId": 849,
        "contract": "contracts/LockingPool.sol:LockingPool",
        "label": "signerUpdateThrottle",
        "offset": 0,
        "slot": "215",
        "type": "t_uint256"
      }
    ],
    "types": {
      "t_address": {
        "encoding": "inplace",
        "label": "address",
        "numberOfBytes": "20"
      },
      "t_array(t_uint256)49_storage": {
        "base": "t_uint256",
        "encoding": "inplace",
        "label": "uint256[49]",
        "numberOfBytes": "1568"
      },
      "t_array(t_uint256)50_storage": {
        "base": "t_uint256",
        "encoding": "inplace",
        "label": "uint256[50]",
        "numberOfBytes": "1600"
      },
      "t_bool": {
        "encoding": "inplace",
        "label": "bool",
        "numberOfBytes": "1"
      },
      "t_bytes_storage": {
        "encoding": "bytes",
        "label": "bytes",
        "numberOfBytes": "32"
      },
      "t_contract(ILockingInfo)2528": {
        "encoding": "inplace",
        "label": "contract ILockingInfo",
        "numberOfBytes": "20"
      },
      "t_enum(Status)2593": {
        "encoding": "inplace",
        "label": "enum ISequencerInfo.Status",
        "numberOfBytes": "1"
      },
      "t_mapping(t_address,t_bool)": {
        "encoding": "mapping",
        "key": "t_address",
        "label": "mapping(address => bool)",
        "numberOfBytes": "32",
        "value": "t_bool"
      },
      "t_mapping(t_address,t_uint256)": {
        "encoding": "mapping",
        "key": "t_address",
        "label": "mapping(address => uint256)",
        "numberOfBytes": "32",
        "value": "t_uint256"
      },
      "t_mapping(t_enum(Status)2593,t_uint256)": {
        "encoding": "mapping",
        "key": "t_enum(Status)2593",
        "label": "mapping(enum ISequencerInfo.Status => uint256)",
        "numberOfBytes": "32",
        "value": "t_uint256"
      },
      "t_mapping(t_uint256,t_struct(Sequencer)2621_storage)": {
        "encoding": "mapping",
        "key": "t_uint256",
        "label": "mapping(uint256 => struct ISequencerInfo.Sequencer)",
        "numberOfBytes": "32",
        "value": "t_struct(Sequencer)2621_storage"
      },
      "t_struct(BatchState)835_storage": {
        "encoding": "inplace",
        "label": "struct LockingPool.BatchState",
        "members": [
          {
            "astId": 828,
            "contract": "contracts/LockingPool.sol:LockingPool",
            "label": "id",
            "offset": 0,
            "slot": "0",
            "type": "t_uint256"
          },
          {
            "astId": 830,
            "contract": "contracts/LockingPool.sol:LockingPool",
            "label": "number",
            "offset": 0,
            "slot": "1",
            "type": "t_uint256"
          },
          {
            "astId": 832,
            "contract": "contracts/LockingPool.sol:LockingPool",
            "label": "startEpoch",
            "offset": 0,
            "slot": "2",
            "type": "t_uint256"
          },
          {
            "astId": 834,
            "contract": "contracts/LockingPool.sol:LockingPool",
            "label": "endEpoch",
            "offset": 0,
            "slot": "3",
            "type": "t_uint256"
          }
        ],
        "numberOfBytes": "128"
      },
      "t_struct(Sequencer)2621_storage": {
        "encoding": "inplace",
        "label": "struct ISequencerInfo.Sequencer",
        "members": [
          {
            "astId": 2595,
            "contract": "contracts/LockingPool.sol:LockingPool",
            "label": "amount",
            "offset": 0,
            "slot": "0",
            "type": "t_uint256"
          },
          {
            "astId": 2597,
            "contract": "contracts/LockingPool.sol:LockingPool",
            "label": "reward",
            "offset": 0,
            "slot": "1",
            "type": "t_uint256"
          },
          {
            "astId": 2599,
            "contract": "contracts/LockingPool.sol:LockingPool",
            "label": "activationBatch",
            "offset": 0,
            "slot": "2",
            "type": "t_uint256"
          },
          {
            "astId": 2601,
            "contract": "contracts/LockingPool.sol:LockingPool",
            "label": "updatedBatch",
            "offset": 0,
            "slot": "3",
            "type": "t_uint256"
          },
          {
            "astId": 2603,
            "contract": "contracts/LockingPool.sol:LockingPool",
            "label": "deactivationBatch",
            "offset": 0,
            "slot": "4",
            "type": "t_uint256"
          },
          {
            "astId": 2605,
            "contract": "contracts/LockingPool.sol:LockingPool",
            "label": "deactivationTime",
            "offset": 0,
            "slot": "5",
            "type": "t_uint256"
          },
          {
            "astId": 2607,
            "contract": "contracts/LockingPool.sol:LockingPool",
            "label": "unlockClaimTime",
            "offset": 0,
            "slot": "6",
            "type": "t_uint256"
          },
          {
            "astId": 2609,
            "contract": "contracts/LockingPool.sol:LockingPool",
            "label": "nonce",
            "offset": 0,
            "slot": "7",
            "type": "t_uint256"
          },
          {
            "astId": 2611,
            "contract": "contracts/LockingPool.sol:LockingPool",
            "label": "owner",
            "offset": 0,
            "slot": "8",
            "type": "t_address"
          },
          {
            "astId": 2613,
            "contract": "contracts/LockingPool.sol:LockingPool",
            "label": "signer",
            "offset": 0,
            "slot": "9",
            "type": "t_address"
          },
          {
            "astId": 2615,
            "contract": "contracts/LockingPool.sol:LockingPool",
            "label": "pubkey",
            "offset": 0,
            "slot": "10",
            "type": "t_bytes_storage"
          },
          {
            "astId": 2617,
            "contract": "contracts/LockingPool.sol:LockingPool",
            "label": "rewardRecipient",
            "offset": 0,
            "slot": "11",
            "type": "t_address"
          },
          {
            "astId": 2620,
            "contract": "contracts/LockingPool.sol:LockingPool",
            "label": "status",
            "offset": 20,
            "slot": "11",
            "type": "t_enum(Status)2593"
          }
        ],
        "numberOfBytes": "384"
      },
      "t_uint256": {
        "encoding": "inplace",
        "label": "uint256",
        "numberOfBytes": "32"
      },
      "t_uint8": {
        "encoding": "inplace",
        "label": "uint8",
        "numberOfBytes": "1"
      }
    }
  }
}