{
  "address": "0x0D30F0d7934f53aaF6a1630A4c109AF4513a65cC",
  "abi": [
    {
      "anonymous": false,
      "inputs": [
        {
          "indexed": false,
          "internalType": "uint256",
          "name": "_newBatchId",
          "type": "uint256"
        }
      ],
      "name": "BatchSubmitReward",
      "type": "event"
    },
    {
      "anonymous": false,
      "inputs": [
        {
          "indexed": true,
          "internalType": "uint256",
          "name": "sequencerId",
          "type": "uint256"
        },
        {
          "indexed": false,
          "internalType": "address",
          "name": "recipient",
          "type": "address"
        },
        {
          "indexed": true,
          "internalType": "uint256",
          "name": "amount",
          "type": "uint256"
        },
        {
          "indexed": true,
          "internalType": "uint256",
          "name": "totalAmount",
          "type": "uint256"
        }
      ],
      "name": "ClaimRewards",
      "type": "event"
    },
    {
      "anonymous": false,
      "inputs": [
        {
          "indexed": false,
          "internalType": "uint8",
          "name": "version",
          "type": "uint8"
        }
      ],
      "name": "Initialized",
      "type": "event"
    },
    {
      "anonymous": false,
      "inputs": [
        {
          "indexed": true,
          "internalType": "uint256",
          "name": "sequencerId",
          "type": "uint256"
        },
        {
          "indexed": true,
          "internalType": "uint256",
          "name": "nonce",
          "type": "uint256"
        },
        {
          "indexed": true,
          "internalType": "uint256",
          "name": "newAmount",
          "type": "uint256"
        }
      ],
      "name": "LockUpdate",
      "type": "event"
    },
    {
      "anonymous": false,
      "inputs": [
        {
          "indexed": true,
          "internalType": "address",
          "name": "signer",
          "type": "address"
        },
        {
          "indexed": true,
          "internalType": "uint256",
          "name": "sequencerId",
          "type": "uint256"
        },
        {
          "indexed": false,
          "internalType": "uint256",
          "name": "nonce",
          "type": "uint256"
        },
        {
          "indexed": true,
          "internalType": "uint256",
          "name": "activationBatch",
          "type": "uint256"
        },
        {
          "indexed": false,
          "internalType": "uint256",
          "name": "amount",
          "type": "uint256"
        },
        {
          "indexed": false,
          "internalType": "uint256",
          "name": "total",
          "type": "uint256"
        },
        {
          "indexed": false,
          "internalType": "bytes",
          "name": "signerPubkey",
          "type": "bytes"
        }
      ],
      "name": "Locked",
      "type": "event"
    },
    {
      "anonymous": false,
      "inputs": [
        {
          "indexed": true,
          "internalType": "address",
          "name": "previousOwner",
          "type": "address"
        },
        {
          "indexed": true,
          "internalType": "address",
          "name": "newOwner",
          "type": "address"
        }
      ],
      "name": "OwnershipTransferred",
      "type": "event"
    },
    {
      "anonymous": false,
      "inputs": [
        {
          "indexed": true,
          "internalType": "uint256",
          "name": "sequencerId",
          "type": "uint256"
        },
        {
          "indexed": false,
          "internalType": "uint256",
          "name": "amount",
          "type": "uint256"
        },
        {
          "indexed": false,
          "internalType": "uint256",
          "name": "total",
          "type": "uint256"
        }
      ],
      "name": "Relocked",
      "type": "event"
    },
    {
      "anonymous": false,
      "inputs": [
        {
          "indexed": false,
          "internalType": "uint256",
          "name": "_newMaxLock",
          "type": "uint256"
        }
      ],
      "name": "SetMaxLock",
      "type": "event"
    },
    {
      "anonymous": false,
      "inputs": [
        {
          "indexed": false,
          "internalType": "uint256",
          "name": "_newMinLock",
          "type": "uint256"
        }
      ],
      "name": "SetMinLock",
      "type": "event"
    },
    {
      "anonymous": false,
      "inputs": [
        {
          "indexed": false,
          "internalType": "address",
          "name": "_payer",
          "type": "address"
        }
      ],
      "name": "SetRewardPayer",
      "type": "event"
    },
    {
      "anonymous": false,
      "inputs": [
        {
          "indexed": true,
          "internalType": "uint256",
          "name": "sequencerId",
          "type": "uint256"
        },
        {
          "indexed": false,
          "internalType": "uint256",
          "name": "nonce",
          "type": "uint256"
        },
        {
          "indexed": true,
          "internalType": "address",
          "name": "oldSigner",
          "type": "address"
        },
        {
          "indexed": true,
          "internalType": "address",
          "name": "newSigner",
          "type": "address"
        },
        {
          "indexed": false,
          "internalType": "bytes",
          "name": "signerPubkey",
          "type": "bytes"
        }
      ],
      "name": "SignerChange",
      "type": "event"
    },
    {
      "anonymous": false,
      "inputs": [
        {
          "indexed": true,
          "internalType": "address",
          "name": "user",
          "type": "address"
        },
        {
          "indexed": true,
          "internalType": "uint256",
          "name": "sequencerId",
          "type": "uint256"
        },
        {
          "indexed": false,
          "internalType": "uint256",
          "name": "nonce",
          "type": "uint256"
        },
        {
          "indexed": false,
          "internalType": "uint256",
          "name": "deactivationBatch",
          "type": "uint256"
        },
        {
          "indexed": false,
          "internalType": "uint256",
          "name": "deactivationTime",
          "type": "uint256"
        },
        {
          "indexed": false,
          "internalType": "uint256",
          "name": "unlockClaimTime",
          "type": "uint256"
        },
        {
          "indexed": true,
          "internalType": "uint256",
          "name": "amount",
          "type": "uint256"
        }
      ],
      "name": "UnlockInit",
      "type": "event"
    },
    {
      "anonymous": false,
      "inputs": [
        {
          "indexed": true,
          "internalType": "address",
          "name": "user",
          "type": "address"
        },
        {
          "indexed": true,
          "internalType": "uint256",
          "name": "sequencerId",
          "type": "uint256"
        },
        {
          "indexed": false,
          "internalType": "uint256",
          "name": "amount",
          "type": "uint256"
        },
        {
          "indexed": false,
          "internalType": "uint256",
          "name": "total",
          "type": "uint256"
        }
      ],
      "name": "Unlocked",
      "type": "event"
    },
    {
      "anonymous": false,
      "inputs": [
        {
          "indexed": true,
          "internalType": "uint256",
          "name": "sequencerId",
          "type": "uint256"
        },
        {
          "indexed": false,
          "internalType": "uint256",
          "name": "amount",
          "type": "uint256"
        }
      ],
      "name": "Withdraw",
      "type": "event"
    },
    {
      "inputs": [],
      "name": "bridge",
      "outputs": [
        {
          "internalType": "address",
          "name": "",
          "type": "address"
        }
      ],
      "stateMutability": "view",
      "type": "function"
    },
    {
      "inputs": [
        {
          "internalType": "uint256",
          "name": "_batchId",
          "type": "uint256"
        },
        {
          "internalType": "uint256",
          "name": "_totalReward",
          "type": "uint256"
        }
      ],
      "name": "distributeReward",
      "outputs": [],
      "stateMutability": "nonpayable",
      "type": "function"
    },
    {
      "inputs": [
        {
          "internalType": "address",
          "name": "_operator",
          "type": "address"
        },
        {
          "internalType": "uint256",
          "name": "_seqId",
          "type": "uint256"
        },
        {
          "internalType": "uint256",
          "name": "_amount",
          "type": "uint256"
        },
        {
          "internalType": "uint256",
          "name": "_reward",
          "type": "uint256"
        },
        {
          "internalType": "address",
          "name": "_recipient",
          "type": "address"
        },
        {
          "internalType": "uint32",
          "name": "_l2gas",
          "type": "uint32"
        }
      ],
      "name": "finalizeUnlock",
      "outputs": [],
      "stateMutability": "payable",
      "type": "function"
    },
    {
      "inputs": [
        {
          "internalType": "uint256",
          "name": "_seqId",
          "type": "uint256"
        },
        {
          "internalType": "uint256",
          "name": "_nonce",
          "type": "uint256"
        },
        {
          "internalType": "address",
          "name": "_owner",
          "type": "address"
        },
        {
          "internalType": "uint256",
          "name": "_locked",
          "type": "uint256"
        },
        {
          "internalType": "uint256",
          "name": "_incoming",
          "type": "uint256"
        },
        {
          "internalType": "uint256",
          "name": "_fromReward",
          "type": "uint256"
        }
      ],
      "name": "increaseLocked",
      "outputs": [],
      "stateMutability": "nonpayable",
      "type": "function"
    },
    {
      "inputs": [
        {
          "internalType": "address",
          "name": "_manager",
          "type": "address"
        }
      ],
      "name": "initManager",
      "outputs": [],
      "stateMutability": "nonpayable",
      "type": "function"
    },
    {
      "inputs": [
        {
          "internalType": "address",
          "name": "_bridge",
          "type": "address"
        },
        {
          "internalType": "address",
          "name": "_l1Token",
          "type": "address"
        },
        {
          "internalType": "address",
          "name": "_l2Token",
          "type": "address"
        },
        {
          "internalType": "uint256",
          "name": "_l2ChainId",
          "type": "uint256"
        }
      ],
      "name": "initialize",
      "outputs": [],
      "stateMutability": "nonpayable",
      "type": "function"
    },
    {
      "inputs": [
        {
          "internalType": "uint256",
          "name": "_seqId",
          "type": "uint256"
        },
        {
          "internalType": "uint256",
          "name": "_reward",
          "type": "uint256"
        },
        {
          "internalType": "uint32",
          "name": "_l2gas",
          "type": "uint32"
        },
        {
          "components": [
            {
              "internalType": "uint256",
              "name": "amount",
              "type": "uint256"
            },
            {
              "internalType": "uint256",
              "name": "reward",
              "type": "uint256"
            },
            {
              "internalType": "uint256",
              "name": "activationBatch",
              "type": "uint256"
            },
            {
              "internalType": "uint256",
              "name": "updatedBatch",
              "type": "uint256"
            },
            {
              "internalType": "uint256",
              "name": "deactivationBatch",
              "type": "uint256"
            },
            {
              "internalType": "uint256",
              "name": "deactivationTime",
              "type": "uint256"
            },
            {
              "internalType": "uint256",
              "name": "unlockClaimTime",
              "type": "uint256"
            },
            {
              "internalType": "uint256",
              "name": "nonce",
              "type": "uint256"
            },
            {
              "internalType": "address",
              "name": "owner",
              "type": "address"
            },
            {
              "internalType": "address",
              "name": "signer",
              "type": "address"
            },
            {
              "internalType": "bytes",
              "name": "pubkey",
              "type": "bytes"
            },
            {
              "internalType": "address",
              "name": "rewardRecipient",
              "type": "address"
            },
            {
              "internalType": "enum ISequencerInfo.Status",
              "name": "status",
              "type": "uint8"
            }
          ],
          "internalType": "struct ISequencerInfo.Sequencer",
          "name": "_seq",
          "type": "tuple"
        }
      ],
      "name": "initializeUnlock",
      "outputs": [],
      "stateMutability": "payable",
      "type": "function"
    },
    {
      "inputs": [],
      "name": "l1Token",
      "outputs": [
        {
          "internalType": "address",
          "name": "",
          "type": "address"
        }
      ],
      "stateMutability": "view",
      "type": "function"
    },
    {
      "inputs": [],
      "name": "l2ChainId",
      "outputs": [
        {
          "internalType": "uint256",
          "name": "",
          "type": "uint256"
        }
      ],
      "stateMutability": "view",
      "type": "function"
    },
    {
      "inputs": [],
      "name": "l2Token",
      "outputs": [
        {
          "internalType": "address",
          "name": "",
          "type": "address"
        }
      ],
      "stateMutability": "view",
      "type": "function"
    },
    {
      "inputs": [
        {
          "internalType": "uint256",
          "name": "_seqId",
          "type": "uint256"
        },
        {
          "internalType": "uint256",
          "name": "_amount",
          "type": "uint256"
        },
        {
          "internalType": "address",
          "name": "_recipient",
          "type": "address"
        },
        {
          "internalType": "uint32",
          "name": "_l2gas",
          "type": "uint32"
        }
      ],
      "name": "liquidateReward",
      "outputs": [],
      "stateMutability": "payable",
      "type": "function"
    },
    {
      "inputs": [
        {
          "internalType": "uint256",
          "name": "sequencerId",
          "type": "uint256"
        },
        {
          "internalType": "address",
          "name": "oldSigner",
          "type": "address"
        },
        {
          "internalType": "address",
          "name": "newSigner",
          "type": "address"
        },
        {
          "internalType": "uint256",
          "name": "nonce",
          "type": "uint256"
        },
        {
          "internalType": "bytes",
          "name": "signerPubkey",
          "type": "bytes"
        }
      ],
      "name": "logSignerChange",
      "outputs": [],
      "stateMutability": "nonpayable",
      "type": "function"
    },
    {
      "inputs": [],
      "name": "manager",
      "outputs": [
        {
          "internalType": "address",
          "name": "",
          "type": "address"
        }
      ],
      "stateMutability": "view",
      "type": "function"
    },
    {
      "inputs": [],
      "name": "maxLock",
      "outputs": [
        {
          "internalType": "uint256",
          "name": "",
          "type": "uint256"
        }
      ],
      "stateMutability": "view",
      "type": "function"
    },
    {
      "inputs": [],
      "name": "minLock",
      "outputs": [
        {
          "internalType": "uint256",
          "name": "",
          "type": "uint256"
        }
      ],
      "stateMutability": "view",
      "type": "function"
    },
    {
      "inputs": [
        {
          "internalType": "uint256",
          "name": "_id",
          "type": "uint256"
        },
        {
          "internalType": "address",
          "name": "_owner",
          "type": "address"
        },
        {
          "internalType": "address",
          "name": "_signer",
          "type": "address"
        },
        {
          "internalType": "uint256",
          "name": "_amount",
          "type": "uint256"
        },
        {
          "internalType": "uint256",
          "name": "_batchId",
          "type": "uint256"
        },
        {
          "internalType": "bytes",
          "name": "_signerPubkey",
          "type": "bytes"
        }
      ],
      "name": "newSequencer",
      "outputs": [],
      "stateMutability": "nonpayable",
      "type": "function"
    },
    {
      "inputs": [],
      "name": "owner",
      "outputs": [
        {
          "internalType": "address",
          "name": "",
          "type": "address"
        }
      ],
      "stateMutability": "view",
      "type": "function"
    },
    {
      "inputs": [],
      "name": "renounceOwnership",
      "outputs": [],
      "stateMutability": "nonpayable",
      "type": "function"
    },
    {
      "inputs": [],
      "name": "rewardPayer",
      "outputs": [
        {
          "internalType": "address",
          "name": "",
          "type": "address"
        }
      ],
      "stateMutability": "view",
      "type": "function"
    },
    {
      "inputs": [
        {
          "internalType": "uint256",
          "name": "_maxLock",
          "type": "uint256"
        }
      ],
      "name": "setMaxLock",
      "outputs": [],
      "stateMutability": "nonpayable",
      "type": "function"
    },
    {
      "inputs": [
        {
          "internalType": "uint256",
          "name": "_minLock",
          "type": "uint256"
        }
      ],
      "name": "setMinLock",
      "outputs": [],
      "stateMutability": "nonpayable",
      "type": "function"
    },
    {
      "inputs": [
        {
          "internalType": "address",
          "name": "_payer",
          "type": "address"
        }
      ],
      "name": "setRewardPayer",
      "outputs": [],
      "stateMutability": "nonpayable",
      "type": "function"
    },
    {
      "inputs": [],
      "name": "totalLocked",
      "outputs": [
        {
          "internalType": "uint256",
          "name": "",
          "type": "uint256"
        }
      ],
      "stateMutability": "view",
      "type": "function"
    },
    {
      "inputs": [],
      "name": "totalRewardsLiquidated",
      "outputs": [
        {
          "internalType": "uint256",
          "name": "",
          "type": "uint256"
        }
      ],
      "stateMutability": "view",
      "type": "function"
    },
    {
      "inputs": [
        {
          "internalType": "address",
          "name": "newOwner",
          "type": "address"
        }
      ],
      "name": "transferOwnership",
      "outputs": [],
      "stateMutability": "nonpayable",
      "type": "function"
    },
    {
      "inputs": [
        {
          "internalType": "uint256",
          "name": "_seqId",
          "type": "uint256"
        },
        {
          "internalType": "address",
          "name": "_owner",
          "type": "address"
        },
        {
          "internalType": "uint256",
          "name": "_nonce",
          "type": "uint256"
        },
        {
          "internalType": "uint256",
          "name": "_amount",
          "type": "uint256"
        },
        {
          "internalType": "uint256",
          "name": "_locked",
          "type": "uint256"
        }
      ],
      "name": "withdrawLocking",
      "outputs": [],
      "stateMutability": "nonpayable",
      "type": "function"
    }
  ],
  "transactionHash": "0xd2bccb8aba40915735050dd74f8bd2f37ff1039c2383441857a836d7f5e1d2c1",
  "args": [],
  "numDeployments": 2,
  "solcInputHash": "d1cd88c14ea1739befb49961a5c6dfa8",
  "bytecode": "0x608060405234801561000f575f80fd5b50611b9d8061001d5f395ff3fe608060405260043610610199575f3560e01c8063aa15af6a116100dc578063cf756fdf11610087578063e78cea9211610062578063e78cea921461041b578063e8b8b4131461043a578063f037c63014610459578063f2fde38b1461046e575f80fd5b8063cf756fdf146103c8578063d6ae3cd5146103e7578063e3bcd27c146103fc575f80fd5b8063c01e1bd6116100b7578063c01e1bd614610375578063cd15b2a514610394578063cd6b8388146103b3575f80fd5b8063aa15af6a14610318578063b1fc19d314610337578063b328570214610356575f80fd5b806356891412116101475780636c0b3e46116101225780636c0b3e46146102b35780636eb27154146102c8578063715018a6146102e75780638da5cb5b146102fb575f80fd5b8063568914121461025e57806356eff267146102815780635d7878a8146102a0575f80fd5b80632684b8ec116101775780632684b8ec146101f0578063481c6a751461020f578063528ed12a1461024b575f80fd5b80631badded51461019d5780632243069c146101be578063234898b3146101d1575b5f80fd5b3480156101a8575f80fd5b506101bc6101b736600461170c565b61048d565b005b6101bc6101cc36600461179b565b6105b0565b3480156101dc575f80fd5b506101bc6101eb3660046117fd565b610693565b3480156101fb575f80fd5b506101bc61020a36600461183f565b6107c6565b34801561021a575f80fd5b50606d5461022e906001600160a01b031681565b6040516001600160a01b0390911681526020015b60405180910390f35b6101bc61025936600461188c565b61095f565b348015610269575f80fd5b50610273606b5481565b604051908152602001610242565b34801561028c575f80fd5b5060675461022e906001600160a01b031681565b6101bc6102ae3660046118e7565b610a36565b3480156102be575f80fd5b50610273606a5481565b3480156102d3575f80fd5b50606e5461022e906001600160a01b031681565b3480156102f2575f80fd5b506101bc610a90565b348015610306575f80fd5b506033546001600160a01b031661022e565b348015610323575f80fd5b506101bc61033236600461192a565b610aa3565b348015610342575f80fd5b506101bc610351366004611941565b610b36565b348015610361575f80fd5b506101bc610370366004611961565b610bb9565b348015610380575f80fd5b5060665461022e906001600160a01b031681565b34801561039f575f80fd5b506101bc6103ae36600461192a565b610c59565b3480156103be575f80fd5b50610273606c5481565b3480156103d3575f80fd5b506101bc6103e23660046119d4565b610ce8565b3480156103f2575f80fd5b5061027360685481565b348015610407575f80fd5b506101bc610416366004611a1c565b610e64565b348015610426575f80fd5b5060655461022e906001600160a01b031681565b348015610445575f80fd5b506101bc610454366004611941565b610f01565b348015610464575f80fd5b5061027360695481565b348015610479575f80fd5b506101bc610488366004611941565b610f57565b606d546001600160a01b031633146104da5760405162461bcd60e51b815260206004820152600b60248201526a2737ba1036b0b730b3b2b960a91b60448201526064015b60405180910390fd5b60695484101580156104ee5750606a548411155b61052b5760405162461bcd60e51b815260206004820152600e60248201526d1a5b9d985b1a5908185b5bdd5b9d60921b60448201526064016104d1565b5f84606b5461053a9190611a50565b606b81905560665490915061055a906001600160a01b0316883088610fe7565b8388876001600160a01b03167fe6f1eb1f1d0ca344d03cf47b9e6ece8a7d3b196e38dd7dd2307cca75e26682a860018986898960405161059e959493929190611a91565b60405180910390a45050505050505050565b606d546001600160a01b031633146105f85760405162461bcd60e51b815260206004820152600b60248201526a2737ba1036b0b730b3b2b960a91b60448201526064016104d1565b610615848461060f61018085016101608601611941565b8561107f565b828461062961014084016101208501611941565b6040805160e08601358152608080870135602083015260a08701359282019290925260c086013560608201526001600160a01b0392909216917f06d9e13438f0daf13a71d63f3f8579db8bdeb299e4b651942313c73224d7af69910160405180910390a450505050565b606d546001600160a01b031633146106db5760405162461bcd60e51b815260206004820152600b60248201526a2737ba1036b0b730b3b2b960a91b60448201526064016104d1565b5f821180156106ec57506069548110155b6107295760405162461bcd60e51b815260206004820152600e60248201526d1a5b9d985b1a5908185b5bdd5b9d60921b60448201526064016104d1565b81606b5f82825461073a9190611ab6565b9091555050606654610756906001600160a01b031685846110ea565b847f56ca301a9219608c91e7bcee90e083c19671d2cdcc96752c7af291cee5f9c8c88360405161078891815260200190565b60405180910390a28083867fd716c027b3dd610e4534df756848128bbb159a757724c17d89fcc4d0151b1f3060405160405180910390a45050505050565b606d546001600160a01b0316331461080e5760405162461bcd60e51b815260206004820152600b60248201526a2737ba1036b0b730b3b2b960a91b60448201526064016104d1565b606a548311156108605760405162461bcd60e51b815260206004820152600e60248201527f6c6f636b65643e6d61784c6f636b00000000000000000000000000000000000060448201526064016104d1565b5f61086b8284611a50565b90505f81116108bc5760405162461bcd60e51b815260206004820152601360248201527f4e6f206e6577206c6f636b65642061646465640000000000000000000000000060448201526064016104d1565b6066546108d4906001600160a01b0316863086610fe7565b5f81606b546108e39190611a50565b606b819055604080518481526020810183905291925089917f33a87ba488658b3d1319098cd49c6d65b72a79c0f3530fec611e7afffed04395910160405180910390a28487897fd716c027b3dd610e4534df756848128bbb159a757724c17d89fcc4d0151b1f3060405160405180910390a45050505050505050565b606d546001600160a01b031633146109a75760405162461bcd60e51b815260206004820152600b60248201526a2737ba1036b0b730b3b2b960a91b60448201526064016104d1565b5f84606b546109b69190611ab6565b606b8190556066549091506109d5906001600160a01b031688876110ea565b83156109e7576109e78685858561107f565b604080518681526020810183905287916001600160a01b038a16917f5245d528087a96a64f4589a764f00061e4671eab90cb1e019b1a5b24b2e4c2a8910160405180910390a350505050505050565b606d546001600160a01b03163314610a7e5760405162461bcd60e51b815260206004820152600b60248201526a2737ba1036b0b730b3b2b960a91b60448201526064016104d1565b610a8a8484848461107f565b50505050565b610a9861111f565b610aa15f611179565b565b610aab61111f565b5f8111610afa5760405162461bcd60e51b815260206004820152600a60248201527f5f6d696e4c6f636b3d300000000000000000000000000000000000000000000060448201526064016104d1565b60698190556040518181527fabb05374bb45ebfef33afb21ec5aa52333708d8217fd8e5c0616efd2530b2145906020015b60405180910390a150565b610b3e61111f565b606d546001600160a01b031615610b975760405162461bcd60e51b815260206004820152601c60248201527f6d616e6167657220686173206265656e20696e697469616c697a65640000000060448201526064016104d1565b606d80546001600160a01b0319166001600160a01b0392909216919091179055565b606d546001600160a01b03163314610c015760405162461bcd60e51b815260206004820152600b60248201526a2737ba1036b0b730b3b2b960a91b60448201526064016104d1565b836001600160a01b0316856001600160a01b0316877f086044c0612a8c965d4cccd907f0d588e40ad68438bd4c1274cac60f4c3a9d1f868686604051610c4993929190611ac9565b60405180910390a4505050505050565b610c6161111f565b606954811015610cb35760405162461bcd60e51b815260206004820152600f60248201527f6d61784c6f636b3c6d696e4c6f636b000000000000000000000000000000000060448201526064016104d1565b606a8190556040518181527fbe23e9641c545443c3c625039b327c0eee88e9024040be7b03c5d73862d425e090602001610b2b565b5f54610100900460ff1615808015610d0657505f54600160ff909116105b80610d1f5750303b158015610d1f57505f5460ff166001145b610d915760405162461bcd60e51b815260206004820152602e60248201527f496e697469616c697a61626c653a20636f6e747261637420697320616c72656160448201527f647920696e697469616c697a656400000000000000000000000000000000000060648201526084016104d1565b5f805460ff191660011790558015610db2575f805461ff0019166101001790555b606580546001600160a01b038088166001600160a01b031992831617909255606680548784169083161790556067805492861692909116919091179055606882905569043c33c193756480000060695569152d02c7e14af6800000606a55610e186111ca565b8015610e5d575f805461ff0019169055604051600181527f7f26b83ff96e1f2b6a682f133852f6798a09c465da95921460cefb38474024989060200160405180910390a15b5050505050565b606d546001600160a01b03163314610eac5760405162461bcd60e51b815260206004820152600b60248201526a2737ba1036b0b730b3b2b960a91b60448201526064016104d1565b606e54606654610eca916001600160a01b0391821691163084610fe7565b6040518281527f9e5aedd489785d05ba086064386f2e75b3e497d3dc00a54ed1c78bfc50a3953f9060200160405180910390a15050565b610f0961111f565b606e80546001600160a01b0319166001600160a01b0383169081179091556040519081527f30b92f5a89d7473895c4e9ce260fa7d0eefef2d59d5e68192e2e8cca4b9473a090602001610b2b565b610f5f61111f565b6001600160a01b038116610fdb5760405162461bcd60e51b815260206004820152602660248201527f4f776e61626c653a206e6577206f776e657220697320746865207a65726f206160448201527f646472657373000000000000000000000000000000000000000000000000000060648201526084016104d1565b610fe481611179565b50565b6040516001600160a01b0380851660248301528316604482015260648101829052610a8a9085906323b872dd60e01b906084015b60408051601f198184030181529190526020810180517bffffffffffffffffffffffffffffffffffffffffffffffffffffffff167fffffffff000000000000000000000000000000000000000000000000000000009093169290921790915261123c565b61108a828483611322565b5f83606c546110999190611a50565b606c8190556040516001600160a01b03851681529091508190859087907f18c7dc2a1800c409227dc12c0c05ada9c995ebfe0e42ae6d65f1b3ae3e6111de9060200160405180910390a45050505050565b6040516001600160a01b03831660248201526044810182905261111a90849063a9059cbb60e01b9060640161101b565b505050565b6033546001600160a01b03163314610aa15760405162461bcd60e51b815260206004820181905260248201527f4f776e61626c653a2063616c6c6572206973206e6f7420746865206f776e657260448201526064016104d1565b603380546001600160a01b038381166001600160a01b0319831681179093556040519116919082907f8be0079c531659141344cd1fd0a4f28419497f9722a3daafe3b4186f6b6457e0905f90a35050565b5f54610100900460ff166112345760405162461bcd60e51b815260206004820152602b60248201527f496e697469616c697a61626c653a20636f6e7472616374206973206e6f74206960448201526a6e697469616c697a696e6760a81b60648201526084016104d1565b610aa16113ee565b5f611290826040518060400160405280602081526020017f5361666545524332303a206c6f772d6c6576656c2063616c6c206661696c6564815250856001600160a01b03166114619092919063ffffffff16565b905080515f14806112b05750808060200190518101906112b09190611aeb565b61111a5760405162461bcd60e51b815260206004820152602a60248201527f5361666545524332303a204552433230206f7065726174696f6e20646964206e60448201527f6f7420737563636565640000000000000000000000000000000000000000000060648201526084016104d1565b815f0361132e57505050565b60655460665461134b916001600160a01b03918216911684611477565b6065546068546066546067546040516377c045f160e11b815260048101939093526001600160a01b0391821660248401528116604483015285811660648301526084820185905263ffffffff841660a483015260e060c48301525f60e48301529091169063ef808be2903490610104015f604051808303818588803b1580156113d2575f80fd5b505af11580156113e4573d5f803e3d5ffd5b5050505050505050565b5f54610100900460ff166114585760405162461bcd60e51b815260206004820152602b60248201527f496e697469616c697a61626c653a20636f6e7472616374206973206e6f74206960448201526a6e697469616c697a696e6760a81b60648201526084016104d1565b610aa133611179565b606061146f84845f85611521565b949350505050565b604051636eb1769f60e11b81523060048201526001600160a01b0383811660248301525f919085169063dd62ed3e90604401602060405180830381865afa1580156114c4573d5f803e3d5ffd5b505050506040513d601f19601f820116820180604052508101906114e89190611b0a565b9050610a8a8463095ea7b360e01b856115018686611a50565b6040516001600160a01b039092166024830152604482015260640161101b565b6060824710156115995760405162461bcd60e51b815260206004820152602660248201527f416464726573733a20696e73756666696369656e742062616c616e636520666f60448201527f722063616c6c000000000000000000000000000000000000000000000000000060648201526084016104d1565b5f80866001600160a01b031685876040516115b49190611b43565b5f6040518083038185875af1925050503d805f81146115ee576040519150601f19603f3d011682016040523d82523d5f602084013e6115f3565b606091505b50915091506116048783838761160f565b979650505050505050565b6060831561167d5782515f03611676576001600160a01b0385163b6116765760405162461bcd60e51b815260206004820152601d60248201527f416464726573733a2063616c6c20746f206e6f6e2d636f6e747261637400000060448201526064016104d1565b508161146f565b61146f83838151156116925781518083602001fd5b8060405162461bcd60e51b81526004016104d19190611b5e565b80356001600160a01b03811681146116c2575f80fd5b919050565b5f8083601f8401126116d7575f80fd5b50813567ffffffffffffffff8111156116ee575f80fd5b602083019150836020828501011115611705575f80fd5b9250929050565b5f805f805f805f60c0888a031215611722575f80fd5b87359650611732602089016116ac565b9550611740604089016116ac565b9450606088013593506080880135925060a088013567ffffffffffffffff811115611769575f80fd5b6117758a828b016116c7565b989b979a50959850939692959293505050565b803563ffffffff811681146116c2575f80fd5b5f805f80608085870312156117ae575f80fd5b84359350602085013592506117c560408601611788565b9150606085013567ffffffffffffffff8111156117e0575f80fd5b85016101a081880312156117f2575f80fd5b939692955090935050565b5f805f805f60a08688031215611811575f80fd5b85359450611821602087016116ac565b94979496505050506040830135926060810135926080909101359150565b5f805f805f8060c08789031215611854575f80fd5b863595506020870135945061186b604088016116ac565b9350606087013592506080870135915060a087013590509295509295509295565b5f805f805f8060c087890312156118a1575f80fd5b6118aa876116ac565b95506020870135945060408701359350606087013592506118cd608088016116ac565b91506118db60a08801611788565b90509295509295509295565b5f805f80608085870312156118fa575f80fd5b8435935060208501359250611911604086016116ac565b915061191f60608601611788565b905092959194509250565b5f6020828403121561193a575f80fd5b5035919050565b5f60208284031215611951575f80fd5b61195a826116ac565b9392505050565b5f805f805f8060a08789031215611976575f80fd5b86359550611986602088016116ac565b9450611994604088016116ac565b935060608701359250608087013567ffffffffffffffff8111156119b6575f80fd5b6119c289828a016116c7565b979a9699509497509295939492505050565b5f805f80608085870312156119e7575f80fd5b6119f0856116ac565b93506119fe602086016116ac565b9250611a0c604086016116ac565b9396929550929360600135925050565b5f8060408385031215611a2d575f80fd5b50508035926020909101359150565b634e487b7160e01b5f52601160045260245ffd5b80820180821115611a6357611a63611a3c565b92915050565b81835281816020850137505f828201602090810191909152601f909101601f19169091010190565b858152846020820152836040820152608060608201525f611604608083018486611a69565b81810381811115611a6357611a63611a3c565b838152604060208201525f611ae2604083018486611a69565b95945050505050565b5f60208284031215611afb575f80fd5b8151801515811461195a575f80fd5b5f60208284031215611b1a575f80fd5b5051919050565b5f5b83811015611b3b578181015183820152602001611b23565b50505f910152565b5f8251611b54818460208701611b21565b9190910192915050565b602081525f8251806020840152611b7c816040850160208701611b21565b601f01601f1916919091016040019291505056fea164736f6c6343000818000a",
  "devdoc": {
    "events": {
      "BatchSubmitReward(uint256)": {
        "details": "Emitted when batch update in  'batchSubmitRewards'",
        "params": {
          "_newBatchId": "new batchId.      Note from maintainer:      for compatibility, the event is retained"
        }
      },
      "ClaimRewards(uint256,address,uint256,uint256)": {
        "details": "Emitted when sequencer withdraw rewards in 'withdrawRewards' or 'unlockClaim'",
        "params": {
          "amount": "the reward amount.",
          "recipient": "the address receive reward tokens",
          "sequencerId": "unique integer to identify a sequencer.",
          "totalAmount": "total rewards has liquidated"
        }
      },
      "Initialized(uint8)": {
        "details": "Triggered when the contract has been initialized or reinitialized."
      },
      "LockUpdate(uint256,uint256,uint256)": {
        "details": "Emitted when sequencer relocking in 'relock()'.",
        "params": {
          "newAmount": "the updated lock amount.",
          "nonce": "to synchronize the events in themis.",
          "sequencerId": "unique integer to identify a sequencer."
        }
      },
      "Locked(address,uint256,uint256,uint256,uint256,uint256,bytes)": {
        "details": "Emitted when sequencer locks in '_lockFor()' in LockingPool.",
        "params": {
          "activationBatch": "sequencer's first epoch as proposer.",
          "amount": "locking amount.",
          "nonce": "to synchronize the events in themis.",
          "sequencerId": "unique integer to identify a sequencer.",
          "signer": "sequencer address.",
          "signerPubkey": "public key of the sequencer",
          "total": "total locking amount."
        }
      },
      "Relocked(uint256,uint256,uint256)": {
        "details": "Emitted when the sequencer increase lock amount in 'relock()'.",
        "params": {
          "amount": "locking new amount",
          "sequencerId": "unique integer to identify a sequencer.",
          "total": "the total locking amount"
        }
      },
      "SetMaxLock(uint256)": {
        "details": "Emitted when min lock amount update in 'UpdateMaxAmounts'",
        "params": {
          "_newMaxLock": "new max lock."
        }
      },
      "SetMinLock(uint256)": {
        "details": "Emitted when min lock amount update in 'UpdateMinAmounts'",
        "params": {
          "_newMinLock": "new min lock."
        }
      },
      "SetRewardPayer(address)": {
        "details": "Emitted when the reward payer is changed",
        "params": {
          "_payer": "new reward payer"
        }
      },
      "SignerChange(uint256,uint256,address,address,bytes)": {
        "details": "Emitted when the sequencer public key is updated in 'updateSigner()'.",
        "params": {
          "newSigner": "newSigner new address of the sequencer.",
          "nonce": "to synchronize the events in themis.",
          "oldSigner": "oldSigner old address of the sequencer.",
          "sequencerId": "unique integer to identify a sequencer.",
          "signerPubkey": "signerPubkey public key of the sequencer."
        }
      },
      "UnlockInit(address,uint256,uint256,uint256,uint256,uint256,uint256)": {
        "details": "Emitted when sequencer unlocks in '_unlock()'.",
        "params": {
          "amount": "locking amount",
          "deactivationBatch": "last batch for sequencer.",
          "deactivationTime": "unlock block timestamp.",
          "nonce": "to synchronize the events in themis.",
          "sequencerId": "unique integer to identify a sequencer.",
          "unlockClaimTime": "when user can claim locked token.",
          "user": "address of the sequencer."
        }
      },
      "Unlocked(address,uint256,uint256,uint256)": {
        "details": "Emitted when sequencer unlocks in 'unlockClaim()'",
        "params": {
          "amount": "locking amount.",
          "sequencerId": "unique integer to identify a sequencer.",
          "total": "total locking amount.",
          "user": "address of the sequencer."
        }
      },
      "Withdraw(uint256,uint256)": {
        "details": "Emitted when the sequencer reduce lock amount in 'withdraw()'.",
        "params": {
          "amount": "withdraw new amount",
          "sequencerId": "unique integer to identify a sequencer."
        }
      }
    },
    "kind": "dev",
    "methods": {
      "distributeReward(uint256,uint256)": {
        "details": "distributeReward reward distribution",
        "params": {
          "_batchId": "The batchId that submitted the reward is that"
        }
      },
      "finalizeUnlock(address,uint256,uint256,uint256,address,uint32)": {
        "details": "finalizeUnlock the last step to unlock",
        "params": {
          "_amount": "locked amount",
          "_l2gas": "the l2gas for L1bridge",
          "_operator": "the sequencer id",
          "_recipient": "recipient",
          "_reward": "reward amount",
          "_seqId": "the sequencer id"
        }
      },
      "increaseLocked(uint256,uint256,address,uint256,uint256,uint256)": {
        "details": "increaseLocked lock tokens to the sequencer, it can only be called from manager contract",
        "params": {
          "_fromReward": "use reward to lock",
          "_incoming": "amount from current transaction",
          "_locked": "the locked amount of the sequencer at last",
          "_nonce": "the sequencer nonce",
          "_owner": "the sequencer owner address",
          "_seqId": "the sequencer id"
        }
      },
      "initializeUnlock(uint256,uint256,uint32,(uint256,uint256,uint256,uint256,uint256,uint256,uint256,uint256,address,address,bytes,address,uint8))": {
        "details": "initializeUnlock the first step to unlock      current reward will be distributed",
        "params": {
          "_l2gas": "the l2gas for L1bridge",
          "_reward": "the reward to withdraw",
          "_seq": "the current sequencer state",
          "_seqId": "the sequencer id"
        }
      },
      "logSignerChange(uint256,address,address,uint256,bytes)": {
        "details": "logSignerChange log event SignerChange"
      },
      "newSequencer(uint256,address,address,uint256,uint256,bytes)": {
        "details": "newSequencer register a new sequencer, it can only be called from manager contract",
        "params": {
          "_amount": "the amount to lock in",
          "_batchId": "current batch id",
          "_id": "the sequencer id",
          "_owner": "the sequencer owenr",
          "_signer": "the sequencer node address",
          "_signerPubkey": "the sequencer public key"
        }
      },
      "owner()": {
        "details": "Returns the address of the current owner."
      },
      "renounceOwnership()": {
        "details": "Leaves the contract without owner. It will not be possible to call `onlyOwner` functions. Can only be called by the current owner. NOTE: Renouncing ownership will leave the contract without an owner, thereby disabling any functionality that is only available to the owner."
      },
      "setMaxLock(uint256)": {
        "details": "setMaxLock Allow owner to update max lock amount",
        "params": {
          "_maxLock": "new max lock amount"
        }
      },
      "setMinLock(uint256)": {
        "details": "updateMinAmounts Allow owner to update min lock amount",
        "params": {
          "_minLock": "new min lock amount"
        }
      },
      "setRewardPayer(address)": {
        "details": "setRewardPayer update reward payer address by owner",
        "params": {
          "_payer": "new reward payer"
        }
      },
      "transferOwnership(address)": {
        "details": "Transfers ownership of the contract to a new account (`newOwner`). Can only be called by the current owner."
      },
      "withdrawLocking(uint256,address,uint256,uint256,uint256)": {
        "details": "withdrawLocking is to withdraw locking",
        "params": {
          "_amount": "amount to withdraw",
          "_locked": "the locked amount of the sequencer at last",
          "_nonce": "the sequencer nonce",
          "_owner": "the sequencer owner address",
          "_seqId": "the sequencer id"
        }
      }
    },
    "version": 1
  },
  "userdoc": {
    "kind": "user",
    "methods": {},
    "version": 1
  },
  "storageLayout": {
    "storage": [
      {
        "astId": 139,
        "contract": "contracts/LockingInfo.sol:LockingInfo",
        "label": "_initialized",
        "offset": 0,
        "slot": "0",
        "type": "t_uint8"
      },
      {
        "astId": 142,
        "contract": "contracts/LockingInfo.sol:LockingInfo",
        "label": "_initializing",
        "offset": 1,
        "slot": "0",
        "type": "t_bool"
      },
      {
        "astId": 809,
        "contract": "contracts/LockingInfo.sol:LockingInfo",
        "label": "__gap",
        "offset": 0,
        "slot": "1",
        "type": "t_array(t_uint256)50_storage"
      },
      {
        "astId": 11,
        "contract": "contracts/LockingInfo.sol:LockingInfo",
        "label": "_owner",
        "offset": 0,
        "slot": "51",
        "type": "t_address"
      },
      {
        "astId": 131,
        "contract": "contracts/LockingInfo.sol:LockingInfo",
        "label": "__gap",
        "offset": 0,
        "slot": "52",
        "type": "t_array(t_uint256)49_storage"
      },
      {
        "astId": 1654,
        "contract": "contracts/LockingInfo.sol:LockingInfo",
        "label": "bridge",
        "offset": 0,
        "slot": "101",
        "type": "t_address"
      },
      {
        "astId": 1656,
        "contract": "contracts/LockingInfo.sol:LockingInfo",
        "label": "l1Token",
        "offset": 0,
        "slot": "102",
        "type": "t_address"
      },
      {
        "astId": 1658,
        "contract": "contracts/LockingInfo.sol:LockingInfo",
        "label": "l2Token",
        "offset": 0,
        "slot": "103",
        "type": "t_address"
      },
      {
        "astId": 1660,
        "contract": "contracts/LockingInfo.sol:LockingInfo",
        "label": "l2ChainId",
        "offset": 0,
        "slot": "104",
        "type": "t_uint256"
      },
      {
        "astId": 1662,
        "contract": "contracts/LockingInfo.sol:LockingInfo",
        "label": "minLock",
        "offset": 0,
        "slot": "105",
        "type": "t_uint256"
      },
      {
        "astId": 1664,
        "contract": "contracts/LockingInfo.sol:LockingInfo",
        "label": "maxLock",
        "offset": 0,
        "slot": "106",
        "type": "t_uint256"
      },
      {
        "astId": 1666,
        "contract": "contracts/LockingInfo.sol:LockingInfo",
        "label": "totalLocked",
        "offset": 0,
        "slot": "107",
        "type": "t_uint256"
      },
      {
        "astId": 1668,
        "contract": "contracts/LockingInfo.sol:LockingInfo",
        "label": "totalRewardsLiquidated",
        "offset": 0,
        "slot": "108",
        "type": "t_uint256"
      },
      {
        "astId": 1670,
        "contract": "contracts/LockingInfo.sol:LockingInfo",
        "label": "manager",
        "offset": 0,
        "slot": "109",
        "type": "t_address"
      },
      {
        "astId": 1672,
        "contract": "contracts/LockingInfo.sol:LockingInfo",
        "label": "rewardPayer",
        "offset": 0,
        "slot": "110",
        "type": "t_address"
      }
    ],
    "types": {
      "t_address": {
        "encoding": "inplace",
        "label": "address",
        "numberOfBytes": "20"
      },
      "t_array(t_uint256)49_storage": {
        "base": "t_uint256",
        "encoding": "inplace",
        "label": "uint256[49]",
        "numberOfBytes": "1568"
      },
      "t_array(t_uint256)50_storage": {
        "base": "t_uint256",
        "encoding": "inplace",
        "label": "uint256[50]",
        "numberOfBytes": "1600"
      },
      "t_bool": {
        "encoding": "inplace",
        "label": "bool",
        "numberOfBytes": "1"
      },
      "t_uint256": {
        "encoding": "inplace",
        "label": "uint256",
        "numberOfBytes": "32"
      },
      "t_uint8": {
        "encoding": "inplace",
        "label": "uint8",
        "numberOfBytes": "1"
      }
    }
  }
}