{
  "address": "0xd87Da73F82abe83915d61342199A4690cfdf4718",
  "abi": [
    {
      "inputs": [],
      "name": "NoRewardRecipient",
      "type": "error"
    },
    {
      "inputs": [],
      "name": "NoSuchSeq",
      "type": "error"
    },
    {
      "inputs": [],
      "name": "NotSeqOwner",
      "type": "error"
    },
    {
      "inputs": [],
      "name": "NotSeqSigner",
      "type": "error"
    },
    {
      "inputs": [],
      "name": "NotWhitelisted",
      "type": "error"
    },
    {
      "inputs": [],
      "name": "NullAddress",
      "type": "error"
    },
    {
      "inputs": [],
      "name": "OwnedSequencer",
      "type": "error"
    },
    {
      "inputs": [],
      "name": "SeqNotActive",
      "type": "error"
    },
    {
      "inputs": [],
      "name": "SignerExisted",
      "type": "error"
    },
    {
      "anonymous": false,
      "inputs": [
        {
          "indexed": true,
          "internalType": "uint256",
          "name": "batchId",
          "type": "uint256"
        },
        {
          "indexed": false,
          "internalType": "uint256",
          "name": "startEpoch",
          "type": "uint256"
        },
        {
          "indexed": false,
          "internalType": "uint256",
          "name": "endEpoch",
          "type": "uint256"
        },
        {
          "indexed": false,
          "internalType": "uint256",
          "name": "amount",
          "type": "uint256"
        },
        {
          "indexed": false,
          "internalType": "uint256",
          "name": "rpb",
          "type": "uint256"
        }
      ],
      "name": "DistributeReward",
      "type": "event"
    },
    {
      "anonymous": false,
      "inputs": [
        {
          "indexed": false,
          "internalType": "uint8",
          "name": "version",
          "type": "uint8"
        }
      ],
      "name": "Initialized",
      "type": "event"
    },
    {
      "anonymous": false,
      "inputs": [
        {
          "indexed": true,
          "internalType": "address",
          "name": "previousOwner",
          "type": "address"
        },
        {
          "indexed": true,
          "internalType": "address",
          "name": "newOwner",
          "type": "address"
        }
      ],
      "name": "OwnershipTransferred",
      "type": "event"
    },
    {
      "anonymous": false,
      "inputs": [
        {
          "indexed": false,
          "internalType": "address",
          "name": "account",
          "type": "address"
        }
      ],
      "name": "Paused",
      "type": "event"
    },
    {
      "anonymous": false,
      "inputs": [
        {
          "indexed": false,
          "internalType": "uint256",
          "name": "newReward",
          "type": "uint256"
        },
        {
          "indexed": false,
          "internalType": "uint256",
          "name": "oldReward",
          "type": "uint256"
        }
      ],
      "name": "RewardUpdate",
      "type": "event"
    },
    {
      "anonymous": false,
      "inputs": [
        {
          "indexed": false,
          "internalType": "uint256",
          "name": "_seqId",
          "type": "uint256"
        },
        {
          "indexed": false,
          "internalType": "address",
          "name": "_owner",
          "type": "address"
        }
      ],
      "name": "SequencerOwnerChanged",
      "type": "event"
    },
    {
      "anonymous": false,
      "inputs": [
        {
          "indexed": false,
          "internalType": "uint256",
          "name": "_seqId",
          "type": "uint256"
        },
        {
          "indexed": false,
          "internalType": "address",
          "name": "_recipient",
          "type": "address"
        }
      ],
      "name": "SequencerRewardRecipientChanged",
      "type": "event"
    },
    {
      "anonymous": false,
      "inputs": [
        {
          "indexed": false,
          "internalType": "uint256",
          "name": "_n",
          "type": "uint256"
        }
      ],
      "name": "SetSignerUpdateThrottle",
      "type": "event"
    },
    {
      "anonymous": false,
      "inputs": [
        {
          "indexed": false,
          "internalType": "address",
          "name": "_user",
          "type": "address"
        },
        {
          "indexed": false,
          "internalType": "bool",
          "name": "_yes",
          "type": "bool"
        }
      ],
      "name": "SetWhitelist",
      "type": "event"
    },
    {
      "anonymous": false,
      "inputs": [
        {
          "indexed": false,
          "internalType": "address",
          "name": "account",
          "type": "address"
        }
      ],
      "name": "Unpaused",
      "type": "event"
    },
    {
      "anonymous": false,
      "inputs": [
        {
          "indexed": false,
          "internalType": "address",
          "name": "_newMpc",
          "type": "address"
        }
      ],
      "name": "UpdateMpc",
      "type": "event"
    },
    {
      "anonymous": false,
      "inputs": [
        {
          "indexed": false,
          "internalType": "uint256",
          "name": "_cur",
          "type": "uint256"
        },
        {
          "indexed": false,
          "internalType": "uint256",
          "name": "_prev",
          "type": "uint256"
        }
      ],
      "name": "WithrawDelayTimeChange",
      "type": "event"
    },
    {
      "inputs": [],
      "name": "BLOCK_REWARD",
      "outputs": [
        {
          "internalType": "uint256",
          "name": "",
          "type": "uint256"
        }
      ],
      "stateMutability": "view",
      "type": "function"
    },
    {
      "inputs": [],
      "name": "WITHDRAWAL_DELAY",
      "outputs": [
        {
          "internalType": "uint256",
          "name": "",
          "type": "uint256"
        }
      ],
      "stateMutability": "view",
      "type": "function"
    },
    {
      "inputs": [
        {
          "internalType": "uint256",
          "name": "_batchId",
          "type": "uint256"
        },
        {
          "internalType": "uint256",
          "name": "_startEpoch",
          "type": "uint256"
        },
        {
          "internalType": "uint256",
          "name": "_endEpoch",
          "type": "uint256"
        },
        {
          "internalType": "address[]",
          "name": "_seqs",
          "type": "address[]"
        },
        {
          "internalType": "uint256[]",
          "name": "_blocks",
          "type": "uint256[]"
        }
      ],
      "name": "batchSubmitRewards",
      "outputs": [],
      "stateMutability": "nonpayable",
      "type": "function"
    },
    {
      "inputs": [],
      "name": "curBatchState",
      "outputs": [
        {
          "internalType": "uint256",
          "name": "id",
          "type": "uint256"
        },
        {
          "internalType": "uint256",
          "name": "number",
          "type": "uint256"
        },
        {
          "internalType": "uint256",
          "name": "startEpoch",
          "type": "uint256"
        },
        {
          "internalType": "uint256",
          "name": "endEpoch",
          "type": "uint256"
        }
      ],
      "stateMutability": "view",
      "type": "function"
    },
    {
      "inputs": [],
      "name": "currentBatch",
      "outputs": [
        {
          "internalType": "uint256",
          "name": "",
          "type": "uint256"
        }
      ],
      "stateMutability": "view",
      "type": "function"
    },
    {
      "inputs": [],
      "name": "escrow",
      "outputs": [
        {
          "internalType": "contract ILockingInfo",
          "name": "",
          "type": "address"
        }
      ],
      "stateMutability": "view",
      "type": "function"
    },
    {
      "inputs": [],
      "name": "exitDelayPeriod",
      "outputs": [
        {
          "internalType": "uint256",
          "name": "",
          "type": "uint256"
        }
      ],
      "stateMutability": "view",
      "type": "function"
    },
    {
      "inputs": [
        {
          "internalType": "uint256",
          "name": "_seqId",
          "type": "uint256"
        },
        {
          "internalType": "uint32",
          "name": "_l2Gas",
          "type": "uint32"
        }
      ],
      "name": "forceUnlock",
      "outputs": [],
      "stateMutability": "payable",
      "type": "function"
    },
    {
      "inputs": [
        {
          "internalType": "address",
          "name": "_escrow",
          "type": "address"
        }
      ],
      "name": "initialize",
      "outputs": [],
      "stateMutability": "nonpayable",
      "type": "function"
    },
    {
      "inputs": [
        {
          "internalType": "address",
          "name": "_signer",
          "type": "address"
        },
        {
          "internalType": "uint256",
          "name": "_amount",
          "type": "uint256"
        },
        {
          "internalType": "bytes",
          "name": "_signerPubkey",
          "type": "bytes"
        }
      ],
      "name": "lockFor",
      "outputs": [],
      "stateMutability": "nonpayable",
      "type": "function"
    },
    {
      "inputs": [
        {
          "internalType": "address",
          "name": "_signer",
          "type": "address"
        },
        {
          "internalType": "address",
          "name": "_rewardRecipient",
          "type": "address"
        },
        {
          "internalType": "uint256",
          "name": "_amount",
          "type": "uint256"
        },
        {
          "internalType": "bytes",
          "name": "_signerPubkey",
          "type": "bytes"
        }
      ],
      "name": "lockWithRewardRecipient",
      "outputs": [],
      "stateMutability": "nonpayable",
      "type": "function"
    },
    {
      "inputs": [],
      "name": "mpcAddress",
      "outputs": [
        {
          "internalType": "address",
          "name": "",
          "type": "address"
        }
      ],
      "stateMutability": "view",
      "type": "function"
    },
    {
      "inputs": [],
      "name": "owner",
      "outputs": [
        {
          "internalType": "address",
          "name": "",
          "type": "address"
        }
      ],
      "stateMutability": "view",
      "type": "function"
    },
    {
      "inputs": [],
      "name": "paused",
      "outputs": [
        {
          "internalType": "bool",
          "name": "",
          "type": "bool"
        }
      ],
      "stateMutability": "view",
      "type": "function"
    },
    {
      "inputs": [
        {
          "internalType": "uint256",
          "name": "_seqId",
          "type": "uint256"
        },
        {
          "internalType": "uint256",
          "name": "_amount",
          "type": "uint256"
        },
        {
          "internalType": "bool",
          "name": "_lockReward",
          "type": "bool"
        }
      ],
      "name": "relock",
      "outputs": [],
      "stateMutability": "nonpayable",
      "type": "function"
    },
    {
      "inputs": [],
      "name": "renounceOwnership",
      "outputs": [],
      "stateMutability": "nonpayable",
      "type": "function"
    },
    {
      "inputs": [],
      "name": "rewardPerBlock",
      "outputs": [
        {
          "internalType": "uint256",
          "name": "",
          "type": "uint256"
        }
      ],
      "stateMutability": "view",
      "type": "function"
    },
    {
      "inputs": [
        {
          "internalType": "address",
          "name": "owner",
          "type": "address"
        }
      ],
      "name": "seqOwners",
      "outputs": [
        {
          "internalType": "uint256",
          "name": "seqId",
          "type": "uint256"
        }
      ],
      "stateMutability": "view",
      "type": "function"
    },
    {
      "inputs": [
        {
          "internalType": "address",
          "name": "signer",
          "type": "address"
        }
      ],
      "name": "seqSigners",
      "outputs": [
        {
          "internalType": "uint256",
          "name": "seqId",
          "type": "uint256"
        }
      ],
      "stateMutability": "view",
      "type": "function"
    },
    {
      "inputs": [
        {
          "internalType": "enum ISequencerInfo.Status",
          "name": "status",
          "type": "uint8"
        }
      ],
      "name": "seqStatuses",
      "outputs": [
        {
          "internalType": "uint256",
          "name": "count",
          "type": "uint256"
        }
      ],
      "stateMutability": "view",
      "type": "function"
    },
    {
      "inputs": [
        {
          "internalType": "uint256",
          "name": "seqId",
          "type": "uint256"
        }
      ],
      "name": "sequencers",
      "outputs": [
        {
          "internalType": "uint256",
          "name": "amount",
          "type": "uint256"
        },
        {
          "internalType": "uint256",
          "name": "reward",
          "type": "uint256"
        },
        {
          "internalType": "uint256",
          "name": "activationBatch",
          "type": "uint256"
        },
        {
          "internalType": "uint256",
          "name": "updatedBatch",
          "type": "uint256"
        },
        {
          "internalType": "uint256",
          "name": "deactivationBatch",
          "type": "uint256"
        },
        {
          "internalType": "uint256",
          "name": "deactivationTime",
          "type": "uint256"
        },
        {
          "internalType": "uint256",
          "name": "unlockClaimTime",
          "type": "uint256"
        },
        {
          "internalType": "uint256",
          "name": "nonce",
          "type": "uint256"
        },
        {
          "internalType": "address",
          "name": "owner",
          "type": "address"
        },
        {
          "internalType": "address",
          "name": "signer",
          "type": "address"
        },
        {
          "internalType": "bytes",
          "name": "pubkey",
          "type": "bytes"
        },
        {
          "internalType": "address",
          "name": "rewardRecipient",
          "type": "address"
        },
        {
          "internalType": "enum ISequencerInfo.Status",
          "name": "status",
          "type": "uint8"
        }
      ],
      "stateMutability": "view",
      "type": "function"
    },
    {
      "inputs": [
        {
          "internalType": "bool",
          "name": "_yes",
          "type": "bool"
        }
      ],
      "name": "setPause",
      "outputs": [],
      "stateMutability": "nonpayable",
      "type": "function"
    },
    {
      "inputs": [
        {
          "internalType": "uint256",
          "name": "_seqId",
          "type": "uint256"
        },
        {
          "internalType": "address",
          "name": "_owner",
          "type": "address"
        }
      ],
      "name": "setSequencerOwner",
      "outputs": [],
      "stateMutability": "nonpayable",
      "type": "function"
    },
    {
      "inputs": [
        {
          "internalType": "uint256",
          "name": "_seqId",
          "type": "uint256"
        },
        {
          "internalType": "address",
          "name": "_recipient",
          "type": "address"
        }
      ],
      "name": "setSequencerRewardRecipient",
      "outputs": [],
      "stateMutability": "nonpayable",
      "type": "function"
    },
    {
      "inputs": [
        {
          "internalType": "uint256",
          "name": "_n",
          "type": "uint256"
        }
      ],
      "name": "setSignerUpdateThrottle",
      "outputs": [],
      "stateMutability": "nonpayable",
      "type": "function"
    },
    {
      "inputs": [
        {
          "internalType": "address",
          "name": "_addr",
          "type": "address"
        },
        {
          "internalType": "bool",
          "name": "_yes",
          "type": "bool"
        }
      ],
      "name": "setWhitelist",
      "outputs": [],
      "stateMutability": "nonpayable",
      "type": "function"
    },
    {
      "inputs": [],
      "name": "signerUpdateThrottle",
      "outputs": [
        {
          "internalType": "uint256",
          "name": "",
          "type": "uint256"
        }
      ],
      "stateMutability": "view",
      "type": "function"
    },
    {
      "inputs": [],
      "name": "totalSequencers",
      "outputs": [
        {
          "internalType": "uint256",
          "name": "",
          "type": "uint256"
        }
      ],
      "stateMutability": "view",
      "type": "function"
    },
    {
      "inputs": [
        {
          "internalType": "address",
          "name": "newOwner",
          "type": "address"
        }
      ],
      "name": "transferOwnership",
      "outputs": [],
      "stateMutability": "nonpayable",
      "type": "function"
    },
    {
      "inputs": [
        {
          "internalType": "uint256",
          "name": "_seqId",
          "type": "uint256"
        },
        {
          "internalType": "uint32",
          "name": "_l2Gas",
          "type": "uint32"
        }
      ],
      "name": "unlock",
      "outputs": [],
      "stateMutability": "payable",
      "type": "function"
    },
    {
      "inputs": [
        {
          "internalType": "uint256",
          "name": "_seqId",
          "type": "uint256"
        },
        {
          "internalType": "uint32",
          "name": "_l2Gas",
          "type": "uint32"
        }
      ],
      "name": "unlockClaim",
      "outputs": [],
      "stateMutability": "payable",
      "type": "function"
    },
    {
      "inputs": [
        {
          "internalType": "uint256",
          "name": "newReward",
          "type": "uint256"
        }
      ],
      "name": "updateBlockReward",
      "outputs": [],
      "stateMutability": "nonpayable",
      "type": "function"
    },
    {
      "inputs": [
        {
          "internalType": "address",
          "name": "_newMpc",
          "type": "address"
        }
      ],
      "name": "updateMpc",
      "outputs": [],
      "stateMutability": "nonpayable",
      "type": "function"
    },
    {
      "inputs": [
        {
          "internalType": "uint256",
          "name": "_seqId",
          "type": "uint256"
        },
        {
          "internalType": "bytes",
          "name": "_signerPubkey",
          "type": "bytes"
        }
      ],
      "name": "updateSigner",
      "outputs": [],
      "stateMutability": "nonpayable",
      "type": "function"
    },
    {
      "inputs": [
        {
          "internalType": "uint256",
          "name": "_time",
          "type": "uint256"
        }
      ],
      "name": "updateWithdrawDelayTimeValue",
      "outputs": [],
      "stateMutability": "nonpayable",
      "type": "function"
    },
    {
      "inputs": [
        {
          "internalType": "address",
          "name": "owner",
          "type": "address"
        }
      ],
      "name": "whitelist",
      "outputs": [
        {
          "internalType": "bool",
          "name": "yes",
          "type": "bool"
        }
      ],
      "stateMutability": "view",
      "type": "function"
    },
    {
      "inputs": [
        {
          "internalType": "uint256",
          "name": "_seqId",
          "type": "uint256"
        },
        {
          "internalType": "uint32",
          "name": "_l2Gas",
          "type": "uint32"
        }
      ],
      "name": "withdrawRewards",
      "outputs": [],
      "stateMutability": "payable",
      "type": "function"
    }
  ],
  "transactionHash": "0xf82c6e7a5bd16aed14b016a61286220326e2e06582ea282f1dd857f97417c849",
  "args": [],
  "numDeployments": 1,
  "solcInputHash": "588944b785db4d35bd633af5a2283e24",
  "bytecode": "0x608060405234801561000f575f80fd5b50612fde8061001d5f395ff3fe60806040526004361061025d575f3560e01c80638ddc74de1161014b578063c4d66de8116100c6578063d83b0e141161007c578063f2fde38b11610062578063f2fde38b14610695578063f41a9642146106b4578063f580ffcb146106d3575f80fd5b8063d83b0e1414610657578063e2fdcc1714610676575f80fd5b8063ca99e838116100ac578063ca99e83814610610578063cc3ab92314610623578063d11d068114610638575f80fd5b8063c4d66de8146105dc578063c65066d4146105fb575f80fd5b8063af70cba51161011b578063beb2675511610101578063beb2675514610573578063bedb86fb1461059e578063bfd6fc3f146105bd575f80fd5b8063af70cba514610512578063b447297014610531575f80fd5b80638ddc74de146104935780639ad42030146104a65780639b19251a146104c5578063a953791f146104f3575f80fd5b80635c975abb116101db57806376cd940e116101ab57806386d203ab1161019157806386d203ab146104365780638ae39cac146104615780638da5cb5b14610476575f80fd5b806376cd940e1461040e5780637f05b9ef14610422575f80fd5b80635c975abb146103805780636ba7ccff146103a3578063715018a6146103db57806371e10cfa146103ef575f80fd5b8063169abefc11610230578063262c0e6611610216578063262c0e66146103395780633478874b1461034c57806353d6fd5914610361575f80fd5b8063169abefc146102fb5780631739668714610326575f80fd5b8063015bb180146102615780630ebb172a14610282578063111f4630146102a557806311c7d144146102dc575b5f80fd5b34801561026c575f80fd5b5061028061027b3660046126be565b6106f2565b005b34801561028d575f80fd5b5060d0545b6040519081526020015b60405180910390f35b3480156102b0575f80fd5b5060d2546102c4906001600160a01b031681565b6040516001600160a01b03909116815260200161029c565b3480156102e7575f80fd5b506102806102f6366004612738565b610875565b348015610306575f80fd5b506102926103153660046127d4565b609a6020525f908152604090205481565b6102806103343660046127f4565b610c0b565b6102806103473660046127f4565b610d78565b348015610357575f80fd5b5061029260d05481565b34801561036c575f80fd5b5061028061037b36600461282a565b610dbe565b34801561038b575f80fd5b5060335460ff165b604051901515815260200161029c565b3480156103ae575f80fd5b506103c26103bd36600461285b565b610e29565b60405161029c9d9c9b9a999897969594939291906128a6565b3480156103e6575f80fd5b50610280610f32565b3480156103fa575f80fd5b5061028061040936600461285b565b610f45565b348015610419575f80fd5b5060d354610292565b34801561042d575f80fd5b5060d154610292565b348015610441575f80fd5b50610292610450366004612978565b609c6020525f908152604090205481565b34801561046c575f80fd5b5061029260d15481565b348015610481575f80fd5b506065546001600160a01b03166102c4565b6102806104a13660046127f4565b610fda565b3480156104b1575f80fd5b506102806104c03660046129d4565b61126d565b3480156104d0575f80fd5b506103936104df3660046127d4565b60986020525f908152604090205460ff1681565b3480156104fe575f80fd5b5061028061050d366004612a3e565b6113af565b34801561051d575f80fd5b5061028061052c366004612a5f565b6114fe565b34801561053c575f80fd5b5060d35460d45460d55460d6546105539392919084565b60408051948552602085019390935291830152606082015260800161029c565b34801561057e575f80fd5b5061029261058d3660046127d4565b609b6020525f908152604090205481565b3480156105a9575f80fd5b506102806105b8366004612ab5565b611636565b3480156105c8575f80fd5b506102806105d736600461285b565b611657565b3480156105e7575f80fd5b506102806105f63660046127d4565b61169b565b348015610606575f80fd5b5061029260d75481565b61028061061e3660046127f4565b611822565b34801561062e575f80fd5b5061029260975481565b348015610643575f80fd5b506102806106523660046127d4565b611836565b348015610662575f80fd5b50610280610671366004612a3e565b61188c565b348015610681575f80fd5b5060cf546102c4906001600160a01b031681565b3480156106a0575f80fd5b506102806106af3660046127d4565b6119bb565b3480156106bf575f80fd5b506102806106ce366004612ace565b611a48565b3480156106de575f80fd5b506102806106ed36600461285b565b611c1a565b6106fa611caf565b335f9081526098602052604090205460ff1661072957604051630b094f2760e31b815260040160405180910390fd5b5f8381526099602052604090206002600b820154600160a01b900460ff16600381111561075857610758612872565b146107765760405163c494657160e01b815260040160405180910390fd5b60088101546001600160a01b031633146107a35760405163a91da8ff60e01b815260040160405180910390fd5b5f82156107b657506001810180545f9091555b5f8185845f01546107c79190612b2a565b6107d19190612b2a565b90505f836007015460016107e59190612b2a565b6007850181905582855560cf546040516309a12e3b60e21b8152600481018a905260248101839052336044820152606481018590526084810189905260a481018690529192506001600160a01b031690632684b8ec9060c4015b5f604051808303815f87803b158015610856575f80fd5b505af1158015610868573d5f803e3d5ffd5b5050505050505050505050565b60d2546001600160a01b031633146108d45760405162461bcd60e51b815260206004820152600760248201527f6e6f74204d50430000000000000000000000000000000000000000000000000060448201526064015b60405180910390fd5b82811480156108e257508215155b61092e5760405162461bcd60e51b815260206004820152600f60248201527f6d69736d61746368206c656e677468000000000000000000000000000000000060448201526064016108cb565b60d380545f9061093f906001612b2a565b90508881146109905760405162461bcd60e51b815260206004820152601060248201527f696e76616c69642062617463682069640000000000000000000000000000000060448201526064016108cb565b808255600382015488906109a5906001612b2a565b146109f25760405162461bcd60e51b815260206004820152601260248201527f696e76616c696420737461727445706f6368000000000000000000000000000060448201526064016108cb565b868810610a415760405162461bcd60e51b815260206004820152601060248201527f696e76616c696420656e6445706f63680000000000000000000000000000000060448201526064016108cb565b60d1545f805b87811015610b3f575f83888884818110610a6357610a63612b3d565b90506020020135610a749190612b51565b90505f609b5f8c8c86818110610a8c57610a8c612b3d565b9050602002016020810190610aa191906127d4565b6001600160a01b0316815260208082019290925260409081015f908120548082526099909352908120919250600b820154600160a01b900460ff166003811115610aed57610aed612872565b03610b0b576040516317876d5f60e11b815260040160405180910390fd5b82816001015f828254610b1e9190612b2a565b90915550610b2e90508386612b2a565b94505060019092019150610a479050565b50436001850155600284018a90556003840189905560cf546040516338ef349f60e21b8152600481018d9052602481018390526001600160a01b039091169063e3bcd27c906044015f604051808303815f87803b158015610b9e575f80fd5b505af1158015610bb0573d5f803e3d5ffd5b5050604080518d8152602081018d9052908101849052606081018590528d92507f57f14bf0f24025b2c737413d121021e1a6ede039533e1215eda6f20002baf0a1915060800160405180910390a25050505050505050505050565b610c13611caf565b335f9081526098602052604090205460ff16610c4257604051630b094f2760e31b815260040160405180910390fd5b5f8281526099602052604090206002600b820154600160a01b900460ff166003811115610c7157610c71612872565b14610c8f5760405163c494657160e01b815260040160405180910390fd5b60088101546001600160a01b03163314610cbc5760405163a91da8ff60e01b815260040160405180910390fd5b600b8101546001600160a01b031680610ce85760405163313f077360e21b815260040160405180910390fd5b60018201548015610d71575f600184015560cf54604051630baf0f1560e31b815260048101879052602481018390526001600160a01b03848116604483015263ffffffff8716606483015290911690635d7878a89034906084015f604051808303818588803b158015610d59575f80fd5b505af1158015610d6b573d5f803e3d5ffd5b50505050505b5050505050565b610d80611caf565b335f9081526098602052604090205460ff16610daf57604051630b094f2760e31b815260040160405180910390fd5b610dba825f83611d02565b5050565b610dc6611f59565b6001600160a01b0382165f81815260986020908152604091829020805460ff19168515159081179091558251938452908301527ff6019ec0a78d156d249a1ec7579e2321f6ac7521d6e1d2eacf90ba4a184dcceb91015b60405180910390a15050565b60996020525f9081526040902080546001820154600283015460038401546004850154600586015460068701546007880154600889015460098a0154600a8b0180549a9b999a9899979896979596949593946001600160a01b03938416949290931692610e9590612b68565b80601f0160208091040260200160405190810160405280929190818152602001828054610ec190612b68565b8015610f0c5780601f10610ee357610100808354040283529160200191610f0c565b820191905f5260205f20905b815481529060010190602001808311610eef57829003601f168201915b505050600b90930154919250506001600160a01b0381169060ff600160a01b909104168d565b610f3a611f59565b610f435f611fb3565b565b610f4d611f59565b5f8111610f9c5760405162461bcd60e51b815260206004820152600c60248201527f64616c617954696d653d3d30000000000000000000000000000000000000000060448201526064016108cb565b60d080549082905560408051838152602081018390527f08cb0bf599c925a6240976039d9d4d3201d88d2ba83703b890049356cdbb67e69101610e1d565b610fe2611caf565b335f9081526098602052604090205460ff1661101157604051630b094f2760e31b815260040160405180910390fd5b5f82815260996020526040902060088101546001600160a01b0316331461104b5760405163a91da8ff60e01b815260040160405180910390fd5b600b8101546001600160a01b0316806110775760405163313f077360e21b815260040160405180910390fd5b6001600b830154600160a01b900460ff16600381111561109957611099612872565b1480156110aa575042826006015411155b6110f65760405162461bcd60e51b815260206004820152601460248201527f4e6f7420616c6c6f77656420746f20636c69616d00000000000000000000000060448201526064016108cb565b81546001830180545f80865591829055600785018054919261111783612ba0565b9091555050600b8401805460ff60a01b19167403000000000000000000000000000000000000000017905560015f908152609c6020527f759fbb3c7535ea6cd791a268d7e54d5bf43408007315741bf51b70650b77f6a580549161117a83612bb8565b909155505060035f908152609c6020527fa166308694002ada49a080be065b41ffb107f08c6cd338f4ec60e54116d066b78054916111b783612ba0565b909155505060088401546001600160a01b039081165f908152609a6020526040812055600985015461120091166001600160a01b03165f908152609b602052604090205f199055565b60cf54604051632947689560e11b81523360048201526024810188905260448101849052606481018390526001600160a01b03858116608483015263ffffffff881660a48301529091169063528ed12a90349060c4015f604051808303818588803b158015610856575f80fd5b611275611caf565b335f9081526098602052604090205460ff166112a457604051630b094f2760e31b815260040160405180910390fd5b60d354335f6112b883838a88888b8d612004565b60cf54604051631badded560e01b81529192506001600160a01b031690631badded5906112f590849086908d908c908a908d908d90600401612bf5565b5f604051808303815f87803b15801561130c575f80fd5b505af115801561131e573d5f803e3d5ffd5b5050604080518481526001600160a01b03861660208201527f4078101d3657bf2f1ee46f64d5c94266d244d71bb0daa460336d3d6f11c9a4ac935001905060405180910390a1604080518281526001600160a01b03891660208201527f357bb123cabaf224688e3d8de5feb37d685dc3a27012a7bce1201c49bc369cb6910160405180910390a15050505050505050565b335f9081526098602052604090205460ff166113de57604051630b094f2760e31b815260040160405180910390fd5b6001600160a01b0381166114055760405163e99d5ac560e01b815260040160405180910390fd5b5f8281526099602052604090206002600b820154600160a01b900460ff16600381111561143457611434612872565b146114525760405163c494657160e01b815260040160405180910390fd5b60088101546001600160a01b03163381146114805760405163a91da8ff60e01b815260040160405180910390fd5b6008820180546001600160a01b0319166001600160a01b038581169182179092559082165f908152609a60209081526040808320839055838352918290208790558151878152908101929092527f4078101d3657bf2f1ee46f64d5c94266d244d71bb0daa460336d3d6f11c9a4ac910160405180910390a150505050565b611506611caf565b335f9081526098602052604090205460ff1661153557604051630b094f2760e31b815260040160405180910390fd5b60d354335f61154983838988888b87612004565b60cf54604051631badded560e01b81529192506001600160a01b031690631badded59061158690849086908c908c908a908d908d90600401612bf5565b5f604051808303815f87803b15801561159d575f80fd5b505af11580156115af573d5f803e3d5ffd5b5050604080518481526001600160a01b03861660208201527f4078101d3657bf2f1ee46f64d5c94266d244d71bb0daa460336d3d6f11c9a4ac935001905060405180910390a1604080518281525f60208201527f357bb123cabaf224688e3d8de5feb37d685dc3a27012a7bce1201c49bc369cb6910160405180910390a150505050505050565b61163e611f59565b801561164f5761164c612329565b50565b61164c612383565b61165f611f59565b60d78190556040518181527fe58685f6b78e6d567d2ed9d7c5efb779c4cd91c63c76763a0e3204a5671f4705906020015b60405180910390a150565b5f54610100900460ff16158080156116b957505f54600160ff909116105b806116d25750303b1580156116d257505f5460ff166001145b6117445760405162461bcd60e51b815260206004820152602e60248201527f496e697469616c697a61626c653a20636f6e747261637420697320616c72656160448201527f647920696e697469616c697a656400000000000000000000000000000000000060648201526084016108cb565b5f805460ff191660011790558015611765575f805461ff0019166101001790555b621baf8060d0556602b4201eac900060d15560408051608081018252600180825243602083018190525f938301849052606090920183905260d381905560d49190915560d582905560d69190915560cf80546001600160a01b0319166001600160a01b03851617905560d7556117d96123bc565b6117e161242e565b8015610dba575f805461ff0019169055604051600181527f7f26b83ff96e1f2b6a682f133852f6798a09c465da95921460cefb384740249890602001610e1d565b61182a611f59565b610dba82600183611d02565b61183e611f59565b60d280546001600160a01b0319166001600160a01b0383169081179091556040519081527fc6759872346bc2093e270f2fa00d99d7bcdde60a410a3e9956b34196d42fee7690602001611690565b335f9081526098602052604090205460ff166118bb57604051630b094f2760e31b815260040160405180910390fd5b5f82815260996020526040902060088101546001600160a01b031633146118f55760405163a91da8ff60e01b815260040160405180910390fd5b6002600b820154600160a01b900460ff16600381111561191757611917612872565b146119355760405163c494657160e01b815260040160405180910390fd5b6001600160a01b03821661195c5760405163e99d5ac560e01b815260040160405180910390fd5b600b810180546001600160a01b0319166001600160a01b0384169081179091556040805185815260208101929092527f357bb123cabaf224688e3d8de5feb37d685dc3a27012a7bce1201c49bc369cb6910160405180910390a1505050565b6119c3611f59565b6001600160a01b038116611a3f5760405162461bcd60e51b815260206004820152602660248201527f4f776e61626c653a206e6577206f776e657220697320746865207a65726f206160448201527f646472657373000000000000000000000000000000000000000000000000000060648201526084016108cb565b61164c81611fb3565b611a50611caf565b5f8381526099602052604090206002600b820154600160a01b900460ff166003811115611a7f57611a7f612872565b14611a9d5760405163c494657160e01b815260040160405180910390fd5b60098101546001600160a01b0316338114611acb57604051636b95264b60e01b815260040160405180910390fd5b60d7548260030154611add9190612b2a565b60d3541015611b2e5760405162461bcd60e51b815260206004820152601860248201527f7369676e6572207570646174696e67207468726f74746c65000000000000000060448201526064016108cb565b5f611b398585612436565b6001600160a01b0381165f908152609b602052604090205490915015611b725760405163b5013d2b60e01b815260040160405180910390fd5b600a8301611b81858783612c9d565b506009830180546001600160a01b0319166001600160a01b038381169182179092555f908152609b60205260408082208990559184168152205f19905560d354600384015560078301545f90611bd8906001612b2a565b6007850181905560cf546040516359942b8160e11b81529192506001600160a01b03169063b32857029061083f908a908790879087908d908d90600401612d57565b611c22611f59565b805f03611c715760405162461bcd60e51b815260206004820152601160248201527f696e76616c6964206e657752657761726400000000000000000000000000000060448201526064016108cb565b60d180549082905560408051838152602081018390527ff67f33e8589d3ea0356303c0f9a8e764873692159f777ff79e4fc523d389dfcd9101610e1d565b60335460ff1615610f435760405162461bcd60e51b815260206004820152601060248201527f5061757361626c653a207061757365640000000000000000000000000000000060448201526064016108cb565b5f8381526099602052604090206002600b820154600160a01b900460ff166003811115611d3157611d31612872565b14611d4f5760405163c494657160e01b815260040160405180910390fd5b60025f908152609c6020527f75de1d63ccf63b1f38d98add9d8551d4b8314484fe5658df70a18f2499ec4fb480548290611d8890612bb8565b918290555060015f908152609c6020527f759fbb3c7535ea6cd791a268d7e54d5bf43408007315741bf51b70650b77f6a5805492935090918290611dcb90612ba0565b9182905550905084611e675760088301546001600160a01b03163314611e045760405163a91da8ff60e01b815260040160405180910390fd5b611e0e8183612b2a565b611e19826003612b51565b1115611e675760405162461bcd60e51b815260206004820152600f60248201527f424654207265737472696374696f6e000000000000000000000000000000000060448201526064016108cb565b600b8301546001600160a01b031680611e935760405163313f077360e21b815260040160405180910390fd5b600b8401805460ff60a01b1916600160a01b17905560d3546004850155426005850181905560d054611ec491612b2a565b6006850155600784018054905f611eda83612ba0565b90915550506001840180545f90915560cf54604051630890c1a760e21b81526001600160a01b0390911690632243069c903490611f21908c9086908c908c90600401612e14565b5f604051808303818588803b158015611f38575f80fd5b505af1158015611f4a573d5f803e3d5ffd5b50505050505050505050505050565b6065546001600160a01b03163314610f435760405162461bcd60e51b815260206004820181905260248201527f4f776e61626c653a2063616c6c6572206973206e6f7420746865206f776e657260448201526064016108cb565b606580546001600160a01b038381166001600160a01b0319831681179093556040519116919082907f8be0079c531659141344cd1fd0a4f28419497f9722a3daafe3b4186f6b6457e0905f90a35050565b5f856001600160a01b03166120198686612436565b6001600160a01b03161461206f5760405162461bcd60e51b815260206004820152601b60248201527f7075626b657920616e642061646472657373206d69736d61746368000000000060448201526064016108cb565b6001600160a01b0387165f908152609a6020526040902054156120a557604051631387ecef60e21b815260040160405180910390fd5b6001600160a01b0386165f908152609b6020526040902054156120db5760405163b5013d2b60e01b815260040160405180910390fd5b6097546120e9816001612b2a565b6001600160a01b038981165f908152609a60209081526040808320859055928b168252609b815291812083905560028152609c9091527f75de1d63ccf63b1f38d98add9d8551d4b8314484fe5658df70a18f2499ec4fb480549294509061214f83612ba0565b919050555081609781905550604051806101a001604052808581526020015f81526020018a81526020018a81526020015f81526020015f81526020015f815260200160018152602001896001600160a01b03168152602001886001600160a01b0316815260200187878080601f0160208091040260200160405190810160405280939291908181526020018383808284375f920191909152505050908252506001600160a01b0385166020820152604001600290525f8381526099602090815260409182902083518155908301516001820155908201516002820155606082015160038201556080820151600482015560a0820151600582015560c0820151600682015560e082015160078201556101008201516008820180546001600160a01b039283166001600160a01b031991821617909155610120840151600984018054919093169116179055610140820151600a8201906122ae9082612f02565b50610160820151600b820180546001600160a01b039092166001600160a01b0319831681178255610180850151927fffffffffffffffffffffff0000000000000000000000000000000000000000001617600160a01b83600381111561231657612316612872565b0217905550505050979650505050505050565b612331611caf565b6033805460ff191660011790557f62e78cea01bee320cd4e420270b5ea74000d11b0c9f74754ebdbfc544b05a2586123663390565b6040516001600160a01b03909116815260200160405180910390a1565b61238b612502565b6033805460ff191690557f5db9ee0a495bf2e6ff9c91a7834c1ba4fdd244a5e8aa4e537bd38aeae4b073aa33612366565b5f54610100900460ff166124265760405162461bcd60e51b815260206004820152602b60248201527f496e697469616c697a61626c653a20636f6e7472616374206973206e6f74206960448201526a6e697469616c697a696e6760a81b60648201526084016108cb565b610f43612554565b610f436125ca565b5f604082146124875760405162461bcd60e51b815260206004820152600e60248201527f696e76616c6964207075626b657900000000000000000000000000000000000060448201526064016108cb565b5f8383604051612498929190612fc2565b60405190819003902090506001600160a01b0381166124f95760405162461bcd60e51b815260206004820152600d60248201527f656d70747920616464726573730000000000000000000000000000000000000060448201526064016108cb565b90505b92915050565b60335460ff16610f435760405162461bcd60e51b815260206004820152601460248201527f5061757361626c653a206e6f742070617573656400000000000000000000000060448201526064016108cb565b5f54610100900460ff166125be5760405162461bcd60e51b815260206004820152602b60248201527f496e697469616c697a61626c653a20636f6e7472616374206973206e6f74206960448201526a6e697469616c697a696e6760a81b60648201526084016108cb565b6033805460ff19169055565b5f54610100900460ff166126345760405162461bcd60e51b815260206004820152602b60248201527f496e697469616c697a61626c653a20636f6e7472616374206973206e6f74206960448201526a6e697469616c697a696e6760a81b60648201526084016108cb565b610f435f54610100900460ff166126a15760405162461bcd60e51b815260206004820152602b60248201527f496e697469616c697a61626c653a20636f6e7472616374206973206e6f74206960448201526a6e697469616c697a696e6760a81b60648201526084016108cb565b610f4333611fb3565b803580151581146126b9575f80fd5b919050565b5f805f606084860312156126d0575f80fd5b83359250602084013591506126e7604085016126aa565b90509250925092565b5f8083601f840112612700575f80fd5b50813567ffffffffffffffff811115612717575f80fd5b6020830191508360208260051b8501011115612731575f80fd5b9250929050565b5f805f805f805f60a0888a03121561274e575f80fd5b873596506020880135955060408801359450606088013567ffffffffffffffff8082111561277a575f80fd5b6127868b838c016126f0565b909650945060808a013591508082111561279e575f80fd5b506127ab8a828b016126f0565b989b979a50959850939692959293505050565b80356001600160a01b03811681146126b9575f80fd5b5f602082840312156127e4575f80fd5b6127ed826127be565b9392505050565b5f8060408385031215612805575f80fd5b82359150602083013563ffffffff8116811461281f575f80fd5b809150509250929050565b5f806040838503121561283b575f80fd5b612844836127be565b9150612852602084016126aa565b90509250929050565b5f6020828403121561286b575f80fd5b5035919050565b634e487b7160e01b5f52602160045260245ffd5b600481106128a257634e487b7160e01b5f52602160045260245ffd5b9052565b5f6101a08f835260208f60208501528e60408501528d60608501528c60808501528b60a08501528a60c08501528960e08501526001600160a01b03808a166101008601528089166101208601525081610140850152865180838601525f92505b80831015612925578783018201518584016101c0015291810191612906565b6101c092505f83828701015282601f19601f83011686010193505050506129586101608301856001600160a01b03169052565b612966610180830184612886565b9e9d5050505050505050505050505050565b5f60208284031215612988575f80fd5b8135600481106124f9575f80fd5b5f8083601f8401126129a6575f80fd5b50813567ffffffffffffffff8111156129bd575f80fd5b602083019150836020828501011115612731575f80fd5b5f805f805f608086880312156129e8575f80fd5b6129f1866127be565b94506129ff602087016127be565b935060408601359250606086013567ffffffffffffffff811115612a21575f80fd5b612a2d88828901612996565b969995985093965092949392505050565b5f8060408385031215612a4f575f80fd5b82359150612852602084016127be565b5f805f8060608587031215612a72575f80fd5b612a7b856127be565b935060208501359250604085013567ffffffffffffffff811115612a9d575f80fd5b612aa987828801612996565b95989497509550505050565b5f60208284031215612ac5575f80fd5b6127ed826126aa565b5f805f60408486031215612ae0575f80fd5b83359250602084013567ffffffffffffffff811115612afd575f80fd5b612b0986828701612996565b9497909650939450505050565b634e487b7160e01b5f52601160045260245ffd5b808201808211156124fc576124fc612b16565b634e487b7160e01b5f52603260045260245ffd5b80820281158282048414176124fc576124fc612b16565b600181811c90821680612b7c57607f821691505b602082108103612b9a57634e487b7160e01b5f52602260045260245ffd5b50919050565b5f60018201612bb157612bb1612b16565b5060010190565b5f81612bc657612bc6612b16565b505f190190565b81835281816020850137505f828201602090810191909152601f909101601f19169091010190565b8781525f6001600160a01b03808916602084015280881660408401525085606083015284608083015260c060a0830152612c3360c083018486612bcd565b9998505050505050505050565b634e487b7160e01b5f52604160045260245ffd5b601f821115612c9857805f5260205f20601f840160051c81016020851015612c795750805b601f840160051c820191505b81811015610d71575f8155600101612c85565b505050565b67ffffffffffffffff831115612cb557612cb5612c40565b612cc983612cc38354612b68565b83612c54565b5f601f841160018114612cfa575f8515612ce35750838201355b5f19600387901b1c1916600186901b178355610d71565b5f83815260208120601f198716915b82811015612d295786850135825560209485019460019092019101612d09565b5086821015612d45575f1960f88860031b161c19848701351681555b505060018560011b0183555050505050565b8681525f6001600160a01b03808816602084015280871660408401525084606083015260a06080830152612d8f60a083018486612bcd565b98975050505050505050565b5f8154612da781612b68565b808552602060018381168015612dc45760018114612dde57612e09565b60ff1985168884015283151560051b880183019550612e09565b865f52825f205f5b85811015612e015781548a8201860152908301908401612de6565b890184019650505b505050505092915050565b84815283602082015263ffffffff831660408201526080606082015281546080820152600182015460a0820152600282015460c0820152600382015460e082015260048201546101008201526005820154610120820152600682015461014082015260078201546101608201525f612e9660088401546001600160a01b031690565b6001600160a01b039081166101808401526009840154166101a08084018290526101c084015250612ece6102208301600a8501612d9b565b600b8401546001600160a01b0381166101e0850152612ef7610200850160ff8360a01c16612886565b509695505050505050565b815167ffffffffffffffff811115612f1c57612f1c612c40565b612f3081612f2a8454612b68565b84612c54565b602080601f831160018114612f63575f8415612f4c5750858301515b5f19600386901b1c1916600185901b178555612fba565b5f85815260208120601f198616915b82811015612f9157888601518255948401946001909101908401612f72565b5085821015612fae57878501515f19600388901b60f8161c191681555b505060018460011b0185555b505050505050565b818382375f910190815291905056fea164736f6c6343000818000a",
  "devdoc": {
    "events": {
      "DistributeReward(uint256,uint256,uint256,uint256,uint256)": {
        "details": "Emitted when rewards are distributed",
        "params": {
          "amount": "the total that distributed",
          "batchId": "the current batch id",
          "endEpoch": "end epoch number",
          "rpb": "the current reward per block",
          "startEpoch": "start epoch number"
        }
      },
      "Initialized(uint8)": {
        "details": "Triggered when the contract has been initialized or reinitialized."
      },
      "Paused(address)": {
        "details": "Emitted when the pause is triggered by `account`."
      },
      "RewardUpdate(uint256,uint256)": {
        "details": "Emitted when the proxy update threshold in 'updateBlockReward()'.      Note from maintainer:      for compatibility, this ambiguous event is retained",
        "params": {
          "newReward": "new block reward",
          "oldReward": "old block reward"
        }
      },
      "SequencerOwnerChanged(uint256,address)": {
        "details": "Emitted when sequencer owner is changed",
        "params": {
          "_owner": "the sequencer owner",
          "_seqId": "the sequencerId"
        }
      },
      "SequencerRewardRecipientChanged(uint256,address)": {
        "details": "Emitted when reward recipient address update in 'setSequencerRewardRecipient'",
        "params": {
          "_recipient": "the address receive reward token",
          "_seqId": "the sequencerId"
        }
      },
      "SetSignerUpdateThrottle(uint256)": {
        "details": "Emitted when SignerUpdateThrottle is updated",
        "params": {
          "_n": "new min value"
        }
      },
      "SetWhitelist(address,bool)": {
        "details": "Emitted if owner call 'setWhitelist'",
        "params": {
          "_user": "the address who can lock token",
          "_yes": "white address state"
        }
      },
      "Unpaused(address)": {
        "details": "Emitted when the pause is lifted by `account`."
      },
      "UpdateMpc(address)": {
        "details": "Emitted when mpc address update in 'UpdateMpc'",
        "params": {
          "_newMpc": "new min lock."
        }
      },
      "WithrawDelayTimeChange(uint256,uint256)": {
        "details": "Emitted when WITHDRAWAL_DELAY is updated.",
        "params": {
          "_cur": "current withdraw delay time",
          "_prev": "previours withdraw delay time"
        }
      }
    },
    "kind": "dev",
    "methods": {
      "BLOCK_REWARD()": {
        "details": "BLOCK_REWARD returns the current reward per block      just for compatibility, this ambiguous func is added"
      },
      "WITHDRAWAL_DELAY()": {
        "details": "WITHDRAWAL_DELAY returns the period      just for compatibility, this ambiguous func is added"
      },
      "batchSubmitRewards(uint256,uint256,uint256,address[],uint256[])": {
        "details": "batchSubmitRewards Allow to submit L2 sequencer block information, and attach Metis reward tokens for reward distribution",
        "params": {
          "_batchId": "The batchId that submitted the reward is that",
          "_blocks": "How many blocks each sequencer finished.",
          "_endEpoch": "The endEpoch that submitted the reward is that",
          "_seqs": "Those sequencers can receive rewards",
          "_startEpoch": "The startEpoch that submitted the reward is that"
        }
      },
      "currentBatch()": {
        "details": "currentBatch returns current batch id"
      },
      "forceUnlock(uint256,uint32)": {
        "details": "forceUnlock Allow owner to force a sequencer node to exit",
        "params": {
          "_l2Gas": "l2 gas limit, see above for the detail",
          "_seqId": "the sequencer id"
        }
      },
      "lockFor(address,uint256,bytes)": {
        "details": "lockFor lock Metis and participate in the sequencer node      the msg.sender will be owner of the sequencer      the owner has abilities to leverage lock/relock/unlock/cliam      **Note**: the locking amount will be trasnfered from msg.sender      and you need to approve the Metis of msg.sender to **LockingInfo** contract      instead of this LockingPool contract      the default reward recipient is an empty address      you need to update it using setSequencerRewardRecipient afterward",
        "params": {
          "_amount": "Amount of L1 metis token to lock for.",
          "_signer": "Sequencer signer address",
          "_signerPubkey": "Sequencer signer pubkey, it should be uncompressed"
        }
      },
      "lockWithRewardRecipient(address,address,uint256,bytes)": {
        "details": "lockWithRewardRecipient is the same with lockFor, but you can provide a reward receipent",
        "params": {
          "_amount": "Amount of L1 metis token to lock for.",
          "_rewardRecipient": "Sequencer reward receiptent        you can use an empty address if you haven't choosed an address        and update it using `setSequencerRewardRecipient` after then",
          "_signer": "Sequencer signer address",
          "_signerPubkey": "Sequencer signer pubkey         it should be uncompressed and matched with signer address"
        }
      },
      "owner()": {
        "details": "Returns the address of the current owner."
      },
      "paused()": {
        "details": "Returns true if the contract is paused, and false otherwise."
      },
      "relock(uint256,uint256,bool)": {
        "details": "relock allow sequencer operator to increase the amount of locked positions",
        "params": {
          "_amount": "amount of token to relock, it can be 0 if you want to relock your rewrad",
          "_lockReward": "use true if lock the current rewards",
          "_seqId": "the id of your sequencer"
        }
      },
      "renounceOwnership()": {
        "details": "Leaves the contract without owner. It will not be possible to call `onlyOwner` functions. Can only be called by the current owner. NOTE: Renouncing ownership will leave the contract without an owner, thereby disabling any functionality that is only available to the owner."
      },
      "setPause(bool)": {
        "details": "setPause",
        "params": {
          "_yes": "pause or not"
        }
      },
      "setSequencerOwner(uint256,address)": {
        "details": "setSequencerOwner update sequencer owner",
        "params": {
          "_owner": "the new owner",
          "_seqId": "The sequencerId"
        }
      },
      "setSequencerRewardRecipient(uint256,address)": {
        "details": "setSequencerRewardRecipient Allow sequencer owner to set a reward recipient",
        "params": {
          "_recipient": "Who will receive the reward token",
          "_seqId": "The sequencerId"
        }
      },
      "setSignerUpdateThrottle(uint256)": {
        "details": "setSignerUpdateThrottle  set signerUpdateThrottle",
        "params": {
          "_n": "the new value of the throttle, it can be 0"
        }
      },
      "setWhitelist(address,bool)": {
        "details": "setWhitelist Allow owner to update white address list",
        "params": {
          "_addr": "the address who can lock token",
          "_yes": "white address state"
        }
      },
      "transferOwnership(address)": {
        "details": "Transfers ownership of the contract to a new account (`newOwner`). Can only be called by the current owner."
      },
      "unlock(uint256,uint32)": {
        "details": "unlock your metis and exit the sequencer node      the reward will be arrived by L1Bridge first      and you need to wait the exit period and call      unlockClaim to cliam your locked token",
        "params": {
          "_l2Gas": "the L2 gas limit for L1Bridge.       the reward is distributed by bridge       so you need to pay the ETH as the bridge fee",
          "_seqId": "sequencer id"
        }
      },
      "unlockClaim(uint256,uint32)": {
        "details": "unlockClaim claim your locked tokens after the waiting period is passed      l2 fee is required if you have unclaimed reward",
        "params": {
          "_l2Gas": "l2 gas limit",
          "_seqId": "sequencer id"
        }
      },
      "updateBlockReward(uint256)": {
        "details": "updateBlockReward  Allow owner to set per block reward",
        "params": {
          "newReward": "the block reward"
        }
      },
      "updateMpc(address)": {
        "details": "updateMpc update the mpc address",
        "params": {
          "_newMpc": "new mpc address"
        }
      },
      "updateSigner(uint256,bytes)": {
        "details": "updateSigner sqeuencer signer can update signer address      Note: only signer can use this, the sequencer owner doesn't have access",
        "params": {
          "_seqId": "the sequencer id",
          "_signerPubkey": "the new signer pubkey address"
        }
      },
      "updateWithdrawDelayTimeValue(uint256)": {
        "details": "updateWithdrawDelayTimeValue Allow owner to set withdraw delay time.",
        "params": {
          "_time": "new withdraw delay time"
        }
      },
      "withdrawRewards(uint256,uint32)": {
        "details": "withdrawRewards withdraw current rewards      l2 fee is required",
        "params": {
          "_l2Gas": "bridge reward to L2 gasLimit",
          "_seqId": "unique integer to identify a sequencer."
        }
      }
    },
    "version": 1
  },
  "userdoc": {
    "kind": "user",
    "methods": {},
    "version": 1
  },
  "storageLayout": {
    "storage": [
      {
        "astId": 139,
        "contract": "contracts/LockingPool.sol:LockingPool",
        "label": "_initialized",
        "offset": 0,
        "slot": "0",
        "type": "t_uint8"
      },
      {
        "astId": 142,
        "contract": "contracts/LockingPool.sol:LockingPool",
        "label": "_initializing",
        "offset": 1,
        "slot": "0",
        "type": "t_bool"
      },
      {
        "astId": 809,
        "contract": "contracts/LockingPool.sol:LockingPool",
        "label": "__gap",
        "offset": 0,
        "slot": "1",
        "type": "t_array(t_uint256)50_storage"
      },
      {
        "astId": 323,
        "contract": "contracts/LockingPool.sol:LockingPool",
        "label": "_paused",
        "offset": 0,
        "slot": "51",
        "type": "t_bool"
      },
      {
        "astId": 428,
        "contract": "contracts/LockingPool.sol:LockingPool",
        "label": "__gap",
        "offset": 0,
        "slot": "52",
        "type": "t_array(t_uint256)49_storage"
      },
      {
        "astId": 11,
        "contract": "contracts/LockingPool.sol:LockingPool",
        "label": "_owner",
        "offset": 0,
        "slot": "101",
        "type": "t_address"
      },
      {
        "astId": 131,
        "contract": "contracts/LockingPool.sol:LockingPool",
        "label": "__gap",
        "offset": 0,
        "slot": "102",
        "type": "t_array(t_uint256)49_storage"
      },
      {
        "astId": 1962,
        "contract": "contracts/LockingPool.sol:LockingPool",
        "label": "totalSequencers",
        "offset": 0,
        "slot": "151",
        "type": "t_uint256"
      },
      {
        "astId": 1966,
        "contract": "contracts/LockingPool.sol:LockingPool",
        "label": "whitelist",
        "offset": 0,
        "slot": "152",
        "type": "t_mapping(t_address,t_bool)"
      },
      {
        "astId": 1971,
        "contract": "contracts/LockingPool.sol:LockingPool",
        "label": "sequencers",
        "offset": 0,
        "slot": "153",
        "type": "t_mapping(t_uint256,t_struct(Sequencer)2623_storage)"
      },
      {
        "astId": 1975,
        "contract": "contracts/LockingPool.sol:LockingPool",
        "label": "seqOwners",
        "offset": 0,
        "slot": "154",
        "type": "t_mapping(t_address,t_uint256)"
      },
      {
        "astId": 1979,
        "contract": "contracts/LockingPool.sol:LockingPool",
        "label": "seqSigners",
        "offset": 0,
        "slot": "155",
        "type": "t_mapping(t_address,t_uint256)"
      },
      {
        "astId": 1984,
        "contract": "contracts/LockingPool.sol:LockingPool",
        "label": "seqStatuses",
        "offset": 0,
        "slot": "156",
        "type": "t_mapping(t_enum(Status)2595,t_uint256)"
      },
      {
        "astId": 2329,
        "contract": "contracts/LockingPool.sol:LockingPool",
        "label": "__gap",
        "offset": 0,
        "slot": "157",
        "type": "t_array(t_uint256)50_storage"
      },
      {
        "astId": 838,
        "contract": "contracts/LockingPool.sol:LockingPool",
        "label": "escrow",
        "offset": 0,
        "slot": "207",
        "type": "t_contract(ILockingInfo)2530"
      },
      {
        "astId": 840,
        "contract": "contracts/LockingPool.sol:LockingPool",
        "label": "exitDelayPeriod",
        "offset": 0,
        "slot": "208",
        "type": "t_uint256"
      },
      {
        "astId": 842,
        "contract": "contracts/LockingPool.sol:LockingPool",
        "label": "rewardPerBlock",
        "offset": 0,
        "slot": "209",
        "type": "t_uint256"
      },
      {
        "astId": 844,
        "contract": "contracts/LockingPool.sol:LockingPool",
        "label": "mpcAddress",
        "offset": 0,
        "slot": "210",
        "type": "t_address"
      },
      {
        "astId": 847,
        "contract": "contracts/LockingPool.sol:LockingPool",
        "label": "curBatchState",
        "offset": 0,
        "slot": "211",
        "type": "t_struct(BatchState)835_storage"
      },
      {
        "astId": 849,
        "contract": "contracts/LockingPool.sol:LockingPool",
        "label": "signerUpdateThrottle",
        "offset": 0,
        "slot": "215",
        "type": "t_uint256"
      }
    ],
    "types": {
      "t_address": {
        "encoding": "inplace",
        "label": "address",
        "numberOfBytes": "20"
      },
      "t_array(t_uint256)49_storage": {
        "base": "t_uint256",
        "encoding": "inplace",
        "label": "uint256[49]",
        "numberOfBytes": "1568"
      },
      "t_array(t_uint256)50_storage": {
        "base": "t_uint256",
        "encoding": "inplace",
        "label": "uint256[50]",
        "numberOfBytes": "1600"
      },
      "t_bool": {
        "encoding": "inplace",
        "label": "bool",
        "numberOfBytes": "1"
      },
      "t_bytes_storage": {
        "encoding": "bytes",
        "label": "bytes",
        "numberOfBytes": "32"
      },
      "t_contract(ILockingInfo)2530": {
        "encoding": "inplace",
        "label": "contract ILockingInfo",
        "numberOfBytes": "20"
      },
      "t_enum(Status)2595": {
        "encoding": "inplace",
        "label": "enum ISequencerInfo.Status",
        "numberOfBytes": "1"
      },
      "t_mapping(t_address,t_bool)": {
        "encoding": "mapping",
        "key": "t_address",
        "label": "mapping(address => bool)",
        "numberOfBytes": "32",
        "value": "t_bool"
      },
      "t_mapping(t_address,t_uint256)": {
        "encoding": "mapping",
        "key": "t_address",
        "label": "mapping(address => uint256)",
        "numberOfBytes": "32",
        "value": "t_uint256"
      },
      "t_mapping(t_enum(Status)2595,t_uint256)": {
        "encoding": "mapping",
        "key": "t_enum(Status)2595",
        "label": "mapping(enum ISequencerInfo.Status => uint256)",
        "numberOfBytes": "32",
        "value": "t_uint256"
      },
      "t_mapping(t_uint256,t_struct(Sequencer)2623_storage)": {
        "encoding": "mapping",
        "key": "t_uint256",
        "label": "mapping(uint256 => struct ISequencerInfo.Sequencer)",
        "numberOfBytes": "32",
        "value": "t_struct(Sequencer)2623_storage"
      },
      "t_struct(BatchState)835_storage": {
        "encoding": "inplace",
        "label": "struct LockingPool.BatchState",
        "members": [
          {
            "astId": 828,
            "contract": "contracts/LockingPool.sol:LockingPool",
            "label": "id",
            "offset": 0,
            "slot": "0",
            "type": "t_uint256"
          },
          {
            "astId": 830,
            "contract": "contracts/LockingPool.sol:LockingPool",
            "label": "number",
            "offset": 0,
            "slot": "1",
            "type": "t_uint256"
          },
          {
            "astId": 832,
            "contract": "contracts/LockingPool.sol:LockingPool",
            "label": "startEpoch",
            "offset": 0,
            "slot": "2",
            "type": "t_uint256"
          },
          {
            "astId": 834,
            "contract": "contracts/LockingPool.sol:LockingPool",
            "label": "endEpoch",
            "offset": 0,
            "slot": "3",
            "type": "t_uint256"
          }
        ],
        "numberOfBytes": "128"
      },
      "t_struct(Sequencer)2623_storage": {
        "encoding": "inplace",
        "label": "struct ISequencerInfo.Sequencer",
        "members": [
          {
            "astId": 2597,
            "contract": "contracts/LockingPool.sol:LockingPool",
            "label": "amount",
            "offset": 0,
            "slot": "0",
            "type": "t_uint256"
          },
          {
            "astId": 2599,
            "contract": "contracts/LockingPool.sol:LockingPool",
            "label": "reward",
            "offset": 0,
            "slot": "1",
            "type": "t_uint256"
          },
          {
            "astId": 2601,
            "contract": "contracts/LockingPool.sol:LockingPool",
            "label": "activationBatch",
            "offset": 0,
            "slot": "2",
            "type": "t_uint256"
          },
          {
            "astId": 2603,
            "contract": "contracts/LockingPool.sol:LockingPool",
            "label": "updatedBatch",
            "offset": 0,
            "slot": "3",
            "type": "t_uint256"
          },
          {
            "astId": 2605,
            "contract": "contracts/LockingPool.sol:LockingPool",
            "label": "deactivationBatch",
            "offset": 0,
            "slot": "4",
            "type": "t_uint256"
          },
          {
            "astId": 2607,
            "contract": "contracts/LockingPool.sol:LockingPool",
            "label": "deactivationTime",
            "offset": 0,
            "slot": "5",
            "type": "t_uint256"
          },
          {
            "astId": 2609,
            "contract": "contracts/LockingPool.sol:LockingPool",
            "label": "unlockClaimTime",
            "offset": 0,
            "slot": "6",
            "type": "t_uint256"
          },
          {
            "astId": 2611,
            "contract": "contracts/LockingPool.sol:LockingPool",
            "label": "nonce",
            "offset": 0,
            "slot": "7",
            "type": "t_uint256"
          },
          {
            "astId": 2613,
            "contract": "contracts/LockingPool.sol:LockingPool",
            "label": "owner",
            "offset": 0,
            "slot": "8",
            "type": "t_address"
          },
          {
            "astId": 2615,
            "contract": "contracts/LockingPool.sol:LockingPool",
            "label": "signer",
            "offset": 0,
            "slot": "9",
            "type": "t_address"
          },
          {
            "astId": 2617,
            "contract": "contracts/LockingPool.sol:LockingPool",
            "label": "pubkey",
            "offset": 0,
            "slot": "10",
            "type": "t_bytes_storage"
          },
          {
            "astId": 2619,
            "contract": "contracts/LockingPool.sol:LockingPool",
            "label": "rewardRecipient",
            "offset": 0,
            "slot": "11",
            "type": "t_address"
          },
          {
            "astId": 2622,
            "contract": "contracts/LockingPool.sol:LockingPool",
            "label": "status",
            "offset": 20,
            "slot": "11",
            "type": "t_enum(Status)2595"
          }
        ],
        "numberOfBytes": "384"
      },
      "t_uint256": {
        "encoding": "inplace",
        "label": "uint256",
        "numberOfBytes": "32"
      },
      "t_uint8": {
        "encoding": "inplace",
        "label": "uint8",
        "numberOfBytes": "1"
      }
    }
  }
}