{
  "address": "0xD8f38c831E5032d23065Eaaee8c0620e17c04D60",
  "abi": [
    {
      "inputs": [],
      "name": "NoRewardRecipient",
      "type": "error"
    },
    {
      "inputs": [],
      "name": "NoSuchSeq",
      "type": "error"
    },
    {
      "inputs": [],
      "name": "NotSeqOwner",
      "type": "error"
    },
    {
      "inputs": [],
      "name": "NotSeqSigner",
      "type": "error"
    },
    {
      "inputs": [],
      "name": "NotWhitelisted",
      "type": "error"
    },
    {
      "inputs": [],
      "name": "NullAddress",
      "type": "error"
    },
    {
      "inputs": [],
      "name": "OwnedSequencer",
      "type": "error"
    },
    {
      "inputs": [],
      "name": "SeqNotActive",
      "type": "error"
    },
    {
      "inputs": [],
      "name": "SignerExisted",
      "type": "error"
    },
    {
      "anonymous": false,
      "inputs": [
        {
          "indexed": true,
          "internalType": "uint256",
          "name": "batchId",
          "type": "uint256"
        },
        {
          "indexed": false,
          "internalType": "uint256",
          "name": "startEpoch",
          "type": "uint256"
        },
        {
          "indexed": false,
          "internalType": "uint256",
          "name": "endEpoch",
          "type": "uint256"
        },
        {
          "indexed": false,
          "internalType": "uint256",
          "name": "amount",
          "type": "uint256"
        },
        {
          "indexed": false,
          "internalType": "uint256",
          "name": "rpb",
          "type": "uint256"
        }
      ],
      "name": "DistributeReward",
      "type": "event"
    },
    {
      "anonymous": false,
      "inputs": [
        {
          "indexed": false,
          "internalType": "uint8",
          "name": "version",
          "type": "uint8"
        }
      ],
      "name": "Initialized",
      "type": "event"
    },
    {
      "anonymous": false,
      "inputs": [
        {
          "indexed": true,
          "internalType": "address",
          "name": "previousOwner",
          "type": "address"
        },
        {
          "indexed": true,
          "internalType": "address",
          "name": "newOwner",
          "type": "address"
        }
      ],
      "name": "OwnershipTransferred",
      "type": "event"
    },
    {
      "anonymous": false,
      "inputs": [
        {
          "indexed": false,
          "internalType": "address",
          "name": "account",
          "type": "address"
        }
      ],
      "name": "Paused",
      "type": "event"
    },
    {
      "anonymous": false,
      "inputs": [
        {
          "indexed": false,
          "internalType": "uint256",
          "name": "newReward",
          "type": "uint256"
        },
        {
          "indexed": false,
          "internalType": "uint256",
          "name": "oldReward",
          "type": "uint256"
        }
      ],
      "name": "RewardUpdate",
      "type": "event"
    },
    {
      "anonymous": false,
      "inputs": [
        {
          "indexed": false,
          "internalType": "uint256",
          "name": "_seqId",
          "type": "uint256"
        },
        {
          "indexed": false,
          "internalType": "address",
          "name": "_owner",
          "type": "address"
        }
      ],
      "name": "SequencerOwnerChanged",
      "type": "event"
    },
    {
      "anonymous": false,
      "inputs": [
        {
          "indexed": false,
          "internalType": "uint256",
          "name": "_seqId",
          "type": "uint256"
        },
        {
          "indexed": false,
          "internalType": "address",
          "name": "_recipient",
          "type": "address"
        }
      ],
      "name": "SequencerRewardRecipientChanged",
      "type": "event"
    },
    {
      "anonymous": false,
      "inputs": [
        {
          "indexed": false,
          "internalType": "uint256",
          "name": "_n",
          "type": "uint256"
        }
      ],
      "name": "SetSignerUpdateThrottle",
      "type": "event"
    },
    {
      "anonymous": false,
      "inputs": [
        {
          "indexed": false,
          "internalType": "address",
          "name": "_user",
          "type": "address"
        },
        {
          "indexed": false,
          "internalType": "bool",
          "name": "_yes",
          "type": "bool"
        }
      ],
      "name": "SetWhitelist",
      "type": "event"
    },
    {
      "anonymous": false,
      "inputs": [
        {
          "indexed": false,
          "internalType": "address",
          "name": "account",
          "type": "address"
        }
      ],
      "name": "Unpaused",
      "type": "event"
    },
    {
      "anonymous": false,
      "inputs": [
        {
          "indexed": false,
          "internalType": "address",
          "name": "_newMpc",
          "type": "address"
        }
      ],
      "name": "UpdateMpc",
      "type": "event"
    },
    {
      "anonymous": false,
      "inputs": [
        {
          "indexed": false,
          "internalType": "uint256",
          "name": "_cur",
          "type": "uint256"
        },
        {
          "indexed": false,
          "internalType": "uint256",
          "name": "_prev",
          "type": "uint256"
        }
      ],
      "name": "WithrawDelayTimeChange",
      "type": "event"
    },
    {
      "inputs": [],
      "name": "BLOCK_REWARD",
      "outputs": [
        {
          "internalType": "uint256",
          "name": "",
          "type": "uint256"
        }
      ],
      "stateMutability": "view",
      "type": "function"
    },
    {
      "inputs": [],
      "name": "WITHDRAWAL_DELAY",
      "outputs": [
        {
          "internalType": "uint256",
          "name": "",
          "type": "uint256"
        }
      ],
      "stateMutability": "view",
      "type": "function"
    },
    {
      "inputs": [
        {
          "internalType": "uint256",
          "name": "_batchId",
          "type": "uint256"
        },
        {
          "internalType": "uint256",
          "name": "_startEpoch",
          "type": "uint256"
        },
        {
          "internalType": "uint256",
          "name": "_endEpoch",
          "type": "uint256"
        },
        {
          "internalType": "address[]",
          "name": "_seqs",
          "type": "address[]"
        },
        {
          "internalType": "uint256[]",
          "name": "_blocks",
          "type": "uint256[]"
        }
      ],
      "name": "batchSubmitRewards",
      "outputs": [],
      "stateMutability": "nonpayable",
      "type": "function"
    },
    {
      "inputs": [],
      "name": "curBatchState",
      "outputs": [
        {
          "internalType": "uint256",
          "name": "id",
          "type": "uint256"
        },
        {
          "internalType": "uint256",
          "name": "number",
          "type": "uint256"
        },
        {
          "internalType": "uint256",
          "name": "startEpoch",
          "type": "uint256"
        },
        {
          "internalType": "uint256",
          "name": "endEpoch",
          "type": "uint256"
        }
      ],
      "stateMutability": "view",
      "type": "function"
    },
    {
      "inputs": [],
      "name": "currentBatch",
      "outputs": [
        {
          "internalType": "uint256",
          "name": "",
          "type": "uint256"
        }
      ],
      "stateMutability": "view",
      "type": "function"
    },
    {
      "inputs": [],
      "name": "escrow",
      "outputs": [
        {
          "internalType": "contract ILockingInfo",
          "name": "",
          "type": "address"
        }
      ],
      "stateMutability": "view",
      "type": "function"
    },
    {
      "inputs": [],
      "name": "exitDelayPeriod",
      "outputs": [
        {
          "internalType": "uint256",
          "name": "",
          "type": "uint256"
        }
      ],
      "stateMutability": "view",
      "type": "function"
    },
    {
      "inputs": [
        {
          "internalType": "uint256",
          "name": "_seqId",
          "type": "uint256"
        },
        {
          "internalType": "uint32",
          "name": "_l2Gas",
          "type": "uint32"
        }
      ],
      "name": "forceUnlock",
      "outputs": [],
      "stateMutability": "payable",
      "type": "function"
    },
    {
      "inputs": [
        {
          "internalType": "address",
          "name": "_escrow",
          "type": "address"
        }
      ],
      "name": "initialize",
      "outputs": [],
      "stateMutability": "nonpayable",
      "type": "function"
    },
    {
      "inputs": [
        {
          "internalType": "address",
          "name": "_signer",
          "type": "address"
        },
        {
          "internalType": "uint256",
          "name": "_amount",
          "type": "uint256"
        },
        {
          "internalType": "bytes",
          "name": "_signerPubkey",
          "type": "bytes"
        }
      ],
      "name": "lockFor",
      "outputs": [],
      "stateMutability": "nonpayable",
      "type": "function"
    },
    {
      "inputs": [
        {
          "internalType": "address",
          "name": "_signer",
          "type": "address"
        },
        {
          "internalType": "address",
          "name": "_rewardRecipient",
          "type": "address"
        },
        {
          "internalType": "uint256",
          "name": "_amount",
          "type": "uint256"
        },
        {
          "internalType": "bytes",
          "name": "_signerPubkey",
          "type": "bytes"
        }
      ],
      "name": "lockWithRewardRecipient",
      "outputs": [],
      "stateMutability": "nonpayable",
      "type": "function"
    },
    {
      "inputs": [],
      "name": "mpcAddress",
      "outputs": [
        {
          "internalType": "address",
          "name": "",
          "type": "address"
        }
      ],
      "stateMutability": "view",
      "type": "function"
    },
    {
      "inputs": [],
      "name": "owner",
      "outputs": [
        {
          "internalType": "address",
          "name": "",
          "type": "address"
        }
      ],
      "stateMutability": "view",
      "type": "function"
    },
    {
      "inputs": [],
      "name": "paused",
      "outputs": [
        {
          "internalType": "bool",
          "name": "",
          "type": "bool"
        }
      ],
      "stateMutability": "view",
      "type": "function"
    },
    {
      "inputs": [
        {
          "internalType": "uint256",
          "name": "_seqId",
          "type": "uint256"
        },
        {
          "internalType": "uint256",
          "name": "_amount",
          "type": "uint256"
        },
        {
          "internalType": "bool",
          "name": "_lockReward",
          "type": "bool"
        }
      ],
      "name": "relock",
      "outputs": [],
      "stateMutability": "nonpayable",
      "type": "function"
    },
    {
      "inputs": [],
      "name": "renounceOwnership",
      "outputs": [],
      "stateMutability": "nonpayable",
      "type": "function"
    },
    {
      "inputs": [],
      "name": "rewardPerBlock",
      "outputs": [
        {
          "internalType": "uint256",
          "name": "",
          "type": "uint256"
        }
      ],
      "stateMutability": "view",
      "type": "function"
    },
    {
      "inputs": [
        {
          "internalType": "address",
          "name": "owner",
          "type": "address"
        }
      ],
      "name": "seqOwners",
      "outputs": [
        {
          "internalType": "uint256",
          "name": "seqId",
          "type": "uint256"
        }
      ],
      "stateMutability": "view",
      "type": "function"
    },
    {
      "inputs": [
        {
          "internalType": "address",
          "name": "signer",
          "type": "address"
        }
      ],
      "name": "seqSigners",
      "outputs": [
        {
          "internalType": "uint256",
          "name": "seqId",
          "type": "uint256"
        }
      ],
      "stateMutability": "view",
      "type": "function"
    },
    {
      "inputs": [
        {
          "internalType": "enum ISequencerInfo.Status",
          "name": "status",
          "type": "uint8"
        }
      ],
      "name": "seqStatuses",
      "outputs": [
        {
          "internalType": "uint256",
          "name": "count",
          "type": "uint256"
        }
      ],
      "stateMutability": "view",
      "type": "function"
    },
    {
      "inputs": [
        {
          "internalType": "uint256",
          "name": "seqId",
          "type": "uint256"
        }
      ],
      "name": "sequencers",
      "outputs": [
        {
          "internalType": "uint256",
          "name": "amount",
          "type": "uint256"
        },
        {
          "internalType": "uint256",
          "name": "reward",
          "type": "uint256"
        },
        {
          "internalType": "uint256",
          "name": "activationBatch",
          "type": "uint256"
        },
        {
          "internalType": "uint256",
          "name": "updatedBatch",
          "type": "uint256"
        },
        {
          "internalType": "uint256",
          "name": "deactivationBatch",
          "type": "uint256"
        },
        {
          "internalType": "uint256",
          "name": "deactivationTime",
          "type": "uint256"
        },
        {
          "internalType": "uint256",
          "name": "unlockClaimTime",
          "type": "uint256"
        },
        {
          "internalType": "uint256",
          "name": "nonce",
          "type": "uint256"
        },
        {
          "internalType": "address",
          "name": "owner",
          "type": "address"
        },
        {
          "internalType": "address",
          "name": "signer",
          "type": "address"
        },
        {
          "internalType": "bytes",
          "name": "pubkey",
          "type": "bytes"
        },
        {
          "internalType": "address",
          "name": "rewardRecipient",
          "type": "address"
        },
        {
          "internalType": "enum ISequencerInfo.Status",
          "name": "status",
          "type": "uint8"
        }
      ],
      "stateMutability": "view",
      "type": "function"
    },
    {
      "inputs": [
        {
          "internalType": "bool",
          "name": "_yes",
          "type": "bool"
        }
      ],
      "name": "setPause",
      "outputs": [],
      "stateMutability": "nonpayable",
      "type": "function"
    },
    {
      "inputs": [
        {
          "internalType": "uint256",
          "name": "_seqId",
          "type": "uint256"
        },
        {
          "internalType": "address",
          "name": "_owner",
          "type": "address"
        }
      ],
      "name": "setSequencerOwner",
      "outputs": [],
      "stateMutability": "nonpayable",
      "type": "function"
    },
    {
      "inputs": [
        {
          "internalType": "uint256",
          "name": "_seqId",
          "type": "uint256"
        },
        {
          "internalType": "address",
          "name": "_recipient",
          "type": "address"
        }
      ],
      "name": "setSequencerRewardRecipient",
      "outputs": [],
      "stateMutability": "nonpayable",
      "type": "function"
    },
    {
      "inputs": [
        {
          "internalType": "uint256",
          "name": "_n",
          "type": "uint256"
        }
      ],
      "name": "setSignerUpdateThrottle",
      "outputs": [],
      "stateMutability": "nonpayable",
      "type": "function"
    },
    {
      "inputs": [
        {
          "internalType": "address",
          "name": "_addr",
          "type": "address"
        },
        {
          "internalType": "bool",
          "name": "_yes",
          "type": "bool"
        }
      ],
      "name": "setWhitelist",
      "outputs": [],
      "stateMutability": "nonpayable",
      "type": "function"
    },
    {
      "inputs": [],
      "name": "signerUpdateThrottle",
      "outputs": [
        {
          "internalType": "uint256",
          "name": "",
          "type": "uint256"
        }
      ],
      "stateMutability": "view",
      "type": "function"
    },
    {
      "inputs": [],
      "name": "totalSequencers",
      "outputs": [
        {
          "internalType": "uint256",
          "name": "",
          "type": "uint256"
        }
      ],
      "stateMutability": "view",
      "type": "function"
    },
    {
      "inputs": [
        {
          "internalType": "address",
          "name": "newOwner",
          "type": "address"
        }
      ],
      "name": "transferOwnership",
      "outputs": [],
      "stateMutability": "nonpayable",
      "type": "function"
    },
    {
      "inputs": [
        {
          "internalType": "uint256",
          "name": "_seqId",
          "type": "uint256"
        },
        {
          "internalType": "uint32",
          "name": "_l2Gas",
          "type": "uint32"
        }
      ],
      "name": "unlock",
      "outputs": [],
      "stateMutability": "payable",
      "type": "function"
    },
    {
      "inputs": [
        {
          "internalType": "uint256",
          "name": "_seqId",
          "type": "uint256"
        },
        {
          "internalType": "uint32",
          "name": "_l2Gas",
          "type": "uint32"
        }
      ],
      "name": "unlockClaim",
      "outputs": [],
      "stateMutability": "payable",
      "type": "function"
    },
    {
      "inputs": [
        {
          "internalType": "uint256",
          "name": "newReward",
          "type": "uint256"
        }
      ],
      "name": "updateBlockReward",
      "outputs": [],
      "stateMutability": "nonpayable",
      "type": "function"
    },
    {
      "inputs": [
        {
          "internalType": "address",
          "name": "_newMpc",
          "type": "address"
        }
      ],
      "name": "updateMpc",
      "outputs": [],
      "stateMutability": "nonpayable",
      "type": "function"
    },
    {
      "inputs": [
        {
          "internalType": "uint256",
          "name": "_seqId",
          "type": "uint256"
        },
        {
          "internalType": "bytes",
          "name": "_signerPubkey",
          "type": "bytes"
        }
      ],
      "name": "updateSigner",
      "outputs": [],
      "stateMutability": "nonpayable",
      "type": "function"
    },
    {
      "inputs": [
        {
          "internalType": "uint256",
          "name": "_time",
          "type": "uint256"
        }
      ],
      "name": "updateWithdrawDelayTimeValue",
      "outputs": [],
      "stateMutability": "nonpayable",
      "type": "function"
    },
    {
      "inputs": [
        {
          "internalType": "address",
          "name": "owner",
          "type": "address"
        }
      ],
      "name": "whitelist",
      "outputs": [
        {
          "internalType": "bool",
          "name": "yes",
          "type": "bool"
        }
      ],
      "stateMutability": "view",
      "type": "function"
    },
    {
      "inputs": [
        {
          "internalType": "uint256",
          "name": "_seqId",
          "type": "uint256"
        },
        {
          "internalType": "uint256",
          "name": "_amount",
          "type": "uint256"
        }
      ],
      "name": "withdraw",
      "outputs": [],
      "stateMutability": "nonpayable",
      "type": "function"
    },
    {
      "inputs": [
        {
          "internalType": "uint256",
          "name": "_seqId",
          "type": "uint256"
        },
        {
          "internalType": "uint32",
          "name": "_l2Gas",
          "type": "uint32"
        }
      ],
      "name": "withdrawRewards",
      "outputs": [],
      "stateMutability": "payable",
      "type": "function"
    }
  ],
  "transactionHash": "0xa9f3494dd5ec84a339676933639f4054da0d094f39844e68efcc5240bcdf2dc7",
  "args": [],
  "numDeployments": 2,
  "solcInputHash": "43dcb99a66e862b293acf00155f582c6",
  "bytecode": "0x608060405234801561000f575f80fd5b506132088061001d5f395ff3fe608060405260043610610277575f3560e01c80638ddc74de1161014b578063c4d66de8116100c6578063d83b0e141161007c578063f2fde38b11610062578063f2fde38b146106ce578063f41a9642146106ed578063f580ffcb1461070c575f80fd5b8063d83b0e1414610690578063e2fdcc17146106af575f80fd5b8063ca99e838116100ac578063ca99e83814610649578063cc3ab9231461065c578063d11d068114610671575f80fd5b8063c4d66de814610615578063c65066d414610634575f80fd5b8063af70cba51161011b578063beb2675511610101578063beb26755146105ac578063bedb86fb146105d7578063bfd6fc3f146105f6575f80fd5b8063af70cba51461054b578063b44729701461056a575f80fd5b80638ddc74de146104cc5780639ad42030146104df5780639b19251a146104fe578063a953791f1461052c575f80fd5b806353d6fd59116101f557806376cd940e116101ab57806386d203ab1161019157806386d203ab1461046f5780638ae39cac1461049a5780638da5cb5b146104af575f80fd5b806376cd940e146104475780637f05b9ef1461045b575f80fd5b80636ba7ccff116101db5780636ba7ccff146103dc578063715018a61461041457806371e10cfa14610428575f80fd5b806353d6fd591461039a5780635c975abb146103b9575f80fd5b8063169abefc1161024a578063262c0e6611610230578063262c0e66146103535780633478874b14610366578063441a3e701461037b575f80fd5b8063169abefc146103155780631739668714610340575f80fd5b8063015bb1801461027b5780630ebb172a1461029c578063111f4630146102bf57806311c7d144146102f6575b5f80fd5b348015610286575f80fd5b5061029a6102953660046128b5565b61072b565b005b3480156102a7575f80fd5b5060d0545b6040519081526020015b60405180910390f35b3480156102ca575f80fd5b5060d2546102de906001600160a01b031681565b6040516001600160a01b0390911681526020016102b6565b348015610301575f80fd5b5061029a61031036600461292f565b6108ae565b348015610320575f80fd5b506102ac61032f3660046129cb565b609a6020525f908152604090205481565b61029a61034e3660046129eb565b610c44565b61029a6103613660046129eb565b610db1565b348015610371575f80fd5b506102ac60d05481565b348015610386575f80fd5b5061029a610395366004612a21565b610df7565b3480156103a5575f80fd5b5061029a6103b4366004612a41565b610fb5565b3480156103c4575f80fd5b5060335460ff165b60405190151581526020016102b6565b3480156103e7575f80fd5b506103fb6103f6366004612a72565b611020565b6040516102b69d9c9b9a99989796959493929190612abd565b34801561041f575f80fd5b5061029a611129565b348015610433575f80fd5b5061029a610442366004612a72565b61113c565b348015610452575f80fd5b5060d3546102ac565b348015610466575f80fd5b5060d1546102ac565b34801561047a575f80fd5b506102ac610489366004612b8f565b609c6020525f908152604090205481565b3480156104a5575f80fd5b506102ac60d15481565b3480156104ba575f80fd5b506065546001600160a01b03166102de565b61029a6104da3660046129eb565b6111d1565b3480156104ea575f80fd5b5061029a6104f9366004612beb565b611464565b348015610509575f80fd5b506103cc6105183660046129cb565b60986020525f908152604090205460ff1681565b348015610537575f80fd5b5061029a610546366004612c55565b6115a6565b348015610556575f80fd5b5061029a610565366004612c76565b6116f5565b348015610575575f80fd5b5060d35460d45460d55460d65461058c9392919084565b6040805194855260208501939093529183015260608201526080016102b6565b3480156105b7575f80fd5b506102ac6105c63660046129cb565b609b6020525f908152604090205481565b3480156105e2575f80fd5b5061029a6105f1366004612ccc565b61182d565b348015610601575f80fd5b5061029a610610366004612a72565b61184e565b348015610620575f80fd5b5061029a61062f3660046129cb565b611892565b34801561063f575f80fd5b506102ac60d75481565b61029a6106573660046129eb565b611a19565b348015610667575f80fd5b506102ac60975481565b34801561067c575f80fd5b5061029a61068b3660046129cb565b611a2d565b34801561069b575f80fd5b5061029a6106aa366004612c55565b611a83565b3480156106ba575f80fd5b5060cf546102de906001600160a01b031681565b3480156106d9575f80fd5b5061029a6106e83660046129cb565b611bb2565b3480156106f8575f80fd5b5061029a610707366004612ce5565b611c3f565b348015610717575f80fd5b5061029a610726366004612a72565b611e11565b610733611ea6565b335f9081526098602052604090205460ff1661076257604051630b094f2760e31b815260040160405180910390fd5b5f8381526099602052604090206002600b820154600160a01b900460ff16600381111561079157610791612a89565b146107af5760405163c494657160e01b815260040160405180910390fd5b60088101546001600160a01b031633146107dc5760405163a91da8ff60e01b815260040160405180910390fd5b5f82156107ef57506001810180545f9091555b5f8185845f01546108009190612d41565b61080a9190612d41565b90505f8360070154600161081e9190612d41565b6007850181905582855560cf546040516309a12e3b60e21b8152600481018a905260248101839052336044820152606481018590526084810189905260a481018690529192506001600160a01b031690632684b8ec9060c4015b5f604051808303815f87803b15801561088f575f80fd5b505af11580156108a1573d5f803e3d5ffd5b5050505050505050505050565b60d2546001600160a01b0316331461090d5760405162461bcd60e51b815260206004820152600760248201527f6e6f74204d50430000000000000000000000000000000000000000000000000060448201526064015b60405180910390fd5b828114801561091b57508215155b6109675760405162461bcd60e51b815260206004820152600f60248201527f6d69736d61746368206c656e67746800000000000000000000000000000000006044820152606401610904565b60d380545f90610978906001612d41565b90508881146109c95760405162461bcd60e51b815260206004820152601060248201527f696e76616c6964206261746368206964000000000000000000000000000000006044820152606401610904565b808255600382015488906109de906001612d41565b14610a2b5760405162461bcd60e51b815260206004820152601260248201527f696e76616c696420737461727445706f636800000000000000000000000000006044820152606401610904565b868810610a7a5760405162461bcd60e51b815260206004820152601060248201527f696e76616c696420656e6445706f6368000000000000000000000000000000006044820152606401610904565b60d1545f805b87811015610b78575f83888884818110610a9c57610a9c612d54565b90506020020135610aad9190612d68565b90505f609b5f8c8c86818110610ac557610ac5612d54565b9050602002016020810190610ada91906129cb565b6001600160a01b0316815260208082019290925260409081015f908120548082526099909352908120919250600b820154600160a01b900460ff166003811115610b2657610b26612a89565b03610b44576040516317876d5f60e11b815260040160405180910390fd5b82816001015f828254610b579190612d41565b90915550610b6790508386612d41565b94505060019092019150610a809050565b50436001850155600284018a90556003840189905560cf546040516338ef349f60e21b8152600481018d9052602481018390526001600160a01b039091169063e3bcd27c906044015f604051808303815f87803b158015610bd7575f80fd5b505af1158015610be9573d5f803e3d5ffd5b5050604080518d8152602081018d9052908101849052606081018590528d92507f57f14bf0f24025b2c737413d121021e1a6ede039533e1215eda6f20002baf0a1915060800160405180910390a25050505050505050505050565b610c4c611ea6565b335f9081526098602052604090205460ff16610c7b57604051630b094f2760e31b815260040160405180910390fd5b5f8281526099602052604090206002600b820154600160a01b900460ff166003811115610caa57610caa612a89565b14610cc85760405163c494657160e01b815260040160405180910390fd5b60088101546001600160a01b03163314610cf55760405163a91da8ff60e01b815260040160405180910390fd5b600b8101546001600160a01b031680610d215760405163313f077360e21b815260040160405180910390fd5b60018201548015610daa575f600184015560cf54604051630baf0f1560e31b815260048101879052602481018390526001600160a01b03848116604483015263ffffffff8716606483015290911690635d7878a89034906084015f604051808303818588803b158015610d92575f80fd5b505af1158015610da4573d5f803e3d5ffd5b50505050505b5050505050565b610db9611ea6565b335f9081526098602052604090205460ff16610de857604051630b094f2760e31b815260040160405180910390fd5b610df3825f83611ef9565b5050565b610dff611ea6565b335f9081526098602052604090205460ff16610e2e57604051630b094f2760e31b815260040160405180910390fd5b5f8281526099602052604090206002600b820154600160a01b900460ff166003811115610e5d57610e5d612a89565b14610e7b5760405163c494657160e01b815260040160405180910390fd5b60088101546001600160a01b03163314610ea85760405163a91da8ff60e01b815260040160405180910390fd5b600381015460d35411610efd5760405162461bcd60e51b815260206004820152601160248201527f7769746864726177207468726f74746c650000000000000000000000000000006044820152606401610904565b80545f90610f0c908490612d7f565b90505f82600701546001610f209190612d41565b6007840181905582845560d354600385015560cf54600885015460405163234898b360e01b8152600481018990526001600160a01b039182166024820152604481018490526064810188905260848101869052929350169063234898b39060a4015f604051808303815f87803b158015610f98575f80fd5b505af1158015610faa573d5f803e3d5ffd5b505050505050505050565b610fbd612150565b6001600160a01b0382165f81815260986020908152604091829020805460ff19168515159081179091558251938452908301527ff6019ec0a78d156d249a1ec7579e2321f6ac7521d6e1d2eacf90ba4a184dcceb91015b60405180910390a15050565b60996020525f9081526040902080546001820154600283015460038401546004850154600586015460068701546007880154600889015460098a0154600a8b0180549a9b999a9899979896979596949593946001600160a01b0393841694929093169261108c90612d92565b80601f01602080910402602001604051908101604052809291908181526020018280546110b890612d92565b80156111035780601f106110da57610100808354040283529160200191611103565b820191905f5260205f20905b8154815290600101906020018083116110e657829003601f168201915b505050600b90930154919250506001600160a01b0381169060ff600160a01b909104168d565b611131612150565b61113a5f6121aa565b565b611144612150565b5f81116111935760405162461bcd60e51b815260206004820152600c60248201527f64616c617954696d653d3d3000000000000000000000000000000000000000006044820152606401610904565b60d080549082905560408051838152602081018390527f08cb0bf599c925a6240976039d9d4d3201d88d2ba83703b890049356cdbb67e69101611014565b6111d9611ea6565b335f9081526098602052604090205460ff1661120857604051630b094f2760e31b815260040160405180910390fd5b5f82815260996020526040902060088101546001600160a01b031633146112425760405163a91da8ff60e01b815260040160405180910390fd5b600b8101546001600160a01b03168061126e5760405163313f077360e21b815260040160405180910390fd5b6001600b830154600160a01b900460ff16600381111561129057611290612a89565b1480156112a1575042826006015411155b6112ed5760405162461bcd60e51b815260206004820152601460248201527f4e6f7420616c6c6f77656420746f20636c69616d0000000000000000000000006044820152606401610904565b81546001830180545f80865591829055600785018054919261130e83612dca565b9091555050600b8401805460ff60a01b19167403000000000000000000000000000000000000000017905560015f908152609c6020527f759fbb3c7535ea6cd791a268d7e54d5bf43408007315741bf51b70650b77f6a580549161137183612de2565b909155505060035f908152609c6020527fa166308694002ada49a080be065b41ffb107f08c6cd338f4ec60e54116d066b78054916113ae83612dca565b909155505060088401546001600160a01b039081165f908152609a602052604081205560098501546113f791166001600160a01b03165f908152609b602052604090205f199055565b60cf54604051632947689560e11b81523360048201526024810188905260448101849052606481018390526001600160a01b03858116608483015263ffffffff881660a48301529091169063528ed12a90349060c4015f604051808303818588803b15801561088f575f80fd5b61146c611ea6565b335f9081526098602052604090205460ff1661149b57604051630b094f2760e31b815260040160405180910390fd5b60d354335f6114af83838a88888b8d6121fb565b60cf54604051631badded560e01b81529192506001600160a01b031690631badded5906114ec90849086908d908c908a908d908d90600401612e1f565b5f604051808303815f87803b158015611503575f80fd5b505af1158015611515573d5f803e3d5ffd5b5050604080518481526001600160a01b03861660208201527f4078101d3657bf2f1ee46f64d5c94266d244d71bb0daa460336d3d6f11c9a4ac935001905060405180910390a1604080518281526001600160a01b03891660208201527f357bb123cabaf224688e3d8de5feb37d685dc3a27012a7bce1201c49bc369cb6910160405180910390a15050505050505050565b335f9081526098602052604090205460ff166115d557604051630b094f2760e31b815260040160405180910390fd5b6001600160a01b0381166115fc5760405163e99d5ac560e01b815260040160405180910390fd5b5f8281526099602052604090206002600b820154600160a01b900460ff16600381111561162b5761162b612a89565b146116495760405163c494657160e01b815260040160405180910390fd5b60088101546001600160a01b03163381146116775760405163a91da8ff60e01b815260040160405180910390fd5b6008820180546001600160a01b0319166001600160a01b038581169182179092559082165f908152609a60209081526040808320839055838352918290208790558151878152908101929092527f4078101d3657bf2f1ee46f64d5c94266d244d71bb0daa460336d3d6f11c9a4ac910160405180910390a150505050565b6116fd611ea6565b335f9081526098602052604090205460ff1661172c57604051630b094f2760e31b815260040160405180910390fd5b60d354335f61174083838988888b876121fb565b60cf54604051631badded560e01b81529192506001600160a01b031690631badded59061177d90849086908c908c908a908d908d90600401612e1f565b5f604051808303815f87803b158015611794575f80fd5b505af11580156117a6573d5f803e3d5ffd5b5050604080518481526001600160a01b03861660208201527f4078101d3657bf2f1ee46f64d5c94266d244d71bb0daa460336d3d6f11c9a4ac935001905060405180910390a1604080518281525f60208201527f357bb123cabaf224688e3d8de5feb37d685dc3a27012a7bce1201c49bc369cb6910160405180910390a150505050505050565b611835612150565b801561184657611843612520565b50565b61184361257a565b611856612150565b60d78190556040518181527fe58685f6b78e6d567d2ed9d7c5efb779c4cd91c63c76763a0e3204a5671f4705906020015b60405180910390a150565b5f54610100900460ff16158080156118b057505f54600160ff909116105b806118c95750303b1580156118c957505f5460ff166001145b61193b5760405162461bcd60e51b815260206004820152602e60248201527f496e697469616c697a61626c653a20636f6e747261637420697320616c72656160448201527f647920696e697469616c697a65640000000000000000000000000000000000006064820152608401610904565b5f805460ff19166001179055801561195c575f805461ff0019166101001790555b621baf8060d0556602b4201eac900060d15560408051608081018252600180825243602083018190525f938301849052606090920183905260d381905560d49190915560d582905560d69190915560cf80546001600160a01b0319166001600160a01b03851617905560d7556119d06125b3565b6119d8612625565b8015610df3575f805461ff0019169055604051600181527f7f26b83ff96e1f2b6a682f133852f6798a09c465da95921460cefb384740249890602001611014565b611a21612150565b610df382600183611ef9565b611a35612150565b60d280546001600160a01b0319166001600160a01b0383169081179091556040519081527fc6759872346bc2093e270f2fa00d99d7bcdde60a410a3e9956b34196d42fee7690602001611887565b335f9081526098602052604090205460ff16611ab257604051630b094f2760e31b815260040160405180910390fd5b5f82815260996020526040902060088101546001600160a01b03163314611aec5760405163a91da8ff60e01b815260040160405180910390fd5b6002600b820154600160a01b900460ff166003811115611b0e57611b0e612a89565b14611b2c5760405163c494657160e01b815260040160405180910390fd5b6001600160a01b038216611b535760405163e99d5ac560e01b815260040160405180910390fd5b600b810180546001600160a01b0319166001600160a01b0384169081179091556040805185815260208101929092527f357bb123cabaf224688e3d8de5feb37d685dc3a27012a7bce1201c49bc369cb6910160405180910390a1505050565b611bba612150565b6001600160a01b038116611c365760405162461bcd60e51b815260206004820152602660248201527f4f776e61626c653a206e6577206f776e657220697320746865207a65726f206160448201527f64647265737300000000000000000000000000000000000000000000000000006064820152608401610904565b611843816121aa565b611c47611ea6565b5f8381526099602052604090206002600b820154600160a01b900460ff166003811115611c7657611c76612a89565b14611c945760405163c494657160e01b815260040160405180910390fd5b60098101546001600160a01b0316338114611cc257604051636b95264b60e01b815260040160405180910390fd5b60d7548260030154611cd49190612d41565b60d3541015611d255760405162461bcd60e51b815260206004820152601860248201527f7369676e6572207570646174696e67207468726f74746c6500000000000000006044820152606401610904565b5f611d30858561262d565b6001600160a01b0381165f908152609b602052604090205490915015611d695760405163b5013d2b60e01b815260040160405180910390fd5b600a8301611d78858783612ec7565b506009830180546001600160a01b0319166001600160a01b038381169182179092555f908152609b60205260408082208990559184168152205f19905560d354600384015560078301545f90611dcf906001612d41565b6007850181905560cf546040516359942b8160e11b81529192506001600160a01b03169063b328570290610878908a908790879087908d908d90600401612f81565b611e19612150565b805f03611e685760405162461bcd60e51b815260206004820152601160248201527f696e76616c6964206e65775265776172640000000000000000000000000000006044820152606401610904565b60d180549082905560408051838152602081018390527ff67f33e8589d3ea0356303c0f9a8e764873692159f777ff79e4fc523d389dfcd9101611014565b60335460ff161561113a5760405162461bcd60e51b815260206004820152601060248201527f5061757361626c653a20706175736564000000000000000000000000000000006044820152606401610904565b5f8381526099602052604090206002600b820154600160a01b900460ff166003811115611f2857611f28612a89565b14611f465760405163c494657160e01b815260040160405180910390fd5b60025f908152609c6020527f75de1d63ccf63b1f38d98add9d8551d4b8314484fe5658df70a18f2499ec4fb480548290611f7f90612de2565b918290555060015f908152609c6020527f759fbb3c7535ea6cd791a268d7e54d5bf43408007315741bf51b70650b77f6a5805492935090918290611fc290612dca565b918290555090508461205e5760088301546001600160a01b03163314611ffb5760405163a91da8ff60e01b815260040160405180910390fd5b6120058183612d41565b612010826003612d68565b111561205e5760405162461bcd60e51b815260206004820152600f60248201527f424654207265737472696374696f6e00000000000000000000000000000000006044820152606401610904565b600b8301546001600160a01b03168061208a5760405163313f077360e21b815260040160405180910390fd5b600b8401805460ff60a01b1916600160a01b17905560d3546004850155426005850181905560d0546120bb91612d41565b6006850155600784018054905f6120d183612dca565b90915550506001840180545f90915560cf54604051630890c1a760e21b81526001600160a01b0390911690632243069c903490612118908c9086908c908c9060040161303e565b5f604051808303818588803b15801561212f575f80fd5b505af1158015612141573d5f803e3d5ffd5b50505050505050505050505050565b6065546001600160a01b0316331461113a5760405162461bcd60e51b815260206004820181905260248201527f4f776e61626c653a2063616c6c6572206973206e6f7420746865206f776e65726044820152606401610904565b606580546001600160a01b038381166001600160a01b0319831681179093556040519116919082907f8be0079c531659141344cd1fd0a4f28419497f9722a3daafe3b4186f6b6457e0905f90a35050565b5f856001600160a01b0316612210868661262d565b6001600160a01b0316146122665760405162461bcd60e51b815260206004820152601b60248201527f7075626b657920616e642061646472657373206d69736d6174636800000000006044820152606401610904565b6001600160a01b0387165f908152609a60205260409020541561229c57604051631387ecef60e21b815260040160405180910390fd5b6001600160a01b0386165f908152609b6020526040902054156122d25760405163b5013d2b60e01b815260040160405180910390fd5b6097546122e0816001612d41565b6001600160a01b038981165f908152609a60209081526040808320859055928b168252609b815291812083905560028152609c9091527f75de1d63ccf63b1f38d98add9d8551d4b8314484fe5658df70a18f2499ec4fb480549294509061234683612dca565b919050555081609781905550604051806101a001604052808581526020015f81526020018a81526020018a81526020015f81526020015f81526020015f815260200160018152602001896001600160a01b03168152602001886001600160a01b0316815260200187878080601f0160208091040260200160405190810160405280939291908181526020018383808284375f920191909152505050908252506001600160a01b0385166020820152604001600290525f8381526099602090815260409182902083518155908301516001820155908201516002820155606082015160038201556080820151600482015560a0820151600582015560c0820151600682015560e082015160078201556101008201516008820180546001600160a01b039283166001600160a01b031991821617909155610120840151600984018054919093169116179055610140820151600a8201906124a5908261312c565b50610160820151600b820180546001600160a01b039092166001600160a01b0319831681178255610180850151927fffffffffffffffffffffff0000000000000000000000000000000000000000001617600160a01b83600381111561250d5761250d612a89565b0217905550505050979650505050505050565b612528611ea6565b6033805460ff191660011790557f62e78cea01bee320cd4e420270b5ea74000d11b0c9f74754ebdbfc544b05a25861255d3390565b6040516001600160a01b03909116815260200160405180910390a1565b6125826126f9565b6033805460ff191690557f5db9ee0a495bf2e6ff9c91a7834c1ba4fdd244a5e8aa4e537bd38aeae4b073aa3361255d565b5f54610100900460ff1661261d5760405162461bcd60e51b815260206004820152602b60248201527f496e697469616c697a61626c653a20636f6e7472616374206973206e6f74206960448201526a6e697469616c697a696e6760a81b6064820152608401610904565b61113a61274b565b61113a6127c1565b5f6040821461267e5760405162461bcd60e51b815260206004820152600e60248201527f696e76616c6964207075626b65790000000000000000000000000000000000006044820152606401610904565b5f838360405161268f9291906131ec565b60405190819003902090506001600160a01b0381166126f05760405162461bcd60e51b815260206004820152600d60248201527f656d7074792061646472657373000000000000000000000000000000000000006044820152606401610904565b90505b92915050565b60335460ff1661113a5760405162461bcd60e51b815260206004820152601460248201527f5061757361626c653a206e6f74207061757365640000000000000000000000006044820152606401610904565b5f54610100900460ff166127b55760405162461bcd60e51b815260206004820152602b60248201527f496e697469616c697a61626c653a20636f6e7472616374206973206e6f74206960448201526a6e697469616c697a696e6760a81b6064820152608401610904565b6033805460ff19169055565b5f54610100900460ff1661282b5760405162461bcd60e51b815260206004820152602b60248201527f496e697469616c697a61626c653a20636f6e7472616374206973206e6f74206960448201526a6e697469616c697a696e6760a81b6064820152608401610904565b61113a5f54610100900460ff166128985760405162461bcd60e51b815260206004820152602b60248201527f496e697469616c697a61626c653a20636f6e7472616374206973206e6f74206960448201526a6e697469616c697a696e6760a81b6064820152608401610904565b61113a336121aa565b803580151581146128b0575f80fd5b919050565b5f805f606084860312156128c7575f80fd5b83359250602084013591506128de604085016128a1565b90509250925092565b5f8083601f8401126128f7575f80fd5b50813567ffffffffffffffff81111561290e575f80fd5b6020830191508360208260051b8501011115612928575f80fd5b9250929050565b5f805f805f805f60a0888a031215612945575f80fd5b873596506020880135955060408801359450606088013567ffffffffffffffff80821115612971575f80fd5b61297d8b838c016128e7565b909650945060808a0135915080821115612995575f80fd5b506129a28a828b016128e7565b989b979a50959850939692959293505050565b80356001600160a01b03811681146128b0575f80fd5b5f602082840312156129db575f80fd5b6129e4826129b5565b9392505050565b5f80604083850312156129fc575f80fd5b82359150602083013563ffffffff81168114612a16575f80fd5b809150509250929050565b5f8060408385031215612a32575f80fd5b50508035926020909101359150565b5f8060408385031215612a52575f80fd5b612a5b836129b5565b9150612a69602084016128a1565b90509250929050565b5f60208284031215612a82575f80fd5b5035919050565b634e487b7160e01b5f52602160045260245ffd5b60048110612ab957634e487b7160e01b5f52602160045260245ffd5b9052565b5f6101a08f835260208f60208501528e60408501528d60608501528c60808501528b60a08501528a60c08501528960e08501526001600160a01b03808a166101008601528089166101208601525081610140850152865180838601525f92505b80831015612b3c578783018201518584016101c0015291810191612b1d565b6101c092505f83828701015282601f19601f8301168601019350505050612b6f6101608301856001600160a01b03169052565b612b7d610180830184612a9d565b9e9d5050505050505050505050505050565b5f60208284031215612b9f575f80fd5b8135600481106126f0575f80fd5b5f8083601f840112612bbd575f80fd5b50813567ffffffffffffffff811115612bd4575f80fd5b602083019150836020828501011115612928575f80fd5b5f805f805f60808688031215612bff575f80fd5b612c08866129b5565b9450612c16602087016129b5565b935060408601359250606086013567ffffffffffffffff811115612c38575f80fd5b612c4488828901612bad565b969995985093965092949392505050565b5f8060408385031215612c66575f80fd5b82359150612a69602084016129b5565b5f805f8060608587031215612c89575f80fd5b612c92856129b5565b935060208501359250604085013567ffffffffffffffff811115612cb4575f80fd5b612cc087828801612bad565b95989497509550505050565b5f60208284031215612cdc575f80fd5b6129e4826128a1565b5f805f60408486031215612cf7575f80fd5b83359250602084013567ffffffffffffffff811115612d14575f80fd5b612d2086828701612bad565b9497909650939450505050565b634e487b7160e01b5f52601160045260245ffd5b808201808211156126f3576126f3612d2d565b634e487b7160e01b5f52603260045260245ffd5b80820281158282048414176126f3576126f3612d2d565b818103818111156126f3576126f3612d2d565b600181811c90821680612da657607f821691505b602082108103612dc457634e487b7160e01b5f52602260045260245ffd5b50919050565b5f60018201612ddb57612ddb612d2d565b5060010190565b5f81612df057612df0612d2d565b505f190190565b81835281816020850137505f828201602090810191909152601f909101601f19169091010190565b8781525f6001600160a01b03808916602084015280881660408401525085606083015284608083015260c060a0830152612e5d60c083018486612df7565b9998505050505050505050565b634e487b7160e01b5f52604160045260245ffd5b601f821115612ec257805f5260205f20601f840160051c81016020851015612ea35750805b601f840160051c820191505b81811015610daa575f8155600101612eaf565b505050565b67ffffffffffffffff831115612edf57612edf612e6a565b612ef383612eed8354612d92565b83612e7e565b5f601f841160018114612f24575f8515612f0d5750838201355b5f19600387901b1c1916600186901b178355610daa565b5f83815260208120601f198716915b82811015612f535786850135825560209485019460019092019101612f33565b5086821015612f6f575f1960f88860031b161c19848701351681555b505060018560011b0183555050505050565b8681525f6001600160a01b03808816602084015280871660408401525084606083015260a06080830152612fb960a083018486612df7565b98975050505050505050565b5f8154612fd181612d92565b808552602060018381168015612fee576001811461300857613033565b60ff1985168884015283151560051b880183019550613033565b865f52825f205f5b8581101561302b5781548a8201860152908301908401613010565b890184019650505b505050505092915050565b84815283602082015263ffffffff831660408201526080606082015281546080820152600182015460a0820152600282015460c0820152600382015460e082015260048201546101008201526005820154610120820152600682015461014082015260078201546101608201525f6130c060088401546001600160a01b031690565b6001600160a01b039081166101808401526009840154166101a08084018290526101c0840152506130f86102208301600a8501612fc5565b600b8401546001600160a01b0381166101e0850152613121610200850160ff8360a01c16612a9d565b509695505050505050565b815167ffffffffffffffff81111561314657613146612e6a565b61315a816131548454612d92565b84612e7e565b602080601f83116001811461318d575f84156131765750858301515b5f19600386901b1c1916600185901b1785556131e4565b5f85815260208120601f198616915b828110156131bb5788860151825594840194600190910190840161319c565b50858210156131d857878501515f19600388901b60f8161c191681555b505060018460011b0185555b505050505050565b818382375f910190815291905056fea164736f6c6343000818000a",
  "devdoc": {
    "events": {
      "DistributeReward(uint256,uint256,uint256,uint256,uint256)": {
        "details": "Emitted when rewards are distributed",
        "params": {
          "amount": "the total that distributed",
          "batchId": "the current batch id",
          "endEpoch": "end epoch number",
          "rpb": "the current reward per block",
          "startEpoch": "start epoch number"
        }
      },
      "Initialized(uint8)": {
        "details": "Triggered when the contract has been initialized or reinitialized."
      },
      "Paused(address)": {
        "details": "Emitted when the pause is triggered by `account`."
      },
      "RewardUpdate(uint256,uint256)": {
        "details": "Emitted when the proxy update threshold in 'updateBlockReward()'.      Note from maintainer:      for compatibility, this ambiguous event is retained",
        "params": {
          "newReward": "new block reward",
          "oldReward": "old block reward"
        }
      },
      "SequencerOwnerChanged(uint256,address)": {
        "details": "Emitted when sequencer owner is changed",
        "params": {
          "_owner": "the sequencer owner",
          "_seqId": "the sequencerId"
        }
      },
      "SequencerRewardRecipientChanged(uint256,address)": {
        "details": "Emitted when reward recipient address update in 'setSequencerRewardRecipient'",
        "params": {
          "_recipient": "the address receive reward token",
          "_seqId": "the sequencerId"
        }
      },
      "SetSignerUpdateThrottle(uint256)": {
        "details": "Emitted when SignerUpdateThrottle is updated",
        "params": {
          "_n": "new min value"
        }
      },
      "SetWhitelist(address,bool)": {
        "details": "Emitted if owner call 'setWhitelist'",
        "params": {
          "_user": "the address who can lock token",
          "_yes": "white address state"
        }
      },
      "Unpaused(address)": {
        "details": "Emitted when the pause is lifted by `account`."
      },
      "UpdateMpc(address)": {
        "details": "Emitted when mpc address update in 'UpdateMpc'",
        "params": {
          "_newMpc": "new min lock."
        }
      },
      "WithrawDelayTimeChange(uint256,uint256)": {
        "details": "Emitted when WITHDRAWAL_DELAY is updated.",
        "params": {
          "_cur": "current withdraw delay time",
          "_prev": "previours withdraw delay time"
        }
      }
    },
    "kind": "dev",
    "methods": {
      "BLOCK_REWARD()": {
        "details": "BLOCK_REWARD returns the current reward per block      just for compatibility, this ambiguous func is added"
      },
      "WITHDRAWAL_DELAY()": {
        "details": "WITHDRAWAL_DELAY returns the period      just for compatibility, this ambiguous func is added"
      },
      "batchSubmitRewards(uint256,uint256,uint256,address[],uint256[])": {
        "details": "batchSubmitRewards Allow to submit L2 sequencer block information, and attach Metis reward tokens for reward distribution",
        "params": {
          "_batchId": "The batchId that submitted the reward is that",
          "_blocks": "How many blocks each sequencer finished.",
          "_endEpoch": "The endEpoch that submitted the reward is that",
          "_seqs": "Those sequencers can receive rewards",
          "_startEpoch": "The startEpoch that submitted the reward is that"
        }
      },
      "currentBatch()": {
        "details": "currentBatch returns current batch id"
      },
      "forceUnlock(uint256,uint32)": {
        "details": "forceUnlock Allow owner to force a sequencer node to exit",
        "params": {
          "_l2Gas": "l2 gas limit, see above for the detail",
          "_seqId": "the sequencer id"
        }
      },
      "lockFor(address,uint256,bytes)": {
        "details": "lockFor lock Metis and participate in the sequencer node      the msg.sender will be owner of the sequencer      the owner has abilities to leverage lock/relock/unlock/cliam      **Note**: the locking amount will be trasnfered from msg.sender      and you need to approve the Metis of msg.sender to **LockingInfo** contract      instead of this LockingPool contract      the default reward recipient is an empty address      you need to update it using setSequencerRewardRecipient afterward",
        "params": {
          "_amount": "Amount of L1 metis token to lock for.",
          "_signer": "Sequencer signer address",
          "_signerPubkey": "Sequencer signer pubkey, it should be uncompressed"
        }
      },
      "lockWithRewardRecipient(address,address,uint256,bytes)": {
        "details": "lockWithRewardRecipient is the same with lockFor, but you can provide a reward receipent",
        "params": {
          "_amount": "Amount of L1 metis token to lock for.",
          "_rewardRecipient": "Sequencer reward receiptent        you can use an empty address if you haven't choosed an address        and update it using `setSequencerRewardRecipient` after then",
          "_signer": "Sequencer signer address",
          "_signerPubkey": "Sequencer signer pubkey         it should be uncompressed and matched with signer address"
        }
      },
      "owner()": {
        "details": "Returns the address of the current owner."
      },
      "paused()": {
        "details": "Returns true if the contract is paused, and false otherwise."
      },
      "relock(uint256,uint256,bool)": {
        "details": "relock allow sequencer operator to increase the amount of locked positions",
        "params": {
          "_amount": "amount of token to relock, it can be 0 if you want to relock your rewrad",
          "_lockReward": "use true if lock the current rewards",
          "_seqId": "the id of your sequencer"
        }
      },
      "renounceOwnership()": {
        "details": "Leaves the contract without owner. It will not be possible to call `onlyOwner` functions. Can only be called by the current owner. NOTE: Renouncing ownership will leave the contract without an owner, thereby disabling any functionality that is only available to the owner."
      },
      "setPause(bool)": {
        "details": "setPause",
        "params": {
          "_yes": "pause or not"
        }
      },
      "setSequencerOwner(uint256,address)": {
        "details": "setSequencerOwner update sequencer owner",
        "params": {
          "_owner": "the new owner",
          "_seqId": "The sequencerId"
        }
      },
      "setSequencerRewardRecipient(uint256,address)": {
        "details": "setSequencerRewardRecipient Allow sequencer owner to set a reward recipient",
        "params": {
          "_recipient": "Who will receive the reward token",
          "_seqId": "The sequencerId"
        }
      },
      "setSignerUpdateThrottle(uint256)": {
        "details": "setSignerUpdateThrottle  set signerUpdateThrottle",
        "params": {
          "_n": "the new value of the throttle, it can be 0"
        }
      },
      "setWhitelist(address,bool)": {
        "details": "setWhitelist Allow owner to update white address list",
        "params": {
          "_addr": "the address who can lock token",
          "_yes": "white address state"
        }
      },
      "transferOwnership(address)": {
        "details": "Transfers ownership of the contract to a new account (`newOwner`). Can only be called by the current owner."
      },
      "unlock(uint256,uint32)": {
        "details": "unlock your metis and exit the sequencer node      the reward will be arrived by L1Bridge first      and you need to wait the exit period and call      unlockClaim to cliam your locked token",
        "params": {
          "_l2Gas": "the L2 gas limit for L1Bridge.       the reward is distributed by bridge       so you need to pay the ETH as the bridge fee",
          "_seqId": "sequencer id"
        }
      },
      "unlockClaim(uint256,uint32)": {
        "details": "unlockClaim claim your locked tokens after the waiting period is passed      l2 fee is required if you have unclaimed reward",
        "params": {
          "_l2Gas": "l2 gas limit",
          "_seqId": "sequencer id"
        }
      },
      "updateBlockReward(uint256)": {
        "details": "updateBlockReward  Allow owner to set per block reward",
        "params": {
          "newReward": "the block reward"
        }
      },
      "updateMpc(address)": {
        "details": "updateMpc update the mpc address",
        "params": {
          "_newMpc": "new mpc address"
        }
      },
      "updateSigner(uint256,bytes)": {
        "details": "updateSigner sqeuencer signer can update signer address      Note: only signer can use this, the sequencer owner doesn't have access",
        "params": {
          "_seqId": "the sequencer id",
          "_signerPubkey": "the new signer pubkey address"
        }
      },
      "updateWithdrawDelayTimeValue(uint256)": {
        "details": "updateWithdrawDelayTimeValue Allow owner to set withdraw delay time.",
        "params": {
          "_time": "new withdraw delay time"
        }
      },
      "withdraw(uint256,uint256)": {
        "details": "withdraw allow sequencer operator to withdraw the locking",
        "params": {
          "_amount": "amount to withdraw",
          "_seqId": "the id of your sequencer"
        }
      },
      "withdrawRewards(uint256,uint32)": {
        "details": "withdrawRewards withdraw current rewards      l2 fee is required",
        "params": {
          "_l2Gas": "bridge reward to L2 gasLimit",
          "_seqId": "unique integer to identify a sequencer."
        }
      }
    },
    "version": 1
  },
  "userdoc": {
    "kind": "user",
    "methods": {},
    "version": 1
  },
  "storageLayout": {
    "storage": [
      {
        "astId": 139,
        "contract": "contracts/LockingPool.sol:LockingPool",
        "label": "_initialized",
        "offset": 0,
        "slot": "0",
        "type": "t_uint8"
      },
      {
        "astId": 142,
        "contract": "contracts/LockingPool.sol:LockingPool",
        "label": "_initializing",
        "offset": 1,
        "slot": "0",
        "type": "t_bool"
      },
      {
        "astId": 809,
        "contract": "contracts/LockingPool.sol:LockingPool",
        "label": "__gap",
        "offset": 0,
        "slot": "1",
        "type": "t_array(t_uint256)50_storage"
      },
      {
        "astId": 323,
        "contract": "contracts/LockingPool.sol:LockingPool",
        "label": "_paused",
        "offset": 0,
        "slot": "51",
        "type": "t_bool"
      },
      {
        "astId": 428,
        "contract": "contracts/LockingPool.sol:LockingPool",
        "label": "__gap",
        "offset": 0,
        "slot": "52",
        "type": "t_array(t_uint256)49_storage"
      },
      {
        "astId": 11,
        "contract": "contracts/LockingPool.sol:LockingPool",
        "label": "_owner",
        "offset": 0,
        "slot": "101",
        "type": "t_address"
      },
      {
        "astId": 131,
        "contract": "contracts/LockingPool.sol:LockingPool",
        "label": "__gap",
        "offset": 0,
        "slot": "102",
        "type": "t_array(t_uint256)49_storage"
      },
      {
        "astId": 2055,
        "contract": "contracts/LockingPool.sol:LockingPool",
        "label": "totalSequencers",
        "offset": 0,
        "slot": "151",
        "type": "t_uint256"
      },
      {
        "astId": 2059,
        "contract": "contracts/LockingPool.sol:LockingPool",
        "label": "whitelist",
        "offset": 0,
        "slot": "152",
        "type": "t_mapping(t_address,t_bool)"
      },
      {
        "astId": 2064,
        "contract": "contracts/LockingPool.sol:LockingPool",
        "label": "sequencers",
        "offset": 0,
        "slot": "153",
        "type": "t_mapping(t_uint256,t_struct(Sequencer)2736_storage)"
      },
      {
        "astId": 2068,
        "contract": "contracts/LockingPool.sol:LockingPool",
        "label": "seqOwners",
        "offset": 0,
        "slot": "154",
        "type": "t_mapping(t_address,t_uint256)"
      },
      {
        "astId": 2072,
        "contract": "contracts/LockingPool.sol:LockingPool",
        "label": "seqSigners",
        "offset": 0,
        "slot": "155",
        "type": "t_mapping(t_address,t_uint256)"
      },
      {
        "astId": 2077,
        "contract": "contracts/LockingPool.sol:LockingPool",
        "label": "seqStatuses",
        "offset": 0,
        "slot": "156",
        "type": "t_mapping(t_enum(Status)2708,t_uint256)"
      },
      {
        "astId": 2422,
        "contract": "contracts/LockingPool.sol:LockingPool",
        "label": "__gap",
        "offset": 0,
        "slot": "157",
        "type": "t_array(t_uint256)50_storage"
      },
      {
        "astId": 838,
        "contract": "contracts/LockingPool.sol:LockingPool",
        "label": "escrow",
        "offset": 0,
        "slot": "207",
        "type": "t_contract(ILockingInfo)2643"
      },
      {
        "astId": 840,
        "contract": "contracts/LockingPool.sol:LockingPool",
        "label": "exitDelayPeriod",
        "offset": 0,
        "slot": "208",
        "type": "t_uint256"
      },
      {
        "astId": 842,
        "contract": "contracts/LockingPool.sol:LockingPool",
        "label": "rewardPerBlock",
        "offset": 0,
        "slot": "209",
        "type": "t_uint256"
      },
      {
        "astId": 844,
        "contract": "contracts/LockingPool.sol:LockingPool",
        "label": "mpcAddress",
        "offset": 0,
        "slot": "210",
        "type": "t_address"
      },
      {
        "astId": 847,
        "contract": "contracts/LockingPool.sol:LockingPool",
        "label": "curBatchState",
        "offset": 0,
        "slot": "211",
        "type": "t_struct(BatchState)835_storage"
      },
      {
        "astId": 849,
        "contract": "contracts/LockingPool.sol:LockingPool",
        "label": "signerUpdateThrottle",
        "offset": 0,
        "slot": "215",
        "type": "t_uint256"
      }
    ],
    "types": {
      "t_address": {
        "encoding": "inplace",
        "label": "address",
        "numberOfBytes": "20"
      },
      "t_array(t_uint256)49_storage": {
        "base": "t_uint256",
        "encoding": "inplace",
        "label": "uint256[49]",
        "numberOfBytes": "1568"
      },
      "t_array(t_uint256)50_storage": {
        "base": "t_uint256",
        "encoding": "inplace",
        "label": "uint256[50]",
        "numberOfBytes": "1600"
      },
      "t_bool": {
        "encoding": "inplace",
        "label": "bool",
        "numberOfBytes": "1"
      },
      "t_bytes_storage": {
        "encoding": "bytes",
        "label": "bytes",
        "numberOfBytes": "32"
      },
      "t_contract(ILockingInfo)2643": {
        "encoding": "inplace",
        "label": "contract ILockingInfo",
        "numberOfBytes": "20"
      },
      "t_enum(Status)2708": {
        "encoding": "inplace",
        "label": "enum ISequencerInfo.Status",
        "numberOfBytes": "1"
      },
      "t_mapping(t_address,t_bool)": {
        "encoding": "mapping",
        "key": "t_address",
        "label": "mapping(address => bool)",
        "numberOfBytes": "32",
        "value": "t_bool"
      },
      "t_mapping(t_address,t_uint256)": {
        "encoding": "mapping",
        "key": "t_address",
        "label": "mapping(address => uint256)",
        "numberOfBytes": "32",
        "value": "t_uint256"
      },
      "t_mapping(t_enum(Status)2708,t_uint256)": {
        "encoding": "mapping",
        "key": "t_enum(Status)2708",
        "label": "mapping(enum ISequencerInfo.Status => uint256)",
        "numberOfBytes": "32",
        "value": "t_uint256"
      },
      "t_mapping(t_uint256,t_struct(Sequencer)2736_storage)": {
        "encoding": "mapping",
        "key": "t_uint256",
        "label": "mapping(uint256 => struct ISequencerInfo.Sequencer)",
        "numberOfBytes": "32",
        "value": "t_struct(Sequencer)2736_storage"
      },
      "t_struct(BatchState)835_storage": {
        "encoding": "inplace",
        "label": "struct LockingPool.BatchState",
        "members": [
          {
            "astId": 828,
            "contract": "contracts/LockingPool.sol:LockingPool",
            "label": "id",
            "offset": 0,
            "slot": "0",
            "type": "t_uint256"
          },
          {
            "astId": 830,
            "contract": "contracts/LockingPool.sol:LockingPool",
            "label": "number",
            "offset": 0,
            "slot": "1",
            "type": "t_uint256"
          },
          {
            "astId": 832,
            "contract": "contracts/LockingPool.sol:LockingPool",
            "label": "startEpoch",
            "offset": 0,
            "slot": "2",
            "type": "t_uint256"
          },
          {
            "astId": 834,
            "contract": "contracts/LockingPool.sol:LockingPool",
            "label": "endEpoch",
            "offset": 0,
            "slot": "3",
            "type": "t_uint256"
          }
        ],
        "numberOfBytes": "128"
      },
      "t_struct(Sequencer)2736_storage": {
        "encoding": "inplace",
        "label": "struct ISequencerInfo.Sequencer",
        "members": [
          {
            "astId": 2710,
            "contract": "contracts/LockingPool.sol:LockingPool",
            "label": "amount",
            "offset": 0,
            "slot": "0",
            "type": "t_uint256"
          },
          {
            "astId": 2712,
            "contract": "contracts/LockingPool.sol:LockingPool",
            "label": "reward",
            "offset": 0,
            "slot": "1",
            "type": "t_uint256"
          },
          {
            "astId": 2714,
            "contract": "contracts/LockingPool.sol:LockingPool",
            "label": "activationBatch",
            "offset": 0,
            "slot": "2",
            "type": "t_uint256"
          },
          {
            "astId": 2716,
            "contract": "contracts/LockingPool.sol:LockingPool",
            "label": "updatedBatch",
            "offset": 0,
            "slot": "3",
            "type": "t_uint256"
          },
          {
            "astId": 2718,
            "contract": "contracts/LockingPool.sol:LockingPool",
            "label": "deactivationBatch",
            "offset": 0,
            "slot": "4",
            "type": "t_uint256"
          },
          {
            "astId": 2720,
            "contract": "contracts/LockingPool.sol:LockingPool",
            "label": "deactivationTime",
            "offset": 0,
            "slot": "5",
            "type": "t_uint256"
          },
          {
            "astId": 2722,
            "contract": "contracts/LockingPool.sol:LockingPool",
            "label": "unlockClaimTime",
            "offset": 0,
            "slot": "6",
            "type": "t_uint256"
          },
          {
            "astId": 2724,
            "contract": "contracts/LockingPool.sol:LockingPool",
            "label": "nonce",
            "offset": 0,
            "slot": "7",
            "type": "t_uint256"
          },
          {
            "astId": 2726,
            "contract": "contracts/LockingPool.sol:LockingPool",
            "label": "owner",
            "offset": 0,
            "slot": "8",
            "type": "t_address"
          },
          {
            "astId": 2728,
            "contract": "contracts/LockingPool.sol:LockingPool",
            "label": "signer",
            "offset": 0,
            "slot": "9",
            "type": "t_address"
          },
          {
            "astId": 2730,
            "contract": "contracts/LockingPool.sol:LockingPool",
            "label": "pubkey",
            "offset": 0,
            "slot": "10",
            "type": "t_bytes_storage"
          },
          {
            "astId": 2732,
            "contract": "contracts/LockingPool.sol:LockingPool",
            "label": "rewardRecipient",
            "offset": 0,
            "slot": "11",
            "type": "t_address"
          },
          {
            "astId": 2735,
            "contract": "contracts/LockingPool.sol:LockingPool",
            "label": "status",
            "offset": 20,
            "slot": "11",
            "type": "t_enum(Status)2708"
          }
        ],
        "numberOfBytes": "384"
      },
      "t_uint256": {
        "encoding": "inplace",
        "label": "uint256",
        "numberOfBytes": "32"
      },
      "t_uint8": {
        "encoding": "inplace",
        "label": "uint8",
        "numberOfBytes": "1"
      }
    }
  }
}